{
  "data": {
    "bytecode": {
      "linkReferences": {},
      "object": "608060405234801562000010575f80fd5b506040516200468c3803806200468c83398181016040528101906200003691906200047f565b335f73ffffffffffffffffffffffffffffffffffffffff168173ffffffffffffffffffffffffffffffffffffffff1603620000aa575f6040517f1e4fbdf7000000000000000000000000000000000000000000000000000000008152600401620000a1919062000533565b60405180910390fd5b620000bb81620001a060201b60201c565b508460015f6101000a81548173ffffffffffffffffffffffffffffffffffffffff021916908373ffffffffffffffffffffffffffffffffffffffff1602179055508360025f6101000a81548173ffffffffffffffffffffffffffffffffffffffff021916908373ffffffffffffffffffffffffffffffffffffffff1602179055508260035f6101000a81548173ffffffffffffffffffffffffffffffffffffffff021916908373ffffffffffffffffffffffffffffffffffffffff16021790555081600590816200018d91906200077c565b5080600481905550505050505062000860565b5f805f9054906101000a900473ffffffffffffffffffffffffffffffffffffffff169050815f806101000a81548173ffffffffffffffffffffffffffffffffffffffff021916908373ffffffffffffffffffffffffffffffffffffffff1602179055508173ffffffffffffffffffffffffffffffffffffffff168173ffffffffffffffffffffffffffffffffffffffff167f8be0079c531659141344cd1fd0a4f28419497f9722a3daafe3b4186f6b6457e060405160405180910390a35050565b5f604051905090565b5f80fd5b5f80fd5b5f73ffffffffffffffffffffffffffffffffffffffff82169050919050565b5f6200029d8262000272565b9050919050565b620002af8162000291565b8114620002ba575f80fd5b50565b5f81519050620002cd81620002a4565b92915050565b5f80fd5b5f80fd5b5f601f19601f8301169050919050565b7f4e487b71000000000000000000000000000000000000000000000000000000005f52604160045260245ffd5b6200032382620002db565b810181811067ffffffffffffffff82111715620003455762000344620002eb565b5b80604052505050565b5f6200035962000261565b905062000367828262000318565b919050565b5f67ffffffffffffffff821115620003895762000388620002eb565b5b6200039482620002db565b9050602081019050919050565b5f5b83811015620003c0578082015181840152602081019050620003a3565b5f8484015250505050565b5f620003e1620003db846200036c565b6200034e565b9050828152602081018484840111156200040057620003ff620002d7565b5b6200040d848285620003a1565b509392505050565b5f82601f8301126200042c576200042b620002d3565b5b81516200043e848260208601620003cb565b91505092915050565b5f819050919050565b6200045b8162000447565b811462000466575f80fd5b50565b5f81519050620004798162000450565b92915050565b5f805f805f60a086880312156200049b576200049a6200026a565b5b5f620004aa88828901620002bd565b9550506020620004bd88828901620002bd565b9450506040620004d088828901620002bd565b935050606086015167ffffffffffffffff811115620004f457620004f36200026e565b5b620005028882890162000415565b9250506080620005158882890162000469565b9150509295509295909350565b6200052d8162000291565b82525050565b5f602082019050620005485f83018462000522565b92915050565b5f81519050919050565b7f4e487b71000000000000000000000000000000000000000000000000000000005f52602260045260245ffd5b5f60028204905060018216806200059d57607f821691505b602082108103620005b357620005b262000558565b5b50919050565b5f819050815f5260205f209050919050565b5f6020601f8301049050919050565b5f82821b905092915050565b5f60088302620006177fffffffffffffffffffffffffffffffffffffffffffffffffffffffffffffffff82620005da565b620006238683620005da565b95508019841693508086168417925050509392505050565b5f819050919050565b5f620006646200065e620006588462000447565b6200063b565b62000447565b9050919050565b5f819050919050565b6200067f8362000644565b620006976200068e826200066b565b848454620005e6565b825550505050565b5f90565b620006ad6200069f565b620006ba81848462000674565b505050565b5b81811015620006e157620006d55f82620006a3565b600181019050620006c0565b5050565b601f8211156200073057620006fa81620005b9565b6200070584620005cb565b8101602085101562000715578190505b6200072d6200072485620005cb565b830182620006bf565b50505b505050565b5f82821c905092915050565b5f620007525f198460080262000735565b1980831691505092915050565b5f6200076c838362000741565b9150826002028217905092915050565b62000787826200054e565b67ffffffffffffffff811115620007a357620007a2620002eb565b5b620007af825462000585565b620007bc828285620006e5565b5f60209050601f831160018114620007f2575f8415620007dd578287015190505b620007e985826200075f565b86555062000858565b601f1984166200080286620005b9565b5f5b828110156200082b5784890151825560018201915060208501945060208101905062000804565b868310156200084b578489015162000847601f89168262000741565b8355505b6001600288020188555050505b505050505050565b613e1e806200086e5f395ff3fe60806040526004361061014e575f3560e01c80637d73b231116100b5578063a8e5fbc01161006e578063a8e5fbc0146104d9578063acd7155414610503578063bc197c8114610533578063e7d4fe751461056f578063f23a6e6114610599578063f2fde38b146105d55761018e565b80637d73b231146103c75780637ed7e08c146103f15780638086985314610421578063859872171461044b5780638975491f146104735780638da5cb5b146104af5761018e565b8063557499ba11610107578063557499ba146102c35780635a0dac49146102eb5780635e3e940f1461031b578063715018a61461034b57806379293fbe146103615780637ce914111461039d5761018e565b806301ffc9a7146101c95780630491706214610205578063371412f1146102355780633ccfd60b1461025d578063479f61521461027357806348cedf851461029b5761018e565b3661018e577f1e57e3bb474320be3d2c77138f75b7c3941292d647f5f9634e33a8e94e0e069b333460405161018492919061240d565b60405180910390a1005b7f1e57e3bb474320be3d2c77138f75b7c3941292d647f5f9634e33a8e94e0e069b33346040516101bf92919061240d565b60405180910390a1005b3480156101d4575f80fd5b506101ef60048036038101906101ea919061249a565b6105fd565b6040516101fc91906124df565b60405180910390f35b61021f600480360381019061021a91906126c4565b6106ce565b60405161022c9190612783565b60405180910390f35b348015610240575f80fd5b5061025b600480360381019061025691906127c6565b610b99565b005b348015610268575f80fd5b50610271610be4565b005b34801561027e575f80fd5b50610299600480360381019061029491906127c6565b610c9e565b005b3480156102a6575f80fd5b506102c160048036038101906102bc919061281b565b610ce9565b005b3480156102ce575f80fd5b506102e960048036038101906102e491906127c6565b610d3d565b005b610305600480360381019061030091906126c4565b610d88565b6040516103129190612783565b60405180910390f35b61033560048036038101906103309190612846565b610fcf565b60405161034291906124df565b60405180910390f35b348015610356575f80fd5b5061035f611266565b005b34801561036c575f80fd5b50610387600480360381019061038291906128e9565b611279565b60405161039491906124df565b60405180910390f35b3480156103a8575f80fd5b506103b1611324565b6040516103be9190612914565b60405180910390f35b3480156103d2575f80fd5b506103db61132a565b6040516103e89190612988565b60405180910390f35b61040b600480360381019061040691906126c4565b61134f565b6040516104189190612783565b60405180910390f35b34801561042c575f80fd5b506104356115fd565b60405161044291906129c1565b60405180910390f35b348015610456575f80fd5b50610471600480360381019061046c91906129da565b611622565b005b34801561047e575f80fd5b5061049960048036038101906104949190612a25565b611640565b6040516104a69190612783565b60405180910390f35b3480156104ba575f80fd5b506104c36116b3565b6040516104d09190612783565b60405180910390f35b3480156104e4575f80fd5b506104ed6116da565b6040516104fa9190612a9f565b60405180910390f35b61051d60048036038101906105189190612ab8565b6116ff565b60405161052a9190612783565b60405180910390f35b34801561053e575f80fd5b5061055960048036038101906105549190612bef565b6119cb565b6040516105669190612cd5565b60405180910390f35b34801561057a575f80fd5b506105836119e2565b6040516105909190612d68565b60405180910390f35b3480156105a4575f80fd5b506105bf60048036038101906105ba9190612d88565b611a6e565b6040516105cc9190612cd5565b60405180910390f35b3480156105e0575f80fd5b506105fb60048036038101906105f691906127c6565b611a83565b005b5f7f4e2312e0000000000000000000000000000000000000000000000000000000007bffffffffffffffffffffffffffffffffffffffffffffffffffffffff1916827bffffffffffffffffffffffffffffffffffffffffffffffffffffffff191614806106c757507f01ffc9a7000000000000000000000000000000000000000000000000000000007bffffffffffffffffffffffffffffffffffffffffffffffffffffffff1916827bffffffffffffffffffffffffffffffffffffffffffffffffffffffff1916145b9050919050565b5f600454341015610714576040517f08c379a000000000000000000000000000000000000000000000000000000000815260040161070b90612e68565b60405180910390fd5b5f8686604051610725929190612eb4565b604051809103902090505f8382604051602001610743929190612eec565b6040516020818303038152906040528051906020012090505f888888886040516020016107739493929190612f8f565b6040516020818303038152906040529050610790825f1c8b611640565b935061079e825f1c8b611b07565b506107a98787611c2c565b806107b957506107b885611c65565b5b6107f8576040517f08c379a00000000000000000000000000000000000000000000000000000000081526004016107ef90613031565b60405180910390fd5b610804858a8a86611e10565b610843576040517f08c379a000000000000000000000000000000000000000000000000000000000815260040161083a90613099565b60405180910390fd5b7fb01595014d6b8628823d034d1da44afd71559b9f3058903a924bcdb140d976b1858a8a604051610876939291906130f2565b60405180910390a15f60015f9054906101000a900473ffffffffffffffffffffffffffffffffffffffff1673ffffffffffffffffffffffffffffffffffffffff1663bffbe61c866040518263ffffffff1660e01b81526004016108d99190612783565b602060405180830381865afa1580156108f4573d5f803e3d5ffd5b505050506040513d601f19601f820116820180604052508101906109189190613136565b905061092381611f65565b73ffffffffffffffffffffffffffffffffffffffff16637737221382846040518363ffffffff1660e01b815260040161095d929190613161565b5f604051808303815f87803b158015610974575f80fd5b505af1158015610986573d5f803e3d5ffd5b505050508473ffffffffffffffffffffffffffffffffffffffff167fa7087df87b8f2f603995742f0cbc82961d8bee20d65d9fe7ec01fc435aab5cd6836040516109d09190612d68565b60405180910390a2610a0383603c876040516020016109ef91906131d4565b604051602081830303815290604052612006565b610a42576040517f08c379a0000000000000000000000000000000000000000000000000000000008152600401610a399061325e565b60405180910390fd5b8473ffffffffffffffffffffffffffffffffffffffff167fbce672f287ca218b7a90c84485d9b40640252149f0e8c2932fe972e3fbc6fdc383604051610a889190612d68565b60405180910390a260025f9054906101000a900473ffffffffffffffffffffffffffffffffffffffff1673ffffffffffffffffffffffffffffffffffffffff16635b0fc9c382336040518363ffffffff1660e01b8152600401610aec92919061327c565b5f604051808303815f87803b158015610b03575f80fd5b505af1158015610b15573d5f803e3d5ffd5b505050507f2260a4d0c00902d7996e8f7d669d22564414d41be4d278a40387ddf58179d3928533604051610b4a9291906132a3565b60405180910390a17f1e57e3bb474320be3d2c77138f75b7c3941292d647f5f9634e33a8e94e0e069b3334604051610b8392919061240d565b60405180910390a1505050509695505050505050565b610ba161208c565b8060035f6101000a81548173ffffffffffffffffffffffffffffffffffffffff021916908373ffffffffffffffffffffffffffffffffffffffff16021790555050565b610bec61208c565b5f610bf56116b3565b73ffffffffffffffffffffffffffffffffffffffff1647604051610c18906132ed565b5f6040518083038185875af1925050503d805f8114610c52576040519150601f19603f3d011682016040523d82523d5f602084013e610c57565b606091505b5050905080610c9b576040517f08c379a0000000000000000000000000000000000000000000000000000000008152600401610c929061334b565b60405180910390fd5b50565b610ca661208c565b8060025f6101000a81548173ffffffffffffffffffffffffffffffffffffffff021916908373ffffffffffffffffffffffffffffffffffffffff16021790555050565b610cf161208c565b5f8111610d33576040517f08c379a0000000000000000000000000000000000000000000000000000000008152600401610d2a906133b3565b60405180910390fd5b8060048190555050565b610d4561208c565b8060015f6101000a81548173ffffffffffffffffffffffffffffffffffffffff021916908373ffffffffffffffffffffffffffffffffffffffff16021790555050565b5f600454341015610dce576040517f08c379a0000000000000000000000000000000000000000000000000000000008152600401610dc590612e68565b60405180910390fd5b5f8686604051610ddf929190612eb4565b604051809103902090505f8382604051602001610dfd929190612eec565b6040516020818303038152906040528051906020012090505f88888888604051602001610e2d9493929190612f8f565b6040516020818303038152906040529050610e4a825f1c8b611640565b9350610e58825f1c8b611b07565b50610e67848a8a8a8a8a610fcf565b610ea6576040517f08c379a0000000000000000000000000000000000000000000000000000000008152600401610e9d90613441565b60405180910390fd5b610eb98482610eb485611f65565b612113565b610ef8576040517f08c379a0000000000000000000000000000000000000000000000000000000008152600401610eef906134a9565b60405180910390fd5b8373ffffffffffffffffffffffffffffffffffffffff167fa7087df87b8f2f603995742f0cbc82961d8bee20d65d9fe7ec01fc435aab5cd682604051610f3e9190612d68565b60405180910390a2610f5084336121b4565b7f2260a4d0c00902d7996e8f7d669d22564414d41be4d278a40387ddf58179d3928433604051610f819291906132a3565b60405180910390a17f1e57e3bb474320be3d2c77138f75b7c3941292d647f5f9634e33a8e94e0e069b3334604051610fba92919061240d565b60405180910390a15050509695505050505050565b5f600454341015611015576040517f08c379a000000000000000000000000000000000000000000000000000000000815260040161100c90612e68565b60405180910390fd5b5f8686604051611026929190612eb4565b604051809103902090505f8382604051602001611044929190612eec565b6040516020818303038152906040528051906020012090505f888888886040516020016110749493929190612f8f565b604051602081830303815290604052905061108f8787611c2c565b8061109f575061109e85611c65565b5b6110de576040517f08c379a00000000000000000000000000000000000000000000000000000000081526004016110d590613031565b60405180910390fd5b6110ea858a8a86611e10565b611129576040517f08c379a000000000000000000000000000000000000000000000000000000000815260040161112090613099565b60405180910390fd5b7fb01595014d6b8628823d034d1da44afd71559b9f3058903a924bcdb140d976b1858a8a60405161115c939291906130f2565b60405180910390a161118f82603c8c60405160200161117b91906131d4565b604051602081830303815290604052612006565b6111ce576040517f08c379a00000000000000000000000000000000000000000000000000000000081526004016111c59061325e565b60405180910390fd5b8973ffffffffffffffffffffffffffffffffffffffff167fbce672f287ca218b7a90c84485d9b40640252149f0e8c2932fe972e3fbc6fdc3826040516112149190612d68565b60405180910390a27f1e57e3bb474320be3d2c77138f75b7c3941292d647f5f9634e33a8e94e0e069b333460405161124d92919061240d565b60405180910390a1600193505050509695505050505050565b61126e61208c565b6112775f6122ee565b565b5f60035f9054906101000a900473ffffffffffffffffffffffffffffffffffffffff1673ffffffffffffffffffffffffffffffffffffffff1663fd0cd0d9836040518263ffffffff1660e01b81526004016112d491906134c7565b602060405180830381865afa92505050801561130e57506040513d601f19601f8201168201806040525081019061130b919061350a565b60015b61131a575f905061131f565b809150505b919050565b60045481565b60025f9054906101000a900473ffffffffffffffffffffffffffffffffffffffff1681565b5f600454341015611395576040517f08c379a000000000000000000000000000000000000000000000000000000000815260040161138c90612e68565b60405180910390fd5b5f86866040516113a6929190612eb4565b604051809103902090505f83826040516020016113c4929190612eec565b6040516020818303038152906040528051906020012090505f888888886040516020016113f49493929190612f8f565b604051602081830303815290604052905061140f8787611c2c565b8061141f575061141e85611c65565b5b61145e576040517f08c379a000000000000000000000000000000000000000000000000000000000815260040161145590613031565b60405180910390fd5b61146a858a8a86611e10565b6114a9576040517f08c379a00000000000000000000000000000000000000000000000000000000081526004016114a090613099565b60405180910390fd5b7fb01595014d6b8628823d034d1da44afd71559b9f3058903a924bcdb140d976b1858a8a6040516114dc939291906130f2565b60405180910390a16114f0825f1c8b611640565b93506114fe825f1c8b611b07565b5061152a82603c8660405160200161151691906131d4565b604051602081830303815290604052612006565b611569576040517f08c379a00000000000000000000000000000000000000000000000000000000081526004016115609061325e565b60405180910390fd5b8373ffffffffffffffffffffffffffffffffffffffff167fbce672f287ca218b7a90c84485d9b40640252149f0e8c2932fe972e3fbc6fdc3826040516115af9190612d68565b60405180910390a27f1e57e3bb474320be3d2c77138f75b7c3941292d647f5f9634e33a8e94e0e069b33346040516115e892919061240d565b60405180910390a15050509695505050505050565b60015f9054906101000a900473ffffffffffffffffffffffffffffffffffffffff1681565b61162a61208c565b81816005918261163b929190613730565b505050565b5f80828051906020012090505f8460405160200161165e919061381d565b60405160208183030381529060405280519060200120905060ff60f81b3082846040516020016116919493929190613882565b604051602081830303815290604052805190602001205f1c9250505092915050565b5f805f9054906101000a900473ffffffffffffffffffffffffffffffffffffffff16905090565b60035f9054906101000a900473ffffffffffffffffffffffffffffffffffffffff1681565b5f600454341015611745576040517f08c379a000000000000000000000000000000000000000000000000000000000815260040161173c90612e68565b60405180910390fd5b611751825f1c86611640565b905061175f825f1c86611b07565b5061176982611c65565b6117a8576040517f08c379a000000000000000000000000000000000000000000000000000000000815260040161179f90613919565b60405180910390fd5b6117d382603c836040516020016117bf91906131d4565b604051602081830303815290604052612006565b611812576040517f08c379a00000000000000000000000000000000000000000000000000000000081526004016118099061325e565b60405180910390fd5b8073ffffffffffffffffffffffffffffffffffffffff167fbce672f287ca218b7a90c84485d9b40640252149f0e8c2932fe972e3fbc6fdc3858560405161185a929190613937565b60405180910390a26118b88185858080601f0160208091040260200160405190810160405280939291908181526020018383808284375f81840152601f19601f820116905080830192505050505050506118b385611f65565b612113565b6118f7576040517f08c379a00000000000000000000000000000000000000000000000000000000081526004016118ee906134a9565b60405180910390fd5b8073ffffffffffffffffffffffffffffffffffffffff167fa7087df87b8f2f603995742f0cbc82961d8bee20d65d9fe7ec01fc435aab5cd6858560405161193f929190613937565b60405180910390a261195181336121b4565b7f2260a4d0c00902d7996e8f7d669d22564414d41be4d278a40387ddf58179d39281336040516119829291906132a3565b60405180910390a17f1e57e3bb474320be3d2c77138f75b7c3941292d647f5f9634e33a8e94e0e069b33346040516119bb92919061240d565b60405180910390a1949350505050565b5f63bc197c8160e01b905098975050505050505050565b600580546119ef9061356c565b80601f0160208091040260200160405190810160405280929190818152602001828054611a1b9061356c565b8015611a665780601f10611a3d57610100808354040283529160200191611a66565b820191905f5260205f20905b815481529060010190602001808311611a4957829003601f168201915b505050505081565b5f63f23a6e6160e01b90509695505050505050565b611a8b61208c565b5f73ffffffffffffffffffffffffffffffffffffffff168173ffffffffffffffffffffffffffffffffffffffff1603611afb575f6040517f1e4fbdf7000000000000000000000000000000000000000000000000000000008152600401611af29190612783565b60405180910390fd5b611b04816122ee565b50565b5f80825111611b4b576040517f08c379a0000000000000000000000000000000000000000000000000000000008152600401611b42906139a3565b60405180910390fd5b5f83604051602001611b5d919061381d565b604051602081830303815290604052805190602001209050808351602085015ff591505f73ffffffffffffffffffffffffffffffffffffffff168273ffffffffffffffffffffffffffffffffffffffff1603611bee576040517f08c379a0000000000000000000000000000000000000000000000000000000008152600401611be590613a0b565b60405180910390fd5b7f8ffcdc15a283d706d38281f500270d8b5a656918f555de0913d7455e3e6bc1bf82604051611c1d9190612783565b60405180910390a15092915050565b5f6005604051611c3c9190613abb565b60405180910390208383604051611c54929190612eb4565b604051809103902014905092915050565b5f611c6f82611279565b611d3f573373ffffffffffffffffffffffffffffffffffffffff1660025f9054906101000a900473ffffffffffffffffffffffffffffffffffffffff1673ffffffffffffffffffffffffffffffffffffffff166302571be3846040518263ffffffff1660e01b8152600401611ce491906134c7565b602060405180830381865afa158015611cff573d5f803e3d5ffd5b505050506040513d601f19601f82011682018060405250810190611d239190613ae5565b73ffffffffffffffffffffffffffffffffffffffff1614611e09565b3373ffffffffffffffffffffffffffffffffffffffff1660035f9054906101000a900473ffffffffffffffffffffffffffffffffffffffff1673ffffffffffffffffffffffffffffffffffffffff16636352211e845f1c6040518263ffffffff1660e01b8152600401611db29190612914565b602060405180830381865afa158015611dcd573d5f803e3d5ffd5b505050506040513d601f19601f82011682018060405250810190611df19190613ae5565b73ffffffffffffffffffffffffffffffffffffffff16145b9050919050565b5f611e1a85611279565b15611ec15760035f9054906101000a900473ffffffffffffffffffffffffffffffffffffffff1673ffffffffffffffffffffffffffffffffffffffff166324c1af4486868630611e698b611f65565b5f805f6040518963ffffffff1660e01b8152600401611e8f989796959493929190613b9b565b5f604051808303815f87803b158015611ea6575f80fd5b505af1158015611eb8573d5f803e3d5ffd5b50505050611f59565b60025f9054906101000a900473ffffffffffffffffffffffffffffffffffffffff1673ffffffffffffffffffffffffffffffffffffffff16635ef2c7f0868430611f0a8a611f65565b5f6040518663ffffffff1660e01b8152600401611f2b959493929190613c11565b5f604051808303815f87803b158015611f42575f80fd5b505af1158015611f54573d5f803e3d5ffd5b505050505b60019050949350505050565b5f60025f9054906101000a900473ffffffffffffffffffffffffffffffffffffffff1673ffffffffffffffffffffffffffffffffffffffff16630178b8bf836040518263ffffffff1660e01b8152600401611fc091906134c7565b602060405180830381865afa158015611fdb573d5f803e3d5ffd5b505050506040513d601f19601f82011682018060405250810190611fff9190613ae5565b9050919050565b5f61201084611f65565b73ffffffffffffffffffffffffffffffffffffffff16638b95dd718585856040518463ffffffff1660e01b815260040161204c93929190613cb4565b5f604051808303815f87803b158015612063575f80fd5b505af1925050508015612074575060015b612080575f9050612085565b600190505b9392505050565b6120946123af565b73ffffffffffffffffffffffffffffffffffffffff166120b26116b3565b73ffffffffffffffffffffffffffffffffffffffff1614612111576120d56123af565b6040517f118cdaa70000000000000000000000000000000000000000000000000000000081526004016121089190612783565b60405180910390fd5b565b5f60015f9054906101000a900473ffffffffffffffffffffffffffffffffffffffff1673ffffffffffffffffffffffffffffffffffffffff16637a806d6b853085876040518563ffffffff1660e01b81526004016121749493929190613cf0565b5f604051808303815f87803b15801561218b575f80fd5b505af192505050801561219c575060015b6121a8575f90506121ad565b600190505b9392505050565b5f8273ffffffffffffffffffffffffffffffffffffffff16826040516024016121dd9190612783565b6040516020818303038152906040527ff2fde38b000000000000000000000000000000000000000000000000000000007bffffffffffffffffffffffffffffffffffffffffffffffffffffffff19166020820180517bffffffffffffffffffffffffffffffffffffffffffffffffffffffff83818316178352505050506040516122679190613d6a565b5f604051808303815f865af19150503d805f81146122a0576040519150601f19603f3d011682016040523d82523d5f602084013e6122a5565b606091505b50509050806122e9576040517f08c379a00000000000000000000000000000000000000000000000000000000081526004016122e090613dca565b60405180910390fd5b505050565b5f805f9054906101000a900473ffffffffffffffffffffffffffffffffffffffff169050815f806101000a81548173ffffffffffffffffffffffffffffffffffffffff021916908373ffffffffffffffffffffffffffffffffffffffff1602179055508173ffffffffffffffffffffffffffffffffffffffff168173ffffffffffffffffffffffffffffffffffffffff167f8be0079c531659141344cd1fd0a4f28419497f9722a3daafe3b4186f6b6457e060405160405180910390a35050565b5f33905090565b5f73ffffffffffffffffffffffffffffffffffffffff82169050919050565b5f6123df826123b6565b9050919050565b6123ef816123d5565b82525050565b5f819050919050565b612407816123f5565b82525050565b5f6040820190506124205f8301856123e6565b61242d60208301846123fe565b9392505050565b5f604051905090565b5f80fd5b5f80fd5b5f7fffffffff0000000000000000000000000000000000000000000000000000000082169050919050565b61247981612445565b8114612483575f80fd5b50565b5f8135905061249481612470565b92915050565b5f602082840312156124af576124ae61243d565b5b5f6124bc84828501612486565b91505092915050565b5f8115159050919050565b6124d9816124c5565b82525050565b5f6020820190506124f25f8301846124d0565b92915050565b5f80fd5b5f80fd5b5f601f19601f8301169050919050565b7f4e487b71000000000000000000000000000000000000000000000000000000005f52604160045260245ffd5b61254682612500565b810181811067ffffffffffffffff8211171561256557612564612510565b5b80604052505050565b5f612577612434565b9050612583828261253d565b919050565b5f67ffffffffffffffff8211156125a2576125a1612510565b5b6125ab82612500565b9050602081019050919050565b828183375f83830152505050565b5f6125d86125d384612588565b61256e565b9050828152602081018484840111156125f4576125f36124fc565b5b6125ff8482856125b8565b509392505050565b5f82601f83011261261b5761261a6124f8565b5b813561262b8482602086016125c6565b91505092915050565b5f80fd5b5f80fd5b5f8083601f840112612651576126506124f8565b5b8235905067ffffffffffffffff81111561266e5761266d612634565b5b60208301915083600182028301111561268a57612689612638565b5b9250929050565b5f819050919050565b6126a381612691565b81146126ad575f80fd5b50565b5f813590506126be8161269a565b92915050565b5f805f805f80608087890312156126de576126dd61243d565b5b5f87013567ffffffffffffffff8111156126fb576126fa612441565b5b61270789828a01612607565b965050602087013567ffffffffffffffff81111561272857612727612441565b5b61273489828a0161263c565b9550955050604087013567ffffffffffffffff81111561275757612756612441565b5b61276389828a0161263c565b9350935050606061277689828a016126b0565b9150509295509295509295565b5f6020820190506127965f8301846123e6565b92915050565b6127a5816123d5565b81146127af575f80fd5b50565b5f813590506127c08161279c565b92915050565b5f602082840312156127db576127da61243d565b5b5f6127e8848285016127b2565b91505092915050565b6127fa816123f5565b8114612804575f80fd5b50565b5f81359050612815816127f1565b92915050565b5f602082840312156128305761282f61243d565b5b5f61283d84828501612807565b91505092915050565b5f805f805f80608087890312156128605761285f61243d565b5b5f61286d89828a016127b2565b965050602087013567ffffffffffffffff81111561288e5761288d612441565b5b61289a89828a0161263c565b9550955050604087013567ffffffffffffffff8111156128bd576128bc612441565b5b6128c989828a0161263c565b935093505060606128dc89828a016126b0565b9150509295509295509295565b5f602082840312156128fe576128fd61243d565b5b5f61290b848285016126b0565b91505092915050565b5f6020820190506129275f8301846123fe565b92915050565b5f819050919050565b5f61295061294b612946846123b6565b61292d565b6123b6565b9050919050565b5f61296182612936565b9050919050565b5f61297282612957565b9050919050565b61298281612968565b82525050565b5f60208201905061299b5f830184612979565b92915050565b5f6129ab82612957565b9050919050565b6129bb816129a1565b82525050565b5f6020820190506129d45f8301846129b2565b92915050565b5f80602083850312156129f0576129ef61243d565b5b5f83013567ffffffffffffffff811115612a0d57612a0c612441565b5b612a198582860161263c565b92509250509250929050565b5f8060408385031215612a3b57612a3a61243d565b5b5f612a4885828601612807565b925050602083013567ffffffffffffffff811115612a6957612a68612441565b5b612a7585828601612607565b9150509250929050565b5f612a8982612957565b9050919050565b612a9981612a7f565b82525050565b5f602082019050612ab25f830184612a90565b92915050565b5f805f8060608587031215612ad057612acf61243d565b5b5f85013567ffffffffffffffff811115612aed57612aec612441565b5b612af987828801612607565b945050602085013567ffffffffffffffff811115612b1a57612b19612441565b5b612b268782880161263c565b93509350506040612b39878288016126b0565b91505092959194509250565b5f8083601f840112612b5a57612b596124f8565b5b8235905067ffffffffffffffff811115612b7757612b76612634565b5b602083019150836020820283011115612b9357612b92612638565b5b9250929050565b5f8083601f840112612baf57612bae6124f8565b5b8235905067ffffffffffffffff811115612bcc57612bcb612634565b5b602083019150836001820283011115612be857612be7612638565b5b9250929050565b5f805f805f805f8060a0898b031215612c0b57612c0a61243d565b5b5f612c188b828c016127b2565b9850506020612c298b828c016127b2565b975050604089013567ffffffffffffffff811115612c4a57612c49612441565b5b612c568b828c01612b45565b9650965050606089013567ffffffffffffffff811115612c7957612c78612441565b5b612c858b828c01612b45565b9450945050608089013567ffffffffffffffff811115612ca857612ca7612441565b5b612cb48b828c01612b9a565b92509250509295985092959890939650565b612ccf81612445565b82525050565b5f602082019050612ce85f830184612cc6565b92915050565b5f81519050919050565b5f82825260208201905092915050565b5f5b83811015612d25578082015181840152602081019050612d0a565b5f8484015250505050565b5f612d3a82612cee565b612d448185612cf8565b9350612d54818560208601612d08565b612d5d81612500565b840191505092915050565b5f6020820190508181035f830152612d808184612d30565b905092915050565b5f805f805f8060a08789031215612da257612da161243d565b5b5f612daf89828a016127b2565b9650506020612dc089828a016127b2565b9550506040612dd189828a01612807565b9450506060612de289828a01612807565b935050608087013567ffffffffffffffff811115612e0357612e02612441565b5b612e0f89828a01612b9a565b92509250509295509295509295565b7f496e73756666696369656e7420455448000000000000000000000000000000005f82015250565b5f612e52601083612cf8565b9150612e5d82612e1e565b602082019050919050565b5f6020820190508181035f830152612e7f81612e46565b9050919050565b5f81905092915050565b5f612e9b8385612e86565b9350612ea88385846125b8565b82840190509392505050565b5f612ec0828486612e90565b91508190509392505050565b5f819050919050565b612ee6612ee182612691565b612ecc565b82525050565b5f612ef78285612ed5565b602082019150612f078284612ed5565b6020820191508190509392505050565b5f81905092915050565b5f612f2c8385612f17565b9350612f398385846125b8565b82840190509392505050565b7f2e000000000000000000000000000000000000000000000000000000000000005f82015250565b5f612f79600183612f17565b9150612f8482612f45565b600182019050919050565b5f612f9b828688612f21565b9150612fa682612f6d565b9150612fb3828486612f21565b915081905095945050505050565b7f53656e646572206973206e6f7420746865206f776e6572206f6620706172656e5f8201527f74206e6f64650000000000000000000000000000000000000000000000000000602082015250565b5f61301b602683612cf8565b915061302682612fc1565b604082019050919050565b5f6020820190508181035f8301526130488161300f565b9050919050565b7f5375626e616d65206372656174696f6e206661696c65640000000000000000005f82015250565b5f613083601783612cf8565b915061308e8261304f565b602082019050919050565b5f6020820190508181035f8301526130b081613077565b9050919050565b6130c081612691565b82525050565b5f6130d18385612cf8565b93506130de8385846125b8565b6130e783612500565b840190509392505050565b5f6040820190506131055f8301866130b7565b81810360208301526131188184866130c6565b9050949350505050565b5f815190506131308161269a565b92915050565b5f6020828403121561314b5761314a61243d565b5b5f61315884828501613122565b91505092915050565b5f6040820190506131745f8301856130b7565b81810360208301526131868184612d30565b90509392505050565b5f8160601b9050919050565b5f6131a58261318f565b9050919050565b5f6131b68261319b565b9050919050565b6131ce6131c9826123d5565b6131ac565b82525050565b5f6131df82846131bd565b60148201915081905092915050565b7f736574416464722c20666f7277617264207265736f6c7574696f6e206661696c5f8201527f6564000000000000000000000000000000000000000000000000000000000000602082015250565b5f613248602283612cf8565b9150613253826131ee565b604082019050919050565b5f6020820190508181035f8301526132758161323c565b9050919050565b5f60408201905061328f5f8301856130b7565b61329c60208301846123e6565b9392505050565b5f6040820190506132b65f8301856123e6565b6132c360208301846123e6565b9392505050565b50565b5f6132d85f83612e86565b91506132e3826132ca565b5f82019050919050565b5f6132f7826132cd565b9150819050919050565b7f5769746864726177206661696c656400000000000000000000000000000000005f82015250565b5f613335600f83612cf8565b915061334082613301565b602082019050919050565b5f6020820190508181035f83015261336281613329565b9050919050565b7f5072696365206d757374206265203e20300000000000000000000000000000005f82015250565b5f61339d601183612cf8565b91506133a882613369565b602082019050919050565b5f6020820190508181035f8301526133ca81613391565b9050919050565b7f4661696c656420746f20637265617465207375626e616d6520616e64207365745f8201527f20666f7277617264207265736f6c7574696f6e00000000000000000000000000602082015250565b5f61342b603383612cf8565b9150613436826133d1565b604082019050919050565b5f6020820190508181035f8301526134588161341f565b9050919050565b7f4661696c656420746f20736574207072696d617279206e616d650000000000005f82015250565b5f613493601a83612cf8565b915061349e8261345f565b602082019050919050565b5f6020820190508181035f8301526134c081613487565b9050919050565b5f6020820190506134da5f8301846130b7565b92915050565b6134e9816124c5565b81146134f3575f80fd5b50565b5f81519050613504816134e0565b92915050565b5f6020828403121561351f5761351e61243d565b5b5f61352c848285016134f6565b91505092915050565b5f82905092915050565b7f4e487b71000000000000000000000000000000000000000000000000000000005f52602260045260245ffd5b5f600282049050600182168061358357607f821691505b6020821081036135965761359561353f565b5b50919050565b5f819050815f5260205f209050919050565b5f6020601f8301049050919050565b5f82821b905092915050565b5f600883026135f87fffffffffffffffffffffffffffffffffffffffffffffffffffffffffffffffff826135bd565b61360286836135bd565b95508019841693508086168417925050509392505050565b5f61363461362f61362a846123f5565b61292d565b6123f5565b9050919050565b5f819050919050565b61364d8361361a565b6136616136598261363b565b8484546135c9565b825550505050565b5f90565b613675613669565b613680818484613644565b505050565b5b818110156136a3576136985f8261366d565b600181019050613686565b5050565b601f8211156136e8576136b98161359c565b6136c2846135ae565b810160208510156136d1578190505b6136e56136dd856135ae565b830182613685565b50505b505050565b5f82821c905092915050565b5f6137085f19846008026136ed565b1980831691505092915050565b5f61372083836136f9565b9150826002028217905092915050565b61373a8383613535565b67ffffffffffffffff81111561375357613752612510565b5b61375d825461356c565b6137688282856136a7565b5f601f831160018114613795575f8415613783578287013590505b61378d8582613715565b8655506137f4565b601f1984166137a38661359c565b5f5b828110156137ca578489013582556001820191506020850194506020810190506137a5565b868310156137e757848901356137e3601f8916826136f9565b8355505b6001600288020188555050505b50505050505050565b5f819050919050565b613817613812826123f5565b6137fd565b82525050565b5f6138288284613806565b60208201915081905092915050565b5f7fff0000000000000000000000000000000000000000000000000000000000000082169050919050565b5f819050919050565b61387c61387782613837565b613862565b82525050565b5f61388d828761386b565b60018201915061389d82866131bd565b6014820191506138ad8285612ed5565b6020820191506138bd8284612ed5565b60208201915081905095945050505050565b7f53656e646572206973206e6f7420746865206f776e6572206f66206e6f6465005f82015250565b5f613903601f83612cf8565b915061390e826138cf565b602082019050919050565b5f6020820190508181035f830152613930816138f7565b9050919050565b5f6020820190508181035f8301526139508184866130c6565b90509392505050565b7f456d7074792062797465636f64650000000000000000000000000000000000005f82015250565b5f61398d600e83612cf8565b915061399882613959565b602082019050919050565b5f6020820190508181035f8301526139ba81613981565b9050919050565b7f4465706c6f796d656e74206661696c65640000000000000000000000000000005f82015250565b5f6139f5601183612cf8565b9150613a00826139c1565b602082019050919050565b5f6020820190508181035f830152613a22816139e9565b9050919050565b5f819050815f5260205f209050919050565b5f8154613a478161356c565b613a518186612e86565b9450600182165f8114613a6b5760018114613a8057613ab2565b60ff1983168652811515820286019350613ab2565b613a8985613a29565b5f5b83811015613aaa57815481890152600182019150602081019050613a8b565b838801955050505b50505092915050565b5f613ac68284613a3b565b915081905092915050565b5f81519050613adf8161279c565b92915050565b5f60208284031215613afa57613af961243d565b5b5f613b0784828501613ad1565b91505092915050565b5f819050919050565b5f67ffffffffffffffff82169050919050565b5f613b46613b41613b3c84613b10565b61292d565b613b19565b9050919050565b613b5681613b2c565b82525050565b5f63ffffffff82169050919050565b5f613b85613b80613b7b84613b10565b61292d565b613b5c565b9050919050565b613b9581613b6b565b82525050565b5f60e082019050613bae5f83018b6130b7565b8181036020830152613bc181898b6130c6565b9050613bd060408301886123e6565b613bdd60608301876123e6565b613bea6080830186613b4d565b613bf760a0830185613b8c565b613c0460c0830184613b4d565b9998505050505050505050565b5f60a082019050613c245f8301886130b7565b613c3160208301876130b7565b613c3e60408301866123e6565b613c4b60608301856123e6565b613c586080830184613b4d565b9695505050505050565b5f81519050919050565b5f82825260208201905092915050565b5f613c8682613c62565b613c908185613c6c565b9350613ca0818560208601612d08565b613ca981612500565b840191505092915050565b5f606082019050613cc75f8301866130b7565b613cd460208301856123fe565b8181036040830152613ce68184613c7c565b9050949350505050565b5f608082019050613d035f8301876123e6565b613d1060208301866123e6565b613d1d60408301856123e6565b8181036060830152613d2f8184612d30565b905095945050505050565b5f613d4482613c62565b613d4e8185612e86565b9350613d5e818560208601612d08565b80840191505092915050565b5f613d758284613d3a565b915081905092915050565b7f4f776e657273686970207472616e73666572206661696c6564000000000000005f82015250565b5f613db4601983612cf8565b9150613dbf82613d80565b602082019050919050565b5f6020820190508181035f830152613de181613da8565b905091905056fea2646970667358221220a2afeeb3deb05121a66dfed348ca323df6ac561b73e6a32723afe6797211944664736f6c63430008180033",
      "opcodes": "PUSH1 0x80 PUSH1 0x40 MSTORE CALLVALUE DUP1 ISZERO PUSH3 0x10 JUMPI PUSH0 DUP1 REVERT JUMPDEST POP PUSH1 0x40 MLOAD PUSH3 0x468C CODESIZE SUB DUP1 PUSH3 0x468C DUP4 CODECOPY DUP2 DUP2 ADD PUSH1 0x40 MSTORE DUP2 ADD SWAP1 PUSH3 0x36 SWAP2 SWAP1 PUSH3 0x47F JUMP JUMPDEST CALLER PUSH0 PUSH20 0xFFFFFFFFFFFFFFFFFFFFFFFFFFFFFFFFFFFFFFFF AND DUP2 PUSH20 0xFFFFFFFFFFFFFFFFFFFFFFFFFFFFFFFFFFFFFFFF AND SUB PUSH3 0xAA JUMPI PUSH0 PUSH1 0x40 MLOAD PUSH32 0x1E4FBDF700000000000000000000000000000000000000000000000000000000 DUP2 MSTORE PUSH1 0x4 ADD PUSH3 0xA1 SWAP2 SWAP1 PUSH3 0x533 JUMP JUMPDEST PUSH1 0x40 MLOAD DUP1 SWAP2 SUB SWAP1 REVERT JUMPDEST PUSH3 0xBB DUP2 PUSH3 0x1A0 PUSH1 0x20 SHL PUSH1 0x20 SHR JUMP JUMPDEST POP DUP5 PUSH1 0x1 PUSH0 PUSH2 0x100 EXP DUP2 SLOAD DUP2 PUSH20 0xFFFFFFFFFFFFFFFFFFFFFFFFFFFFFFFFFFFFFFFF MUL NOT AND SWAP1 DUP4 PUSH20 0xFFFFFFFFFFFFFFFFFFFFFFFFFFFFFFFFFFFFFFFF AND MUL OR SWAP1 SSTORE POP DUP4 PUSH1 0x2 PUSH0 PUSH2 0x100 EXP DUP2 SLOAD DUP2 PUSH20 0xFFFFFFFFFFFFFFFFFFFFFFFFFFFFFFFFFFFFFFFF MUL NOT AND SWAP1 DUP4 PUSH20 0xFFFFFFFFFFFFFFFFFFFFFFFFFFFFFFFFFFFFFFFF AND MUL OR SWAP1 SSTORE POP DUP3 PUSH1 0x3 PUSH0 PUSH2 0x100 EXP DUP2 SLOAD DUP2 PUSH20 0xFFFFFFFFFFFFFFFFFFFFFFFFFFFFFFFFFFFFFFFF MUL NOT AND SWAP1 DUP4 PUSH20 0xFFFFFFFFFFFFFFFFFFFFFFFFFFFFFFFFFFFFFFFF AND MUL OR SWAP1 SSTORE POP DUP2 PUSH1 0x5 SWAP1 DUP2 PUSH3 0x18D SWAP2 SWAP1 PUSH3 0x77C JUMP JUMPDEST POP DUP1 PUSH1 0x4 DUP2 SWAP1 SSTORE POP POP POP POP POP POP PUSH3 0x860 JUMP JUMPDEST PUSH0 DUP1 PUSH0 SWAP1 SLOAD SWAP1 PUSH2 0x100 EXP SWAP1 DIV PUSH20 0xFFFFFFFFFFFFFFFFFFFFFFFFFFFFFFFFFFFFFFFF AND SWAP1 POP DUP2 PUSH0 DUP1 PUSH2 0x100 EXP DUP2 SLOAD DUP2 PUSH20 0xFFFFFFFFFFFFFFFFFFFFFFFFFFFFFFFFFFFFFFFF MUL NOT AND SWAP1 DUP4 PUSH20 0xFFFFFFFFFFFFFFFFFFFFFFFFFFFFFFFFFFFFFFFF AND MUL OR SWAP1 SSTORE POP DUP2 PUSH20 0xFFFFFFFFFFFFFFFFFFFFFFFFFFFFFFFFFFFFFFFF AND DUP2 PUSH20 0xFFFFFFFFFFFFFFFFFFFFFFFFFFFFFFFFFFFFFFFF AND PUSH32 0x8BE0079C531659141344CD1FD0A4F28419497F9722A3DAAFE3B4186F6B6457E0 PUSH1 0x40 MLOAD PUSH1 0x40 MLOAD DUP1 SWAP2 SUB SWAP1 LOG3 POP POP JUMP JUMPDEST PUSH0 PUSH1 0x40 MLOAD SWAP1 POP SWAP1 JUMP JUMPDEST PUSH0 DUP1 REVERT JUMPDEST PUSH0 DUP1 REVERT JUMPDEST PUSH0 PUSH20 0xFFFFFFFFFFFFFFFFFFFFFFFFFFFFFFFFFFFFFFFF DUP3 AND SWAP1 POP SWAP2 SWAP1 POP JUMP JUMPDEST PUSH0 PUSH3 0x29D DUP3 PUSH3 0x272 JUMP JUMPDEST SWAP1 POP SWAP2 SWAP1 POP JUMP JUMPDEST PUSH3 0x2AF DUP2 PUSH3 0x291 JUMP JUMPDEST DUP2 EQ PUSH3 0x2BA JUMPI PUSH0 DUP1 REVERT JUMPDEST POP JUMP JUMPDEST PUSH0 DUP2 MLOAD SWAP1 POP PUSH3 0x2CD DUP2 PUSH3 0x2A4 JUMP JUMPDEST SWAP3 SWAP2 POP POP JUMP JUMPDEST PUSH0 DUP1 REVERT JUMPDEST PUSH0 DUP1 REVERT JUMPDEST PUSH0 PUSH1 0x1F NOT PUSH1 0x1F DUP4 ADD AND SWAP1 POP SWAP2 SWAP1 POP JUMP JUMPDEST PUSH32 0x4E487B7100000000000000000000000000000000000000000000000000000000 PUSH0 MSTORE PUSH1 0x41 PUSH1 0x4 MSTORE PUSH1 0x24 PUSH0 REVERT JUMPDEST PUSH3 0x323 DUP3 PUSH3 0x2DB JUMP JUMPDEST DUP2 ADD DUP2 DUP2 LT PUSH8 0xFFFFFFFFFFFFFFFF DUP3 GT OR ISZERO PUSH3 0x345 JUMPI PUSH3 0x344 PUSH3 0x2EB JUMP JUMPDEST JUMPDEST DUP1 PUSH1 0x40 MSTORE POP POP POP JUMP JUMPDEST PUSH0 PUSH3 0x359 PUSH3 0x261 JUMP JUMPDEST SWAP1 POP PUSH3 0x367 DUP3 DUP3 PUSH3 0x318 JUMP JUMPDEST SWAP2 SWAP1 POP JUMP JUMPDEST PUSH0 PUSH8 0xFFFFFFFFFFFFFFFF DUP3 GT ISZERO PUSH3 0x389 JUMPI PUSH3 0x388 PUSH3 0x2EB JUMP JUMPDEST JUMPDEST PUSH3 0x394 DUP3 PUSH3 0x2DB JUMP JUMPDEST SWAP1 POP PUSH1 0x20 DUP2 ADD SWAP1 POP SWAP2 SWAP1 POP JUMP JUMPDEST PUSH0 JUMPDEST DUP4 DUP2 LT ISZERO PUSH3 0x3C0 JUMPI DUP1 DUP3 ADD MLOAD DUP2 DUP5 ADD MSTORE PUSH1 0x20 DUP2 ADD SWAP1 POP PUSH3 0x3A3 JUMP JUMPDEST PUSH0 DUP5 DUP5 ADD MSTORE POP POP POP POP JUMP JUMPDEST PUSH0 PUSH3 0x3E1 PUSH3 0x3DB DUP5 PUSH3 0x36C JUMP JUMPDEST PUSH3 0x34E JUMP JUMPDEST SWAP1 POP DUP3 DUP2 MSTORE PUSH1 0x20 DUP2 ADD DUP5 DUP5 DUP5 ADD GT ISZERO PUSH3 0x400 JUMPI PUSH3 0x3FF PUSH3 0x2D7 JUMP JUMPDEST JUMPDEST PUSH3 0x40D DUP5 DUP3 DUP6 PUSH3 0x3A1 JUMP JUMPDEST POP SWAP4 SWAP3 POP POP POP JUMP JUMPDEST PUSH0 DUP3 PUSH1 0x1F DUP4 ADD SLT PUSH3 0x42C JUMPI PUSH3 0x42B PUSH3 0x2D3 JUMP JUMPDEST JUMPDEST DUP2 MLOAD PUSH3 0x43E DUP5 DUP3 PUSH1 0x20 DUP7 ADD PUSH3 0x3CB JUMP JUMPDEST SWAP2 POP POP SWAP3 SWAP2 POP POP JUMP JUMPDEST PUSH0 DUP2 SWAP1 POP SWAP2 SWAP1 POP JUMP JUMPDEST PUSH3 0x45B DUP2 PUSH3 0x447 JUMP JUMPDEST DUP2 EQ PUSH3 0x466 JUMPI PUSH0 DUP1 REVERT JUMPDEST POP JUMP JUMPDEST PUSH0 DUP2 MLOAD SWAP1 POP PUSH3 0x479 DUP2 PUSH3 0x450 JUMP JUMPDEST SWAP3 SWAP2 POP POP JUMP JUMPDEST PUSH0 DUP1 PUSH0 DUP1 PUSH0 PUSH1 0xA0 DUP7 DUP9 SUB SLT ISZERO PUSH3 0x49B JUMPI PUSH3 0x49A PUSH3 0x26A JUMP JUMPDEST JUMPDEST PUSH0 PUSH3 0x4AA DUP9 DUP3 DUP10 ADD PUSH3 0x2BD JUMP JUMPDEST SWAP6 POP POP PUSH1 0x20 PUSH3 0x4BD DUP9 DUP3 DUP10 ADD PUSH3 0x2BD JUMP JUMPDEST SWAP5 POP POP PUSH1 0x40 PUSH3 0x4D0 DUP9 DUP3 DUP10 ADD PUSH3 0x2BD JUMP JUMPDEST SWAP4 POP POP PUSH1 0x60 DUP7 ADD MLOAD PUSH8 0xFFFFFFFFFFFFFFFF DUP2 GT ISZERO PUSH3 0x4F4 JUMPI PUSH3 0x4F3 PUSH3 0x26E JUMP JUMPDEST JUMPDEST PUSH3 0x502 DUP9 DUP3 DUP10 ADD PUSH3 0x415 JUMP JUMPDEST SWAP3 POP POP PUSH1 0x80 PUSH3 0x515 DUP9 DUP3 DUP10 ADD PUSH3 0x469 JUMP JUMPDEST SWAP2 POP POP SWAP3 SWAP6 POP SWAP3 SWAP6 SWAP1 SWAP4 POP JUMP JUMPDEST PUSH3 0x52D DUP2 PUSH3 0x291 JUMP JUMPDEST DUP3 MSTORE POP POP JUMP JUMPDEST PUSH0 PUSH1 0x20 DUP3 ADD SWAP1 POP PUSH3 0x548 PUSH0 DUP4 ADD DUP5 PUSH3 0x522 JUMP JUMPDEST SWAP3 SWAP2 POP POP JUMP JUMPDEST PUSH0 DUP2 MLOAD SWAP1 POP SWAP2 SWAP1 POP JUMP JUMPDEST PUSH32 0x4E487B7100000000000000000000000000000000000000000000000000000000 PUSH0 MSTORE PUSH1 0x22 PUSH1 0x4 MSTORE PUSH1 0x24 PUSH0 REVERT JUMPDEST PUSH0 PUSH1 0x2 DUP3 DIV SWAP1 POP PUSH1 0x1 DUP3 AND DUP1 PUSH3 0x59D JUMPI PUSH1 0x7F DUP3 AND SWAP2 POP JUMPDEST PUSH1 0x20 DUP3 LT DUP2 SUB PUSH3 0x5B3 JUMPI PUSH3 0x5B2 PUSH3 0x558 JUMP JUMPDEST JUMPDEST POP SWAP2 SWAP1 POP JUMP JUMPDEST PUSH0 DUP2 SWAP1 POP DUP2 PUSH0 MSTORE PUSH1 0x20 PUSH0 KECCAK256 SWAP1 POP SWAP2 SWAP1 POP JUMP JUMPDEST PUSH0 PUSH1 0x20 PUSH1 0x1F DUP4 ADD DIV SWAP1 POP SWAP2 SWAP1 POP JUMP JUMPDEST PUSH0 DUP3 DUP3 SHL SWAP1 POP SWAP3 SWAP2 POP POP JUMP JUMPDEST PUSH0 PUSH1 0x8 DUP4 MUL PUSH3 0x617 PUSH32 0xFFFFFFFFFFFFFFFFFFFFFFFFFFFFFFFFFFFFFFFFFFFFFFFFFFFFFFFFFFFFFFFF DUP3 PUSH3 0x5DA JUMP JUMPDEST PUSH3 0x623 DUP7 DUP4 PUSH3 0x5DA JUMP JUMPDEST SWAP6 POP DUP1 NOT DUP5 AND SWAP4 POP DUP1 DUP7 AND DUP5 OR SWAP3 POP POP POP SWAP4 SWAP3 POP POP POP JUMP JUMPDEST PUSH0 DUP2 SWAP1 POP SWAP2 SWAP1 POP JUMP JUMPDEST PUSH0 PUSH3 0x664 PUSH3 0x65E PUSH3 0x658 DUP5 PUSH3 0x447 JUMP JUMPDEST PUSH3 0x63B JUMP JUMPDEST PUSH3 0x447 JUMP JUMPDEST SWAP1 POP SWAP2 SWAP1 POP JUMP JUMPDEST PUSH0 DUP2 SWAP1 POP SWAP2 SWAP1 POP JUMP JUMPDEST PUSH3 0x67F DUP4 PUSH3 0x644 JUMP JUMPDEST PUSH3 0x697 PUSH3 0x68E DUP3 PUSH3 0x66B JUMP JUMPDEST DUP5 DUP5 SLOAD PUSH3 0x5E6 JUMP JUMPDEST DUP3 SSTORE POP POP POP POP JUMP JUMPDEST PUSH0 SWAP1 JUMP JUMPDEST PUSH3 0x6AD PUSH3 0x69F JUMP JUMPDEST PUSH3 0x6BA DUP2 DUP5 DUP5 PUSH3 0x674 JUMP JUMPDEST POP POP POP JUMP JUMPDEST JUMPDEST DUP2 DUP2 LT ISZERO PUSH3 0x6E1 JUMPI PUSH3 0x6D5 PUSH0 DUP3 PUSH3 0x6A3 JUMP JUMPDEST PUSH1 0x1 DUP2 ADD SWAP1 POP PUSH3 0x6C0 JUMP JUMPDEST POP POP JUMP JUMPDEST PUSH1 0x1F DUP3 GT ISZERO PUSH3 0x730 JUMPI PUSH3 0x6FA DUP2 PUSH3 0x5B9 JUMP JUMPDEST PUSH3 0x705 DUP5 PUSH3 0x5CB JUMP JUMPDEST DUP2 ADD PUSH1 0x20 DUP6 LT ISZERO PUSH3 0x715 JUMPI DUP2 SWAP1 POP JUMPDEST PUSH3 0x72D PUSH3 0x724 DUP6 PUSH3 0x5CB JUMP JUMPDEST DUP4 ADD DUP3 PUSH3 0x6BF JUMP JUMPDEST POP POP JUMPDEST POP POP POP JUMP JUMPDEST PUSH0 DUP3 DUP3 SHR SWAP1 POP SWAP3 SWAP2 POP POP JUMP JUMPDEST PUSH0 PUSH3 0x752 PUSH0 NOT DUP5 PUSH1 0x8 MUL PUSH3 0x735 JUMP JUMPDEST NOT DUP1 DUP4 AND SWAP2 POP POP SWAP3 SWAP2 POP POP JUMP JUMPDEST PUSH0 PUSH3 0x76C DUP4 DUP4 PUSH3 0x741 JUMP JUMPDEST SWAP2 POP DUP3 PUSH1 0x2 MUL DUP3 OR SWAP1 POP SWAP3 SWAP2 POP POP JUMP JUMPDEST PUSH3 0x787 DUP3 PUSH3 0x54E JUMP JUMPDEST PUSH8 0xFFFFFFFFFFFFFFFF DUP2 GT ISZERO PUSH3 0x7A3 JUMPI PUSH3 0x7A2 PUSH3 0x2EB JUMP JUMPDEST JUMPDEST PUSH3 0x7AF DUP3 SLOAD PUSH3 0x585 JUMP JUMPDEST PUSH3 0x7BC DUP3 DUP3 DUP6 PUSH3 0x6E5 JUMP JUMPDEST PUSH0 PUSH1 0x20 SWAP1 POP PUSH1 0x1F DUP4 GT PUSH1 0x1 DUP2 EQ PUSH3 0x7F2 JUMPI PUSH0 DUP5 ISZERO PUSH3 0x7DD JUMPI DUP3 DUP8 ADD MLOAD SWAP1 POP JUMPDEST PUSH3 0x7E9 DUP6 DUP3 PUSH3 0x75F JUMP JUMPDEST DUP7 SSTORE POP PUSH3 0x858 JUMP JUMPDEST PUSH1 0x1F NOT DUP5 AND PUSH3 0x802 DUP7 PUSH3 0x5B9 JUMP JUMPDEST PUSH0 JUMPDEST DUP3 DUP2 LT ISZERO PUSH3 0x82B JUMPI DUP5 DUP10 ADD MLOAD DUP3 SSTORE PUSH1 0x1 DUP3 ADD SWAP2 POP PUSH1 0x20 DUP6 ADD SWAP5 POP PUSH1 0x20 DUP2 ADD SWAP1 POP PUSH3 0x804 JUMP JUMPDEST DUP7 DUP4 LT ISZERO PUSH3 0x84B JUMPI DUP5 DUP10 ADD MLOAD PUSH3 0x847 PUSH1 0x1F DUP10 AND DUP3 PUSH3 0x741 JUMP JUMPDEST DUP4 SSTORE POP JUMPDEST PUSH1 0x1 PUSH1 0x2 DUP9 MUL ADD DUP9 SSTORE POP POP POP JUMPDEST POP POP POP POP POP POP JUMP JUMPDEST PUSH2 0x3E1E DUP1 PUSH3 0x86E PUSH0 CODECOPY PUSH0 RETURN INVALID PUSH1 0x80 PUSH1 0x40 MSTORE PUSH1 0x4 CALLDATASIZE LT PUSH2 0x14E JUMPI PUSH0 CALLDATALOAD PUSH1 0xE0 SHR DUP1 PUSH4 0x7D73B231 GT PUSH2 0xB5 JUMPI DUP1 PUSH4 0xA8E5FBC0 GT PUSH2 0x6E JUMPI DUP1 PUSH4 0xA8E5FBC0 EQ PUSH2 0x4D9 JUMPI DUP1 PUSH4 0xACD71554 EQ PUSH2 0x503 JUMPI DUP1 PUSH4 0xBC197C81 EQ PUSH2 0x533 JUMPI DUP1 PUSH4 0xE7D4FE75 EQ PUSH2 0x56F JUMPI DUP1 PUSH4 0xF23A6E61 EQ PUSH2 0x599 JUMPI DUP1 PUSH4 0xF2FDE38B EQ PUSH2 0x5D5 JUMPI PUSH2 0x18E JUMP JUMPDEST DUP1 PUSH4 0x7D73B231 EQ PUSH2 0x3C7 JUMPI DUP1 PUSH4 0x7ED7E08C EQ PUSH2 0x3F1 JUMPI DUP1 PUSH4 0x80869853 EQ PUSH2 0x421 JUMPI DUP1 PUSH4 0x85987217 EQ PUSH2 0x44B JUMPI DUP1 PUSH4 0x8975491F EQ PUSH2 0x473 JUMPI DUP1 PUSH4 0x8DA5CB5B EQ PUSH2 0x4AF JUMPI PUSH2 0x18E JUMP JUMPDEST DUP1 PUSH4 0x557499BA GT PUSH2 0x107 JUMPI DUP1 PUSH4 0x557499BA EQ PUSH2 0x2C3 JUMPI DUP1 PUSH4 0x5A0DAC49 EQ PUSH2 0x2EB JUMPI DUP1 PUSH4 0x5E3E940F EQ PUSH2 0x31B JUMPI DUP1 PUSH4 0x715018A6 EQ PUSH2 0x34B JUMPI DUP1 PUSH4 0x79293FBE EQ PUSH2 0x361 JUMPI DUP1 PUSH4 0x7CE91411 EQ PUSH2 0x39D JUMPI PUSH2 0x18E JUMP JUMPDEST DUP1 PUSH4 0x1FFC9A7 EQ PUSH2 0x1C9 JUMPI DUP1 PUSH4 0x4917062 EQ PUSH2 0x205 JUMPI DUP1 PUSH4 0x371412F1 EQ PUSH2 0x235 JUMPI DUP1 PUSH4 0x3CCFD60B EQ PUSH2 0x25D JUMPI DUP1 PUSH4 0x479F6152 EQ PUSH2 0x273 JUMPI DUP1 PUSH4 0x48CEDF85 EQ PUSH2 0x29B JUMPI PUSH2 0x18E JUMP JUMPDEST CALLDATASIZE PUSH2 0x18E JUMPI PUSH32 0x1E57E3BB474320BE3D2C77138F75B7C3941292D647F5F9634E33A8E94E0E069B CALLER CALLVALUE PUSH1 0x40 MLOAD PUSH2 0x184 SWAP3 SWAP2 SWAP1 PUSH2 0x240D JUMP JUMPDEST PUSH1 0x40 MLOAD DUP1 SWAP2 SUB SWAP1 LOG1 STOP JUMPDEST PUSH32 0x1E57E3BB474320BE3D2C77138F75B7C3941292D647F5F9634E33A8E94E0E069B CALLER CALLVALUE PUSH1 0x40 MLOAD PUSH2 0x1BF SWAP3 SWAP2 SWAP1 PUSH2 0x240D JUMP JUMPDEST PUSH1 0x40 MLOAD DUP1 SWAP2 SUB SWAP1 LOG1 STOP JUMPDEST CALLVALUE DUP1 ISZERO PUSH2 0x1D4 JUMPI PUSH0 DUP1 REVERT JUMPDEST POP PUSH2 0x1EF PUSH1 0x4 DUP1 CALLDATASIZE SUB DUP2 ADD SWAP1 PUSH2 0x1EA SWAP2 SWAP1 PUSH2 0x249A JUMP JUMPDEST PUSH2 0x5FD JUMP JUMPDEST PUSH1 0x40 MLOAD PUSH2 0x1FC SWAP2 SWAP1 PUSH2 0x24DF JUMP JUMPDEST PUSH1 0x40 MLOAD DUP1 SWAP2 SUB SWAP1 RETURN JUMPDEST PUSH2 0x21F PUSH1 0x4 DUP1 CALLDATASIZE SUB DUP2 ADD SWAP1 PUSH2 0x21A SWAP2 SWAP1 PUSH2 0x26C4 JUMP JUMPDEST PUSH2 0x6CE JUMP JUMPDEST PUSH1 0x40 MLOAD PUSH2 0x22C SWAP2 SWAP1 PUSH2 0x2783 JUMP JUMPDEST PUSH1 0x40 MLOAD DUP1 SWAP2 SUB SWAP1 RETURN JUMPDEST CALLVALUE DUP1 ISZERO PUSH2 0x240 JUMPI PUSH0 DUP1 REVERT JUMPDEST POP PUSH2 0x25B PUSH1 0x4 DUP1 CALLDATASIZE SUB DUP2 ADD SWAP1 PUSH2 0x256 SWAP2 SWAP1 PUSH2 0x27C6 JUMP JUMPDEST PUSH2 0xB99 JUMP JUMPDEST STOP JUMPDEST CALLVALUE DUP1 ISZERO PUSH2 0x268 JUMPI PUSH0 DUP1 REVERT JUMPDEST POP PUSH2 0x271 PUSH2 0xBE4 JUMP JUMPDEST STOP JUMPDEST CALLVALUE DUP1 ISZERO PUSH2 0x27E JUMPI PUSH0 DUP1 REVERT JUMPDEST POP PUSH2 0x299 PUSH1 0x4 DUP1 CALLDATASIZE SUB DUP2 ADD SWAP1 PUSH2 0x294 SWAP2 SWAP1 PUSH2 0x27C6 JUMP JUMPDEST PUSH2 0xC9E JUMP JUMPDEST STOP JUMPDEST CALLVALUE DUP1 ISZERO PUSH2 0x2A6 JUMPI PUSH0 DUP1 REVERT JUMPDEST POP PUSH2 0x2C1 PUSH1 0x4 DUP1 CALLDATASIZE SUB DUP2 ADD SWAP1 PUSH2 0x2BC SWAP2 SWAP1 PUSH2 0x281B JUMP JUMPDEST PUSH2 0xCE9 JUMP JUMPDEST STOP JUMPDEST CALLVALUE DUP1 ISZERO PUSH2 0x2CE JUMPI PUSH0 DUP1 REVERT JUMPDEST POP PUSH2 0x2E9 PUSH1 0x4 DUP1 CALLDATASIZE SUB DUP2 ADD SWAP1 PUSH2 0x2E4 SWAP2 SWAP1 PUSH2 0x27C6 JUMP JUMPDEST PUSH2 0xD3D JUMP JUMPDEST STOP JUMPDEST PUSH2 0x305 PUSH1 0x4 DUP1 CALLDATASIZE SUB DUP2 ADD SWAP1 PUSH2 0x300 SWAP2 SWAP1 PUSH2 0x26C4 JUMP JUMPDEST PUSH2 0xD88 JUMP JUMPDEST PUSH1 0x40 MLOAD PUSH2 0x312 SWAP2 SWAP1 PUSH2 0x2783 JUMP JUMPDEST PUSH1 0x40 MLOAD DUP1 SWAP2 SUB SWAP1 RETURN JUMPDEST PUSH2 0x335 PUSH1 0x4 DUP1 CALLDATASIZE SUB DUP2 ADD SWAP1 PUSH2 0x330 SWAP2 SWAP1 PUSH2 0x2846 JUMP JUMPDEST PUSH2 0xFCF JUMP JUMPDEST PUSH1 0x40 MLOAD PUSH2 0x342 SWAP2 SWAP1 PUSH2 0x24DF JUMP JUMPDEST PUSH1 0x40 MLOAD DUP1 SWAP2 SUB SWAP1 RETURN JUMPDEST CALLVALUE DUP1 ISZERO PUSH2 0x356 JUMPI PUSH0 DUP1 REVERT JUMPDEST POP PUSH2 0x35F PUSH2 0x1266 JUMP JUMPDEST STOP JUMPDEST CALLVALUE DUP1 ISZERO PUSH2 0x36C JUMPI PUSH0 DUP1 REVERT JUMPDEST POP PUSH2 0x387 PUSH1 0x4 DUP1 CALLDATASIZE SUB DUP2 ADD SWAP1 PUSH2 0x382 SWAP2 SWAP1 PUSH2 0x28E9 JUMP JUMPDEST PUSH2 0x1279 JUMP JUMPDEST PUSH1 0x40 MLOAD PUSH2 0x394 SWAP2 SWAP1 PUSH2 0x24DF JUMP JUMPDEST PUSH1 0x40 MLOAD DUP1 SWAP2 SUB SWAP1 RETURN JUMPDEST CALLVALUE DUP1 ISZERO PUSH2 0x3A8 JUMPI PUSH0 DUP1 REVERT JUMPDEST POP PUSH2 0x3B1 PUSH2 0x1324 JUMP JUMPDEST PUSH1 0x40 MLOAD PUSH2 0x3BE SWAP2 SWAP1 PUSH2 0x2914 JUMP JUMPDEST PUSH1 0x40 MLOAD DUP1 SWAP2 SUB SWAP1 RETURN JUMPDEST CALLVALUE DUP1 ISZERO PUSH2 0x3D2 JUMPI PUSH0 DUP1 REVERT JUMPDEST POP PUSH2 0x3DB PUSH2 0x132A JUMP JUMPDEST PUSH1 0x40 MLOAD PUSH2 0x3E8 SWAP2 SWAP1 PUSH2 0x2988 JUMP JUMPDEST PUSH1 0x40 MLOAD DUP1 SWAP2 SUB SWAP1 RETURN JUMPDEST PUSH2 0x40B PUSH1 0x4 DUP1 CALLDATASIZE SUB DUP2 ADD SWAP1 PUSH2 0x406 SWAP2 SWAP1 PUSH2 0x26C4 JUMP JUMPDEST PUSH2 0x134F JUMP JUMPDEST PUSH1 0x40 MLOAD PUSH2 0x418 SWAP2 SWAP1 PUSH2 0x2783 JUMP JUMPDEST PUSH1 0x40 MLOAD DUP1 SWAP2 SUB SWAP1 RETURN JUMPDEST CALLVALUE DUP1 ISZERO PUSH2 0x42C JUMPI PUSH0 DUP1 REVERT JUMPDEST POP PUSH2 0x435 PUSH2 0x15FD JUMP JUMPDEST PUSH1 0x40 MLOAD PUSH2 0x442 SWAP2 SWAP1 PUSH2 0x29C1 JUMP JUMPDEST PUSH1 0x40 MLOAD DUP1 SWAP2 SUB SWAP1 RETURN JUMPDEST CALLVALUE DUP1 ISZERO PUSH2 0x456 JUMPI PUSH0 DUP1 REVERT JUMPDEST POP PUSH2 0x471 PUSH1 0x4 DUP1 CALLDATASIZE SUB DUP2 ADD SWAP1 PUSH2 0x46C SWAP2 SWAP1 PUSH2 0x29DA JUMP JUMPDEST PUSH2 0x1622 JUMP JUMPDEST STOP JUMPDEST CALLVALUE DUP1 ISZERO PUSH2 0x47E JUMPI PUSH0 DUP1 REVERT JUMPDEST POP PUSH2 0x499 PUSH1 0x4 DUP1 CALLDATASIZE SUB DUP2 ADD SWAP1 PUSH2 0x494 SWAP2 SWAP1 PUSH2 0x2A25 JUMP JUMPDEST PUSH2 0x1640 JUMP JUMPDEST PUSH1 0x40 MLOAD PUSH2 0x4A6 SWAP2 SWAP1 PUSH2 0x2783 JUMP JUMPDEST PUSH1 0x40 MLOAD DUP1 SWAP2 SUB SWAP1 RETURN JUMPDEST CALLVALUE DUP1 ISZERO PUSH2 0x4BA JUMPI PUSH0 DUP1 REVERT JUMPDEST POP PUSH2 0x4C3 PUSH2 0x16B3 JUMP JUMPDEST PUSH1 0x40 MLOAD PUSH2 0x4D0 SWAP2 SWAP1 PUSH2 0x2783 JUMP JUMPDEST PUSH1 0x40 MLOAD DUP1 SWAP2 SUB SWAP1 RETURN JUMPDEST CALLVALUE DUP1 ISZERO PUSH2 0x4E4 JUMPI PUSH0 DUP1 REVERT JUMPDEST POP PUSH2 0x4ED PUSH2 0x16DA JUMP JUMPDEST PUSH1 0x40 MLOAD PUSH2 0x4FA SWAP2 SWAP1 PUSH2 0x2A9F JUMP JUMPDEST PUSH1 0x40 MLOAD DUP1 SWAP2 SUB SWAP1 RETURN JUMPDEST PUSH2 0x51D PUSH1 0x4 DUP1 CALLDATASIZE SUB DUP2 ADD SWAP1 PUSH2 0x518 SWAP2 SWAP1 PUSH2 0x2AB8 JUMP JUMPDEST PUSH2 0x16FF JUMP JUMPDEST PUSH1 0x40 MLOAD PUSH2 0x52A SWAP2 SWAP1 PUSH2 0x2783 JUMP JUMPDEST PUSH1 0x40 MLOAD DUP1 SWAP2 SUB SWAP1 RETURN JUMPDEST CALLVALUE DUP1 ISZERO PUSH2 0x53E JUMPI PUSH0 DUP1 REVERT JUMPDEST POP PUSH2 0x559 PUSH1 0x4 DUP1 CALLDATASIZE SUB DUP2 ADD SWAP1 PUSH2 0x554 SWAP2 SWAP1 PUSH2 0x2BEF JUMP JUMPDEST PUSH2 0x19CB JUMP JUMPDEST PUSH1 0x40 MLOAD PUSH2 0x566 SWAP2 SWAP1 PUSH2 0x2CD5 JUMP JUMPDEST PUSH1 0x40 MLOAD DUP1 SWAP2 SUB SWAP1 RETURN JUMPDEST CALLVALUE DUP1 ISZERO PUSH2 0x57A JUMPI PUSH0 DUP1 REVERT JUMPDEST POP PUSH2 0x583 PUSH2 0x19E2 JUMP JUMPDEST PUSH1 0x40 MLOAD PUSH2 0x590 SWAP2 SWAP1 PUSH2 0x2D68 JUMP JUMPDEST PUSH1 0x40 MLOAD DUP1 SWAP2 SUB SWAP1 RETURN JUMPDEST CALLVALUE DUP1 ISZERO PUSH2 0x5A4 JUMPI PUSH0 DUP1 REVERT JUMPDEST POP PUSH2 0x5BF PUSH1 0x4 DUP1 CALLDATASIZE SUB DUP2 ADD SWAP1 PUSH2 0x5BA SWAP2 SWAP1 PUSH2 0x2D88 JUMP JUMPDEST PUSH2 0x1A6E JUMP JUMPDEST PUSH1 0x40 MLOAD PUSH2 0x5CC SWAP2 SWAP1 PUSH2 0x2CD5 JUMP JUMPDEST PUSH1 0x40 MLOAD DUP1 SWAP2 SUB SWAP1 RETURN JUMPDEST CALLVALUE DUP1 ISZERO PUSH2 0x5E0 JUMPI PUSH0 DUP1 REVERT JUMPDEST POP PUSH2 0x5FB PUSH1 0x4 DUP1 CALLDATASIZE SUB DUP2 ADD SWAP1 PUSH2 0x5F6 SWAP2 SWAP1 PUSH2 0x27C6 JUMP JUMPDEST PUSH2 0x1A83 JUMP JUMPDEST STOP JUMPDEST PUSH0 PUSH32 0x4E2312E000000000000000000000000000000000000000000000000000000000 PUSH28 0xFFFFFFFFFFFFFFFFFFFFFFFFFFFFFFFFFFFFFFFFFFFFFFFFFFFFFFFF NOT AND DUP3 PUSH28 0xFFFFFFFFFFFFFFFFFFFFFFFFFFFFFFFFFFFFFFFFFFFFFFFFFFFFFFFF NOT AND EQ DUP1 PUSH2 0x6C7 JUMPI POP PUSH32 0x1FFC9A700000000000000000000000000000000000000000000000000000000 PUSH28 0xFFFFFFFFFFFFFFFFFFFFFFFFFFFFFFFFFFFFFFFFFFFFFFFFFFFFFFFF NOT AND DUP3 PUSH28 0xFFFFFFFFFFFFFFFFFFFFFFFFFFFFFFFFFFFFFFFFFFFFFFFFFFFFFFFF NOT AND EQ JUMPDEST SWAP1 POP SWAP2 SWAP1 POP JUMP JUMPDEST PUSH0 PUSH1 0x4 SLOAD CALLVALUE LT ISZERO PUSH2 0x714 JUMPI PUSH1 0x40 MLOAD PUSH32 0x8C379A000000000000000000000000000000000000000000000000000000000 DUP2 MSTORE PUSH1 0x4 ADD PUSH2 0x70B SWAP1 PUSH2 0x2E68 JUMP JUMPDEST PUSH1 0x40 MLOAD DUP1 SWAP2 SUB SWAP1 REVERT JUMPDEST PUSH0 DUP7 DUP7 PUSH1 0x40 MLOAD PUSH2 0x725 SWAP3 SWAP2 SWAP1 PUSH2 0x2EB4 JUMP JUMPDEST PUSH1 0x40 MLOAD DUP1 SWAP2 SUB SWAP1 KECCAK256 SWAP1 POP PUSH0 DUP4 DUP3 PUSH1 0x40 MLOAD PUSH1 0x20 ADD PUSH2 0x743 SWAP3 SWAP2 SWAP1 PUSH2 0x2EEC JUMP JUMPDEST PUSH1 0x40 MLOAD PUSH1 0x20 DUP2 DUP4 SUB SUB DUP2 MSTORE SWAP1 PUSH1 0x40 MSTORE DUP1 MLOAD SWAP1 PUSH1 0x20 ADD KECCAK256 SWAP1 POP PUSH0 DUP9 DUP9 DUP9 DUP9 PUSH1 0x40 MLOAD PUSH1 0x20 ADD PUSH2 0x773 SWAP5 SWAP4 SWAP3 SWAP2 SWAP1 PUSH2 0x2F8F JUMP JUMPDEST PUSH1 0x40 MLOAD PUSH1 0x20 DUP2 DUP4 SUB SUB DUP2 MSTORE SWAP1 PUSH1 0x40 MSTORE SWAP1 POP PUSH2 0x790 DUP3 PUSH0 SHR DUP12 PUSH2 0x1640 JUMP JUMPDEST SWAP4 POP PUSH2 0x79E DUP3 PUSH0 SHR DUP12 PUSH2 0x1B07 JUMP JUMPDEST POP PUSH2 0x7A9 DUP8 DUP8 PUSH2 0x1C2C JUMP JUMPDEST DUP1 PUSH2 0x7B9 JUMPI POP PUSH2 0x7B8 DUP6 PUSH2 0x1C65 JUMP JUMPDEST JUMPDEST PUSH2 0x7F8 JUMPI PUSH1 0x40 MLOAD PUSH32 0x8C379A000000000000000000000000000000000000000000000000000000000 DUP2 MSTORE PUSH1 0x4 ADD PUSH2 0x7EF SWAP1 PUSH2 0x3031 JUMP JUMPDEST PUSH1 0x40 MLOAD DUP1 SWAP2 SUB SWAP1 REVERT JUMPDEST PUSH2 0x804 DUP6 DUP11 DUP11 DUP7 PUSH2 0x1E10 JUMP JUMPDEST PUSH2 0x843 JUMPI PUSH1 0x40 MLOAD PUSH32 0x8C379A000000000000000000000000000000000000000000000000000000000 DUP2 MSTORE PUSH1 0x4 ADD PUSH2 0x83A SWAP1 PUSH2 0x3099 JUMP JUMPDEST PUSH1 0x40 MLOAD DUP1 SWAP2 SUB SWAP1 REVERT JUMPDEST PUSH32 0xB01595014D6B8628823D034D1DA44AFD71559B9F3058903A924BCDB140D976B1 DUP6 DUP11 DUP11 PUSH1 0x40 MLOAD PUSH2 0x876 SWAP4 SWAP3 SWAP2 SWAP1 PUSH2 0x30F2 JUMP JUMPDEST PUSH1 0x40 MLOAD DUP1 SWAP2 SUB SWAP1 LOG1 PUSH0 PUSH1 0x1 PUSH0 SWAP1 SLOAD SWAP1 PUSH2 0x100 EXP SWAP1 DIV PUSH20 0xFFFFFFFFFFFFFFFFFFFFFFFFFFFFFFFFFFFFFFFF AND PUSH20 0xFFFFFFFFFFFFFFFFFFFFFFFFFFFFFFFFFFFFFFFF AND PUSH4 0xBFFBE61C DUP7 PUSH1 0x40 MLOAD DUP3 PUSH4 0xFFFFFFFF AND PUSH1 0xE0 SHL DUP2 MSTORE PUSH1 0x4 ADD PUSH2 0x8D9 SWAP2 SWAP1 PUSH2 0x2783 JUMP JUMPDEST PUSH1 0x20 PUSH1 0x40 MLOAD DUP1 DUP4 SUB DUP2 DUP7 GAS STATICCALL ISZERO DUP1 ISZERO PUSH2 0x8F4 JUMPI RETURNDATASIZE PUSH0 DUP1 RETURNDATACOPY RETURNDATASIZE PUSH0 REVERT JUMPDEST POP POP POP POP PUSH1 0x40 MLOAD RETURNDATASIZE PUSH1 0x1F NOT PUSH1 0x1F DUP3 ADD AND DUP3 ADD DUP1 PUSH1 0x40 MSTORE POP DUP2 ADD SWAP1 PUSH2 0x918 SWAP2 SWAP1 PUSH2 0x3136 JUMP JUMPDEST SWAP1 POP PUSH2 0x923 DUP2 PUSH2 0x1F65 JUMP JUMPDEST PUSH20 0xFFFFFFFFFFFFFFFFFFFFFFFFFFFFFFFFFFFFFFFF AND PUSH4 0x77372213 DUP3 DUP5 PUSH1 0x40 MLOAD DUP4 PUSH4 0xFFFFFFFF AND PUSH1 0xE0 SHL DUP2 MSTORE PUSH1 0x4 ADD PUSH2 0x95D SWAP3 SWAP2 SWAP1 PUSH2 0x3161 JUMP JUMPDEST PUSH0 PUSH1 0x40 MLOAD DUP1 DUP4 SUB DUP2 PUSH0 DUP8 DUP1 EXTCODESIZE ISZERO DUP1 ISZERO PUSH2 0x974 JUMPI PUSH0 DUP1 REVERT JUMPDEST POP GAS CALL ISZERO DUP1 ISZERO PUSH2 0x986 JUMPI RETURNDATASIZE PUSH0 DUP1 RETURNDATACOPY RETURNDATASIZE PUSH0 REVERT JUMPDEST POP POP POP POP DUP5 PUSH20 0xFFFFFFFFFFFFFFFFFFFFFFFFFFFFFFFFFFFFFFFF AND PUSH32 0xA7087DF87B8F2F603995742F0CBC82961D8BEE20D65D9FE7EC01FC435AAB5CD6 DUP4 PUSH1 0x40 MLOAD PUSH2 0x9D0 SWAP2 SWAP1 PUSH2 0x2D68 JUMP JUMPDEST PUSH1 0x40 MLOAD DUP1 SWAP2 SUB SWAP1 LOG2 PUSH2 0xA03 DUP4 PUSH1 0x3C DUP8 PUSH1 0x40 MLOAD PUSH1 0x20 ADD PUSH2 0x9EF SWAP2 SWAP1 PUSH2 0x31D4 JUMP JUMPDEST PUSH1 0x40 MLOAD PUSH1 0x20 DUP2 DUP4 SUB SUB DUP2 MSTORE SWAP1 PUSH1 0x40 MSTORE PUSH2 0x2006 JUMP JUMPDEST PUSH2 0xA42 JUMPI PUSH1 0x40 MLOAD PUSH32 0x8C379A000000000000000000000000000000000000000000000000000000000 DUP2 MSTORE PUSH1 0x4 ADD PUSH2 0xA39 SWAP1 PUSH2 0x325E JUMP JUMPDEST PUSH1 0x40 MLOAD DUP1 SWAP2 SUB SWAP1 REVERT JUMPDEST DUP5 PUSH20 0xFFFFFFFFFFFFFFFFFFFFFFFFFFFFFFFFFFFFFFFF AND PUSH32 0xBCE672F287CA218B7A90C84485D9B40640252149F0E8C2932FE972E3FBC6FDC3 DUP4 PUSH1 0x40 MLOAD PUSH2 0xA88 SWAP2 SWAP1 PUSH2 0x2D68 JUMP JUMPDEST PUSH1 0x40 MLOAD DUP1 SWAP2 SUB SWAP1 LOG2 PUSH1 0x2 PUSH0 SWAP1 SLOAD SWAP1 PUSH2 0x100 EXP SWAP1 DIV PUSH20 0xFFFFFFFFFFFFFFFFFFFFFFFFFFFFFFFFFFFFFFFF AND PUSH20 0xFFFFFFFFFFFFFFFFFFFFFFFFFFFFFFFFFFFFFFFF AND PUSH4 0x5B0FC9C3 DUP3 CALLER PUSH1 0x40 MLOAD DUP4 PUSH4 0xFFFFFFFF AND PUSH1 0xE0 SHL DUP2 MSTORE PUSH1 0x4 ADD PUSH2 0xAEC SWAP3 SWAP2 SWAP1 PUSH2 0x327C JUMP JUMPDEST PUSH0 PUSH1 0x40 MLOAD DUP1 DUP4 SUB DUP2 PUSH0 DUP8 DUP1 EXTCODESIZE ISZERO DUP1 ISZERO PUSH2 0xB03 JUMPI PUSH0 DUP1 REVERT JUMPDEST POP GAS CALL ISZERO DUP1 ISZERO PUSH2 0xB15 JUMPI RETURNDATASIZE PUSH0 DUP1 RETURNDATACOPY RETURNDATASIZE PUSH0 REVERT JUMPDEST POP POP POP POP PUSH32 0x2260A4D0C00902D7996E8F7D669D22564414D41BE4D278A40387DDF58179D392 DUP6 CALLER PUSH1 0x40 MLOAD PUSH2 0xB4A SWAP3 SWAP2 SWAP1 PUSH2 0x32A3 JUMP JUMPDEST PUSH1 0x40 MLOAD DUP1 SWAP2 SUB SWAP1 LOG1 PUSH32 0x1E57E3BB474320BE3D2C77138F75B7C3941292D647F5F9634E33A8E94E0E069B CALLER CALLVALUE PUSH1 0x40 MLOAD PUSH2 0xB83 SWAP3 SWAP2 SWAP1 PUSH2 0x240D JUMP JUMPDEST PUSH1 0x40 MLOAD DUP1 SWAP2 SUB SWAP1 LOG1 POP POP POP POP SWAP7 SWAP6 POP POP POP POP POP POP JUMP JUMPDEST PUSH2 0xBA1 PUSH2 0x208C JUMP JUMPDEST DUP1 PUSH1 0x3 PUSH0 PUSH2 0x100 EXP DUP2 SLOAD DUP2 PUSH20 0xFFFFFFFFFFFFFFFFFFFFFFFFFFFFFFFFFFFFFFFF MUL NOT AND SWAP1 DUP4 PUSH20 0xFFFFFFFFFFFFFFFFFFFFFFFFFFFFFFFFFFFFFFFF AND MUL OR SWAP1 SSTORE POP POP JUMP JUMPDEST PUSH2 0xBEC PUSH2 0x208C JUMP JUMPDEST PUSH0 PUSH2 0xBF5 PUSH2 0x16B3 JUMP JUMPDEST PUSH20 0xFFFFFFFFFFFFFFFFFFFFFFFFFFFFFFFFFFFFFFFF AND SELFBALANCE PUSH1 0x40 MLOAD PUSH2 0xC18 SWAP1 PUSH2 0x32ED JUMP JUMPDEST PUSH0 PUSH1 0x40 MLOAD DUP1 DUP4 SUB DUP2 DUP6 DUP8 GAS CALL SWAP3 POP POP POP RETURNDATASIZE DUP1 PUSH0 DUP2 EQ PUSH2 0xC52 JUMPI PUSH1 0x40 MLOAD SWAP2 POP PUSH1 0x1F NOT PUSH1 0x3F RETURNDATASIZE ADD AND DUP3 ADD PUSH1 0x40 MSTORE RETURNDATASIZE DUP3 MSTORE RETURNDATASIZE PUSH0 PUSH1 0x20 DUP5 ADD RETURNDATACOPY PUSH2 0xC57 JUMP JUMPDEST PUSH1 0x60 SWAP2 POP JUMPDEST POP POP SWAP1 POP DUP1 PUSH2 0xC9B JUMPI PUSH1 0x40 MLOAD PUSH32 0x8C379A000000000000000000000000000000000000000000000000000000000 DUP2 MSTORE PUSH1 0x4 ADD PUSH2 0xC92 SWAP1 PUSH2 0x334B JUMP JUMPDEST PUSH1 0x40 MLOAD DUP1 SWAP2 SUB SWAP1 REVERT JUMPDEST POP JUMP JUMPDEST PUSH2 0xCA6 PUSH2 0x208C JUMP JUMPDEST DUP1 PUSH1 0x2 PUSH0 PUSH2 0x100 EXP DUP2 SLOAD DUP2 PUSH20 0xFFFFFFFFFFFFFFFFFFFFFFFFFFFFFFFFFFFFFFFF MUL NOT AND SWAP1 DUP4 PUSH20 0xFFFFFFFFFFFFFFFFFFFFFFFFFFFFFFFFFFFFFFFF AND MUL OR SWAP1 SSTORE POP POP JUMP JUMPDEST PUSH2 0xCF1 PUSH2 0x208C JUMP JUMPDEST PUSH0 DUP2 GT PUSH2 0xD33 JUMPI PUSH1 0x40 MLOAD PUSH32 0x8C379A000000000000000000000000000000000000000000000000000000000 DUP2 MSTORE PUSH1 0x4 ADD PUSH2 0xD2A SWAP1 PUSH2 0x33B3 JUMP JUMPDEST PUSH1 0x40 MLOAD DUP1 SWAP2 SUB SWAP1 REVERT JUMPDEST DUP1 PUSH1 0x4 DUP2 SWAP1 SSTORE POP POP JUMP JUMPDEST PUSH2 0xD45 PUSH2 0x208C JUMP JUMPDEST DUP1 PUSH1 0x1 PUSH0 PUSH2 0x100 EXP DUP2 SLOAD DUP2 PUSH20 0xFFFFFFFFFFFFFFFFFFFFFFFFFFFFFFFFFFFFFFFF MUL NOT AND SWAP1 DUP4 PUSH20 0xFFFFFFFFFFFFFFFFFFFFFFFFFFFFFFFFFFFFFFFF AND MUL OR SWAP1 SSTORE POP POP JUMP JUMPDEST PUSH0 PUSH1 0x4 SLOAD CALLVALUE LT ISZERO PUSH2 0xDCE JUMPI PUSH1 0x40 MLOAD PUSH32 0x8C379A000000000000000000000000000000000000000000000000000000000 DUP2 MSTORE PUSH1 0x4 ADD PUSH2 0xDC5 SWAP1 PUSH2 0x2E68 JUMP JUMPDEST PUSH1 0x40 MLOAD DUP1 SWAP2 SUB SWAP1 REVERT JUMPDEST PUSH0 DUP7 DUP7 PUSH1 0x40 MLOAD PUSH2 0xDDF SWAP3 SWAP2 SWAP1 PUSH2 0x2EB4 JUMP JUMPDEST PUSH1 0x40 MLOAD DUP1 SWAP2 SUB SWAP1 KECCAK256 SWAP1 POP PUSH0 DUP4 DUP3 PUSH1 0x40 MLOAD PUSH1 0x20 ADD PUSH2 0xDFD SWAP3 SWAP2 SWAP1 PUSH2 0x2EEC JUMP JUMPDEST PUSH1 0x40 MLOAD PUSH1 0x20 DUP2 DUP4 SUB SUB DUP2 MSTORE SWAP1 PUSH1 0x40 MSTORE DUP1 MLOAD SWAP1 PUSH1 0x20 ADD KECCAK256 SWAP1 POP PUSH0 DUP9 DUP9 DUP9 DUP9 PUSH1 0x40 MLOAD PUSH1 0x20 ADD PUSH2 0xE2D SWAP5 SWAP4 SWAP3 SWAP2 SWAP1 PUSH2 0x2F8F JUMP JUMPDEST PUSH1 0x40 MLOAD PUSH1 0x20 DUP2 DUP4 SUB SUB DUP2 MSTORE SWAP1 PUSH1 0x40 MSTORE SWAP1 POP PUSH2 0xE4A DUP3 PUSH0 SHR DUP12 PUSH2 0x1640 JUMP JUMPDEST SWAP4 POP PUSH2 0xE58 DUP3 PUSH0 SHR DUP12 PUSH2 0x1B07 JUMP JUMPDEST POP PUSH2 0xE67 DUP5 DUP11 DUP11 DUP11 DUP11 DUP11 PUSH2 0xFCF JUMP JUMPDEST PUSH2 0xEA6 JUMPI PUSH1 0x40 MLOAD PUSH32 0x8C379A000000000000000000000000000000000000000000000000000000000 DUP2 MSTORE PUSH1 0x4 ADD PUSH2 0xE9D SWAP1 PUSH2 0x3441 JUMP JUMPDEST PUSH1 0x40 MLOAD DUP1 SWAP2 SUB SWAP1 REVERT JUMPDEST PUSH2 0xEB9 DUP5 DUP3 PUSH2 0xEB4 DUP6 PUSH2 0x1F65 JUMP JUMPDEST PUSH2 0x2113 JUMP JUMPDEST PUSH2 0xEF8 JUMPI PUSH1 0x40 MLOAD PUSH32 0x8C379A000000000000000000000000000000000000000000000000000000000 DUP2 MSTORE PUSH1 0x4 ADD PUSH2 0xEEF SWAP1 PUSH2 0x34A9 JUMP JUMPDEST PUSH1 0x40 MLOAD DUP1 SWAP2 SUB SWAP1 REVERT JUMPDEST DUP4 PUSH20 0xFFFFFFFFFFFFFFFFFFFFFFFFFFFFFFFFFFFFFFFF AND PUSH32 0xA7087DF87B8F2F603995742F0CBC82961D8BEE20D65D9FE7EC01FC435AAB5CD6 DUP3 PUSH1 0x40 MLOAD PUSH2 0xF3E SWAP2 SWAP1 PUSH2 0x2D68 JUMP JUMPDEST PUSH1 0x40 MLOAD DUP1 SWAP2 SUB SWAP1 LOG2 PUSH2 0xF50 DUP5 CALLER PUSH2 0x21B4 JUMP JUMPDEST PUSH32 0x2260A4D0C00902D7996E8F7D669D22564414D41BE4D278A40387DDF58179D392 DUP5 CALLER PUSH1 0x40 MLOAD PUSH2 0xF81 SWAP3 SWAP2 SWAP1 PUSH2 0x32A3 JUMP JUMPDEST PUSH1 0x40 MLOAD DUP1 SWAP2 SUB SWAP1 LOG1 PUSH32 0x1E57E3BB474320BE3D2C77138F75B7C3941292D647F5F9634E33A8E94E0E069B CALLER CALLVALUE PUSH1 0x40 MLOAD PUSH2 0xFBA SWAP3 SWAP2 SWAP1 PUSH2 0x240D JUMP JUMPDEST PUSH1 0x40 MLOAD DUP1 SWAP2 SUB SWAP1 LOG1 POP POP POP SWAP7 SWAP6 POP POP POP POP POP POP JUMP JUMPDEST PUSH0 PUSH1 0x4 SLOAD CALLVALUE LT ISZERO PUSH2 0x1015 JUMPI PUSH1 0x40 MLOAD PUSH32 0x8C379A000000000000000000000000000000000000000000000000000000000 DUP2 MSTORE PUSH1 0x4 ADD PUSH2 0x100C SWAP1 PUSH2 0x2E68 JUMP JUMPDEST PUSH1 0x40 MLOAD DUP1 SWAP2 SUB SWAP1 REVERT JUMPDEST PUSH0 DUP7 DUP7 PUSH1 0x40 MLOAD PUSH2 0x1026 SWAP3 SWAP2 SWAP1 PUSH2 0x2EB4 JUMP JUMPDEST PUSH1 0x40 MLOAD DUP1 SWAP2 SUB SWAP1 KECCAK256 SWAP1 POP PUSH0 DUP4 DUP3 PUSH1 0x40 MLOAD PUSH1 0x20 ADD PUSH2 0x1044 SWAP3 SWAP2 SWAP1 PUSH2 0x2EEC JUMP JUMPDEST PUSH1 0x40 MLOAD PUSH1 0x20 DUP2 DUP4 SUB SUB DUP2 MSTORE SWAP1 PUSH1 0x40 MSTORE DUP1 MLOAD SWAP1 PUSH1 0x20 ADD KECCAK256 SWAP1 POP PUSH0 DUP9 DUP9 DUP9 DUP9 PUSH1 0x40 MLOAD PUSH1 0x20 ADD PUSH2 0x1074 SWAP5 SWAP4 SWAP3 SWAP2 SWAP1 PUSH2 0x2F8F JUMP JUMPDEST PUSH1 0x40 MLOAD PUSH1 0x20 DUP2 DUP4 SUB SUB DUP2 MSTORE SWAP1 PUSH1 0x40 MSTORE SWAP1 POP PUSH2 0x108F DUP8 DUP8 PUSH2 0x1C2C JUMP JUMPDEST DUP1 PUSH2 0x109F JUMPI POP PUSH2 0x109E DUP6 PUSH2 0x1C65 JUMP JUMPDEST JUMPDEST PUSH2 0x10DE JUMPI PUSH1 0x40 MLOAD PUSH32 0x8C379A000000000000000000000000000000000000000000000000000000000 DUP2 MSTORE PUSH1 0x4 ADD PUSH2 0x10D5 SWAP1 PUSH2 0x3031 JUMP JUMPDEST PUSH1 0x40 MLOAD DUP1 SWAP2 SUB SWAP1 REVERT JUMPDEST PUSH2 0x10EA DUP6 DUP11 DUP11 DUP7 PUSH2 0x1E10 JUMP JUMPDEST PUSH2 0x1129 JUMPI PUSH1 0x40 MLOAD PUSH32 0x8C379A000000000000000000000000000000000000000000000000000000000 DUP2 MSTORE PUSH1 0x4 ADD PUSH2 0x1120 SWAP1 PUSH2 0x3099 JUMP JUMPDEST PUSH1 0x40 MLOAD DUP1 SWAP2 SUB SWAP1 REVERT JUMPDEST PUSH32 0xB01595014D6B8628823D034D1DA44AFD71559B9F3058903A924BCDB140D976B1 DUP6 DUP11 DUP11 PUSH1 0x40 MLOAD PUSH2 0x115C SWAP4 SWAP3 SWAP2 SWAP1 PUSH2 0x30F2 JUMP JUMPDEST PUSH1 0x40 MLOAD DUP1 SWAP2 SUB SWAP1 LOG1 PUSH2 0x118F DUP3 PUSH1 0x3C DUP13 PUSH1 0x40 MLOAD PUSH1 0x20 ADD PUSH2 0x117B SWAP2 SWAP1 PUSH2 0x31D4 JUMP JUMPDEST PUSH1 0x40 MLOAD PUSH1 0x20 DUP2 DUP4 SUB SUB DUP2 MSTORE SWAP1 PUSH1 0x40 MSTORE PUSH2 0x2006 JUMP JUMPDEST PUSH2 0x11CE JUMPI PUSH1 0x40 MLOAD PUSH32 0x8C379A000000000000000000000000000000000000000000000000000000000 DUP2 MSTORE PUSH1 0x4 ADD PUSH2 0x11C5 SWAP1 PUSH2 0x325E JUMP JUMPDEST PUSH1 0x40 MLOAD DUP1 SWAP2 SUB SWAP1 REVERT JUMPDEST DUP10 PUSH20 0xFFFFFFFFFFFFFFFFFFFFFFFFFFFFFFFFFFFFFFFF AND PUSH32 0xBCE672F287CA218B7A90C84485D9B40640252149F0E8C2932FE972E3FBC6FDC3 DUP3 PUSH1 0x40 MLOAD PUSH2 0x1214 SWAP2 SWAP1 PUSH2 0x2D68 JUMP JUMPDEST PUSH1 0x40 MLOAD DUP1 SWAP2 SUB SWAP1 LOG2 PUSH32 0x1E57E3BB474320BE3D2C77138F75B7C3941292D647F5F9634E33A8E94E0E069B CALLER CALLVALUE PUSH1 0x40 MLOAD PUSH2 0x124D SWAP3 SWAP2 SWAP1 PUSH2 0x240D JUMP JUMPDEST PUSH1 0x40 MLOAD DUP1 SWAP2 SUB SWAP1 LOG1 PUSH1 0x1 SWAP4 POP POP POP POP SWAP7 SWAP6 POP POP POP POP POP POP JUMP JUMPDEST PUSH2 0x126E PUSH2 0x208C JUMP JUMPDEST PUSH2 0x1277 PUSH0 PUSH2 0x22EE JUMP JUMPDEST JUMP JUMPDEST PUSH0 PUSH1 0x3 PUSH0 SWAP1 SLOAD SWAP1 PUSH2 0x100 EXP SWAP1 DIV PUSH20 0xFFFFFFFFFFFFFFFFFFFFFFFFFFFFFFFFFFFFFFFF AND PUSH20 0xFFFFFFFFFFFFFFFFFFFFFFFFFFFFFFFFFFFFFFFF AND PUSH4 0xFD0CD0D9 DUP4 PUSH1 0x40 MLOAD DUP3 PUSH4 0xFFFFFFFF AND PUSH1 0xE0 SHL DUP2 MSTORE PUSH1 0x4 ADD PUSH2 0x12D4 SWAP2 SWAP1 PUSH2 0x34C7 JUMP JUMPDEST PUSH1 0x20 PUSH1 0x40 MLOAD DUP1 DUP4 SUB DUP2 DUP7 GAS STATICCALL SWAP3 POP POP POP DUP1 ISZERO PUSH2 0x130E JUMPI POP PUSH1 0x40 MLOAD RETURNDATASIZE PUSH1 0x1F NOT PUSH1 0x1F DUP3 ADD AND DUP3 ADD DUP1 PUSH1 0x40 MSTORE POP DUP2 ADD SWAP1 PUSH2 0x130B SWAP2 SWAP1 PUSH2 0x350A JUMP JUMPDEST PUSH1 0x1 JUMPDEST PUSH2 0x131A JUMPI PUSH0 SWAP1 POP PUSH2 0x131F JUMP JUMPDEST DUP1 SWAP2 POP POP JUMPDEST SWAP2 SWAP1 POP JUMP JUMPDEST PUSH1 0x4 SLOAD DUP2 JUMP JUMPDEST PUSH1 0x2 PUSH0 SWAP1 SLOAD SWAP1 PUSH2 0x100 EXP SWAP1 DIV PUSH20 0xFFFFFFFFFFFFFFFFFFFFFFFFFFFFFFFFFFFFFFFF AND DUP2 JUMP JUMPDEST PUSH0 PUSH1 0x4 SLOAD CALLVALUE LT ISZERO PUSH2 0x1395 JUMPI PUSH1 0x40 MLOAD PUSH32 0x8C379A000000000000000000000000000000000000000000000000000000000 DUP2 MSTORE PUSH1 0x4 ADD PUSH2 0x138C SWAP1 PUSH2 0x2E68 JUMP JUMPDEST PUSH1 0x40 MLOAD DUP1 SWAP2 SUB SWAP1 REVERT JUMPDEST PUSH0 DUP7 DUP7 PUSH1 0x40 MLOAD PUSH2 0x13A6 SWAP3 SWAP2 SWAP1 PUSH2 0x2EB4 JUMP JUMPDEST PUSH1 0x40 MLOAD DUP1 SWAP2 SUB SWAP1 KECCAK256 SWAP1 POP PUSH0 DUP4 DUP3 PUSH1 0x40 MLOAD PUSH1 0x20 ADD PUSH2 0x13C4 SWAP3 SWAP2 SWAP1 PUSH2 0x2EEC JUMP JUMPDEST PUSH1 0x40 MLOAD PUSH1 0x20 DUP2 DUP4 SUB SUB DUP2 MSTORE SWAP1 PUSH1 0x40 MSTORE DUP1 MLOAD SWAP1 PUSH1 0x20 ADD KECCAK256 SWAP1 POP PUSH0 DUP9 DUP9 DUP9 DUP9 PUSH1 0x40 MLOAD PUSH1 0x20 ADD PUSH2 0x13F4 SWAP5 SWAP4 SWAP3 SWAP2 SWAP1 PUSH2 0x2F8F JUMP JUMPDEST PUSH1 0x40 MLOAD PUSH1 0x20 DUP2 DUP4 SUB SUB DUP2 MSTORE SWAP1 PUSH1 0x40 MSTORE SWAP1 POP PUSH2 0x140F DUP8 DUP8 PUSH2 0x1C2C JUMP JUMPDEST DUP1 PUSH2 0x141F JUMPI POP PUSH2 0x141E DUP6 PUSH2 0x1C65 JUMP JUMPDEST JUMPDEST PUSH2 0x145E JUMPI PUSH1 0x40 MLOAD PUSH32 0x8C379A000000000000000000000000000000000000000000000000000000000 DUP2 MSTORE PUSH1 0x4 ADD PUSH2 0x1455 SWAP1 PUSH2 0x3031 JUMP JUMPDEST PUSH1 0x40 MLOAD DUP1 SWAP2 SUB SWAP1 REVERT JUMPDEST PUSH2 0x146A DUP6 DUP11 DUP11 DUP7 PUSH2 0x1E10 JUMP JUMPDEST PUSH2 0x14A9 JUMPI PUSH1 0x40 MLOAD PUSH32 0x8C379A000000000000000000000000000000000000000000000000000000000 DUP2 MSTORE PUSH1 0x4 ADD PUSH2 0x14A0 SWAP1 PUSH2 0x3099 JUMP JUMPDEST PUSH1 0x40 MLOAD DUP1 SWAP2 SUB SWAP1 REVERT JUMPDEST PUSH32 0xB01595014D6B8628823D034D1DA44AFD71559B9F3058903A924BCDB140D976B1 DUP6 DUP11 DUP11 PUSH1 0x40 MLOAD PUSH2 0x14DC SWAP4 SWAP3 SWAP2 SWAP1 PUSH2 0x30F2 JUMP JUMPDEST PUSH1 0x40 MLOAD DUP1 SWAP2 SUB SWAP1 LOG1 PUSH2 0x14F0 DUP3 PUSH0 SHR DUP12 PUSH2 0x1640 JUMP JUMPDEST SWAP4 POP PUSH2 0x14FE DUP3 PUSH0 SHR DUP12 PUSH2 0x1B07 JUMP JUMPDEST POP PUSH2 0x152A DUP3 PUSH1 0x3C DUP7 PUSH1 0x40 MLOAD PUSH1 0x20 ADD PUSH2 0x1516 SWAP2 SWAP1 PUSH2 0x31D4 JUMP JUMPDEST PUSH1 0x40 MLOAD PUSH1 0x20 DUP2 DUP4 SUB SUB DUP2 MSTORE SWAP1 PUSH1 0x40 MSTORE PUSH2 0x2006 JUMP JUMPDEST PUSH2 0x1569 JUMPI PUSH1 0x40 MLOAD PUSH32 0x8C379A000000000000000000000000000000000000000000000000000000000 DUP2 MSTORE PUSH1 0x4 ADD PUSH2 0x1560 SWAP1 PUSH2 0x325E JUMP JUMPDEST PUSH1 0x40 MLOAD DUP1 SWAP2 SUB SWAP1 REVERT JUMPDEST DUP4 PUSH20 0xFFFFFFFFFFFFFFFFFFFFFFFFFFFFFFFFFFFFFFFF AND PUSH32 0xBCE672F287CA218B7A90C84485D9B40640252149F0E8C2932FE972E3FBC6FDC3 DUP3 PUSH1 0x40 MLOAD PUSH2 0x15AF SWAP2 SWAP1 PUSH2 0x2D68 JUMP JUMPDEST PUSH1 0x40 MLOAD DUP1 SWAP2 SUB SWAP1 LOG2 PUSH32 0x1E57E3BB474320BE3D2C77138F75B7C3941292D647F5F9634E33A8E94E0E069B CALLER CALLVALUE PUSH1 0x40 MLOAD PUSH2 0x15E8 SWAP3 SWAP2 SWAP1 PUSH2 0x240D JUMP JUMPDEST PUSH1 0x40 MLOAD DUP1 SWAP2 SUB SWAP1 LOG1 POP POP POP SWAP7 SWAP6 POP POP POP POP POP POP JUMP JUMPDEST PUSH1 0x1 PUSH0 SWAP1 SLOAD SWAP1 PUSH2 0x100 EXP SWAP1 DIV PUSH20 0xFFFFFFFFFFFFFFFFFFFFFFFFFFFFFFFFFFFFFFFF AND DUP2 JUMP JUMPDEST PUSH2 0x162A PUSH2 0x208C JUMP JUMPDEST DUP2 DUP2 PUSH1 0x5 SWAP2 DUP3 PUSH2 0x163B SWAP3 SWAP2 SWAP1 PUSH2 0x3730 JUMP JUMPDEST POP POP POP JUMP JUMPDEST PUSH0 DUP1 DUP3 DUP1 MLOAD SWAP1 PUSH1 0x20 ADD KECCAK256 SWAP1 POP PUSH0 DUP5 PUSH1 0x40 MLOAD PUSH1 0x20 ADD PUSH2 0x165E SWAP2 SWAP1 PUSH2 0x381D JUMP JUMPDEST PUSH1 0x40 MLOAD PUSH1 0x20 DUP2 DUP4 SUB SUB DUP2 MSTORE SWAP1 PUSH1 0x40 MSTORE DUP1 MLOAD SWAP1 PUSH1 0x20 ADD KECCAK256 SWAP1 POP PUSH1 0xFF PUSH1 0xF8 SHL ADDRESS DUP3 DUP5 PUSH1 0x40 MLOAD PUSH1 0x20 ADD PUSH2 0x1691 SWAP5 SWAP4 SWAP3 SWAP2 SWAP1 PUSH2 0x3882 JUMP JUMPDEST PUSH1 0x40 MLOAD PUSH1 0x20 DUP2 DUP4 SUB SUB DUP2 MSTORE SWAP1 PUSH1 0x40 MSTORE DUP1 MLOAD SWAP1 PUSH1 0x20 ADD KECCAK256 PUSH0 SHR SWAP3 POP POP POP SWAP3 SWAP2 POP POP JUMP JUMPDEST PUSH0 DUP1 PUSH0 SWAP1 SLOAD SWAP1 PUSH2 0x100 EXP SWAP1 DIV PUSH20 0xFFFFFFFFFFFFFFFFFFFFFFFFFFFFFFFFFFFFFFFF AND SWAP1 POP SWAP1 JUMP JUMPDEST PUSH1 0x3 PUSH0 SWAP1 SLOAD SWAP1 PUSH2 0x100 EXP SWAP1 DIV PUSH20 0xFFFFFFFFFFFFFFFFFFFFFFFFFFFFFFFFFFFFFFFF AND DUP2 JUMP JUMPDEST PUSH0 PUSH1 0x4 SLOAD CALLVALUE LT ISZERO PUSH2 0x1745 JUMPI PUSH1 0x40 MLOAD PUSH32 0x8C379A000000000000000000000000000000000000000000000000000000000 DUP2 MSTORE PUSH1 0x4 ADD PUSH2 0x173C SWAP1 PUSH2 0x2E68 JUMP JUMPDEST PUSH1 0x40 MLOAD DUP1 SWAP2 SUB SWAP1 REVERT JUMPDEST PUSH2 0x1751 DUP3 PUSH0 SHR DUP7 PUSH2 0x1640 JUMP JUMPDEST SWAP1 POP PUSH2 0x175F DUP3 PUSH0 SHR DUP7 PUSH2 0x1B07 JUMP JUMPDEST POP PUSH2 0x1769 DUP3 PUSH2 0x1C65 JUMP JUMPDEST PUSH2 0x17A8 JUMPI PUSH1 0x40 MLOAD PUSH32 0x8C379A000000000000000000000000000000000000000000000000000000000 DUP2 MSTORE PUSH1 0x4 ADD PUSH2 0x179F SWAP1 PUSH2 0x3919 JUMP JUMPDEST PUSH1 0x40 MLOAD DUP1 SWAP2 SUB SWAP1 REVERT JUMPDEST PUSH2 0x17D3 DUP3 PUSH1 0x3C DUP4 PUSH1 0x40 MLOAD PUSH1 0x20 ADD PUSH2 0x17BF SWAP2 SWAP1 PUSH2 0x31D4 JUMP JUMPDEST PUSH1 0x40 MLOAD PUSH1 0x20 DUP2 DUP4 SUB SUB DUP2 MSTORE SWAP1 PUSH1 0x40 MSTORE PUSH2 0x2006 JUMP JUMPDEST PUSH2 0x1812 JUMPI PUSH1 0x40 MLOAD PUSH32 0x8C379A000000000000000000000000000000000000000000000000000000000 DUP2 MSTORE PUSH1 0x4 ADD PUSH2 0x1809 SWAP1 PUSH2 0x325E JUMP JUMPDEST PUSH1 0x40 MLOAD DUP1 SWAP2 SUB SWAP1 REVERT JUMPDEST DUP1 PUSH20 0xFFFFFFFFFFFFFFFFFFFFFFFFFFFFFFFFFFFFFFFF AND PUSH32 0xBCE672F287CA218B7A90C84485D9B40640252149F0E8C2932FE972E3FBC6FDC3 DUP6 DUP6 PUSH1 0x40 MLOAD PUSH2 0x185A SWAP3 SWAP2 SWAP1 PUSH2 0x3937 JUMP JUMPDEST PUSH1 0x40 MLOAD DUP1 SWAP2 SUB SWAP1 LOG2 PUSH2 0x18B8 DUP2 DUP6 DUP6 DUP1 DUP1 PUSH1 0x1F ADD PUSH1 0x20 DUP1 SWAP2 DIV MUL PUSH1 0x20 ADD PUSH1 0x40 MLOAD SWAP1 DUP2 ADD PUSH1 0x40 MSTORE DUP1 SWAP4 SWAP3 SWAP2 SWAP1 DUP2 DUP2 MSTORE PUSH1 0x20 ADD DUP4 DUP4 DUP1 DUP3 DUP5 CALLDATACOPY PUSH0 DUP2 DUP5 ADD MSTORE PUSH1 0x1F NOT PUSH1 0x1F DUP3 ADD AND SWAP1 POP DUP1 DUP4 ADD SWAP3 POP POP POP POP POP POP POP PUSH2 0x18B3 DUP6 PUSH2 0x1F65 JUMP JUMPDEST PUSH2 0x2113 JUMP JUMPDEST PUSH2 0x18F7 JUMPI PUSH1 0x40 MLOAD PUSH32 0x8C379A000000000000000000000000000000000000000000000000000000000 DUP2 MSTORE PUSH1 0x4 ADD PUSH2 0x18EE SWAP1 PUSH2 0x34A9 JUMP JUMPDEST PUSH1 0x40 MLOAD DUP1 SWAP2 SUB SWAP1 REVERT JUMPDEST DUP1 PUSH20 0xFFFFFFFFFFFFFFFFFFFFFFFFFFFFFFFFFFFFFFFF AND PUSH32 0xA7087DF87B8F2F603995742F0CBC82961D8BEE20D65D9FE7EC01FC435AAB5CD6 DUP6 DUP6 PUSH1 0x40 MLOAD PUSH2 0x193F SWAP3 SWAP2 SWAP1 PUSH2 0x3937 JUMP JUMPDEST PUSH1 0x40 MLOAD DUP1 SWAP2 SUB SWAP1 LOG2 PUSH2 0x1951 DUP2 CALLER PUSH2 0x21B4 JUMP JUMPDEST PUSH32 0x2260A4D0C00902D7996E8F7D669D22564414D41BE4D278A40387DDF58179D392 DUP2 CALLER PUSH1 0x40 MLOAD PUSH2 0x1982 SWAP3 SWAP2 SWAP1 PUSH2 0x32A3 JUMP JUMPDEST PUSH1 0x40 MLOAD DUP1 SWAP2 SUB SWAP1 LOG1 PUSH32 0x1E57E3BB474320BE3D2C77138F75B7C3941292D647F5F9634E33A8E94E0E069B CALLER CALLVALUE PUSH1 0x40 MLOAD PUSH2 0x19BB SWAP3 SWAP2 SWAP1 PUSH2 0x240D JUMP JUMPDEST PUSH1 0x40 MLOAD DUP1 SWAP2 SUB SWAP1 LOG1 SWAP5 SWAP4 POP POP POP POP JUMP JUMPDEST PUSH0 PUSH4 0xBC197C81 PUSH1 0xE0 SHL SWAP1 POP SWAP9 SWAP8 POP POP POP POP POP POP POP POP JUMP JUMPDEST PUSH1 0x5 DUP1 SLOAD PUSH2 0x19EF SWAP1 PUSH2 0x356C JUMP JUMPDEST DUP1 PUSH1 0x1F ADD PUSH1 0x20 DUP1 SWAP2 DIV MUL PUSH1 0x20 ADD PUSH1 0x40 MLOAD SWAP1 DUP2 ADD PUSH1 0x40 MSTORE DUP1 SWAP3 SWAP2 SWAP1 DUP2 DUP2 MSTORE PUSH1 0x20 ADD DUP3 DUP1 SLOAD PUSH2 0x1A1B SWAP1 PUSH2 0x356C JUMP JUMPDEST DUP1 ISZERO PUSH2 0x1A66 JUMPI DUP1 PUSH1 0x1F LT PUSH2 0x1A3D JUMPI PUSH2 0x100 DUP1 DUP4 SLOAD DIV MUL DUP4 MSTORE SWAP2 PUSH1 0x20 ADD SWAP2 PUSH2 0x1A66 JUMP JUMPDEST DUP3 ADD SWAP2 SWAP1 PUSH0 MSTORE PUSH1 0x20 PUSH0 KECCAK256 SWAP1 JUMPDEST DUP2 SLOAD DUP2 MSTORE SWAP1 PUSH1 0x1 ADD SWAP1 PUSH1 0x20 ADD DUP1 DUP4 GT PUSH2 0x1A49 JUMPI DUP3 SWAP1 SUB PUSH1 0x1F AND DUP3 ADD SWAP2 JUMPDEST POP POP POP POP POP DUP2 JUMP JUMPDEST PUSH0 PUSH4 0xF23A6E61 PUSH1 0xE0 SHL SWAP1 POP SWAP7 SWAP6 POP POP POP POP POP POP JUMP JUMPDEST PUSH2 0x1A8B PUSH2 0x208C JUMP JUMPDEST PUSH0 PUSH20 0xFFFFFFFFFFFFFFFFFFFFFFFFFFFFFFFFFFFFFFFF AND DUP2 PUSH20 0xFFFFFFFFFFFFFFFFFFFFFFFFFFFFFFFFFFFFFFFF AND SUB PUSH2 0x1AFB JUMPI PUSH0 PUSH1 0x40 MLOAD PUSH32 0x1E4FBDF700000000000000000000000000000000000000000000000000000000 DUP2 MSTORE PUSH1 0x4 ADD PUSH2 0x1AF2 SWAP2 SWAP1 PUSH2 0x2783 JUMP JUMPDEST PUSH1 0x40 MLOAD DUP1 SWAP2 SUB SWAP1 REVERT JUMPDEST PUSH2 0x1B04 DUP2 PUSH2 0x22EE JUMP JUMPDEST POP JUMP JUMPDEST PUSH0 DUP1 DUP3 MLOAD GT PUSH2 0x1B4B JUMPI PUSH1 0x40 MLOAD PUSH32 0x8C379A000000000000000000000000000000000000000000000000000000000 DUP2 MSTORE PUSH1 0x4 ADD PUSH2 0x1B42 SWAP1 PUSH2 0x39A3 JUMP JUMPDEST PUSH1 0x40 MLOAD DUP1 SWAP2 SUB SWAP1 REVERT JUMPDEST PUSH0 DUP4 PUSH1 0x40 MLOAD PUSH1 0x20 ADD PUSH2 0x1B5D SWAP2 SWAP1 PUSH2 0x381D JUMP JUMPDEST PUSH1 0x40 MLOAD PUSH1 0x20 DUP2 DUP4 SUB SUB DUP2 MSTORE SWAP1 PUSH1 0x40 MSTORE DUP1 MLOAD SWAP1 PUSH1 0x20 ADD KECCAK256 SWAP1 POP DUP1 DUP4 MLOAD PUSH1 0x20 DUP6 ADD PUSH0 CREATE2 SWAP2 POP PUSH0 PUSH20 0xFFFFFFFFFFFFFFFFFFFFFFFFFFFFFFFFFFFFFFFF AND DUP3 PUSH20 0xFFFFFFFFFFFFFFFFFFFFFFFFFFFFFFFFFFFFFFFF AND SUB PUSH2 0x1BEE JUMPI PUSH1 0x40 MLOAD PUSH32 0x8C379A000000000000000000000000000000000000000000000000000000000 DUP2 MSTORE PUSH1 0x4 ADD PUSH2 0x1BE5 SWAP1 PUSH2 0x3A0B JUMP JUMPDEST PUSH1 0x40 MLOAD DUP1 SWAP2 SUB SWAP1 REVERT JUMPDEST PUSH32 0x8FFCDC15A283D706D38281F500270D8B5A656918F555DE0913D7455E3E6BC1BF DUP3 PUSH1 0x40 MLOAD PUSH2 0x1C1D SWAP2 SWAP1 PUSH2 0x2783 JUMP JUMPDEST PUSH1 0x40 MLOAD DUP1 SWAP2 SUB SWAP1 LOG1 POP SWAP3 SWAP2 POP POP JUMP JUMPDEST PUSH0 PUSH1 0x5 PUSH1 0x40 MLOAD PUSH2 0x1C3C SWAP2 SWAP1 PUSH2 0x3ABB JUMP JUMPDEST PUSH1 0x40 MLOAD DUP1 SWAP2 SUB SWAP1 KECCAK256 DUP4 DUP4 PUSH1 0x40 MLOAD PUSH2 0x1C54 SWAP3 SWAP2 SWAP1 PUSH2 0x2EB4 JUMP JUMPDEST PUSH1 0x40 MLOAD DUP1 SWAP2 SUB SWAP1 KECCAK256 EQ SWAP1 POP SWAP3 SWAP2 POP POP JUMP JUMPDEST PUSH0 PUSH2 0x1C6F DUP3 PUSH2 0x1279 JUMP JUMPDEST PUSH2 0x1D3F JUMPI CALLER PUSH20 0xFFFFFFFFFFFFFFFFFFFFFFFFFFFFFFFFFFFFFFFF AND PUSH1 0x2 PUSH0 SWAP1 SLOAD SWAP1 PUSH2 0x100 EXP SWAP1 DIV PUSH20 0xFFFFFFFFFFFFFFFFFFFFFFFFFFFFFFFFFFFFFFFF AND PUSH20 0xFFFFFFFFFFFFFFFFFFFFFFFFFFFFFFFFFFFFFFFF AND PUSH4 0x2571BE3 DUP5 PUSH1 0x40 MLOAD DUP3 PUSH4 0xFFFFFFFF AND PUSH1 0xE0 SHL DUP2 MSTORE PUSH1 0x4 ADD PUSH2 0x1CE4 SWAP2 SWAP1 PUSH2 0x34C7 JUMP JUMPDEST PUSH1 0x20 PUSH1 0x40 MLOAD DUP1 DUP4 SUB DUP2 DUP7 GAS STATICCALL ISZERO DUP1 ISZERO PUSH2 0x1CFF JUMPI RETURNDATASIZE PUSH0 DUP1 RETURNDATACOPY RETURNDATASIZE PUSH0 REVERT JUMPDEST POP POP POP POP PUSH1 0x40 MLOAD RETURNDATASIZE PUSH1 0x1F NOT PUSH1 0x1F DUP3 ADD AND DUP3 ADD DUP1 PUSH1 0x40 MSTORE POP DUP2 ADD SWAP1 PUSH2 0x1D23 SWAP2 SWAP1 PUSH2 0x3AE5 JUMP JUMPDEST PUSH20 0xFFFFFFFFFFFFFFFFFFFFFFFFFFFFFFFFFFFFFFFF AND EQ PUSH2 0x1E09 JUMP JUMPDEST CALLER PUSH20 0xFFFFFFFFFFFFFFFFFFFFFFFFFFFFFFFFFFFFFFFF AND PUSH1 0x3 PUSH0 SWAP1 SLOAD SWAP1 PUSH2 0x100 EXP SWAP1 DIV PUSH20 0xFFFFFFFFFFFFFFFFFFFFFFFFFFFFFFFFFFFFFFFF AND PUSH20 0xFFFFFFFFFFFFFFFFFFFFFFFFFFFFFFFFFFFFFFFF AND PUSH4 0x6352211E DUP5 PUSH0 SHR PUSH1 0x40 MLOAD DUP3 PUSH4 0xFFFFFFFF AND PUSH1 0xE0 SHL DUP2 MSTORE PUSH1 0x4 ADD PUSH2 0x1DB2 SWAP2 SWAP1 PUSH2 0x2914 JUMP JUMPDEST PUSH1 0x20 PUSH1 0x40 MLOAD DUP1 DUP4 SUB DUP2 DUP7 GAS STATICCALL ISZERO DUP1 ISZERO PUSH2 0x1DCD JUMPI RETURNDATASIZE PUSH0 DUP1 RETURNDATACOPY RETURNDATASIZE PUSH0 REVERT JUMPDEST POP POP POP POP PUSH1 0x40 MLOAD RETURNDATASIZE PUSH1 0x1F NOT PUSH1 0x1F DUP3 ADD AND DUP3 ADD DUP1 PUSH1 0x40 MSTORE POP DUP2 ADD SWAP1 PUSH2 0x1DF1 SWAP2 SWAP1 PUSH2 0x3AE5 JUMP JUMPDEST PUSH20 0xFFFFFFFFFFFFFFFFFFFFFFFFFFFFFFFFFFFFFFFF AND EQ JUMPDEST SWAP1 POP SWAP2 SWAP1 POP JUMP JUMPDEST PUSH0 PUSH2 0x1E1A DUP6 PUSH2 0x1279 JUMP JUMPDEST ISZERO PUSH2 0x1EC1 JUMPI PUSH1 0x3 PUSH0 SWAP1 SLOAD SWAP1 PUSH2 0x100 EXP SWAP1 DIV PUSH20 0xFFFFFFFFFFFFFFFFFFFFFFFFFFFFFFFFFFFFFFFF AND PUSH20 0xFFFFFFFFFFFFFFFFFFFFFFFFFFFFFFFFFFFFFFFF AND PUSH4 0x24C1AF44 DUP7 DUP7 DUP7 ADDRESS PUSH2 0x1E69 DUP12 PUSH2 0x1F65 JUMP JUMPDEST PUSH0 DUP1 PUSH0 PUSH1 0x40 MLOAD DUP10 PUSH4 0xFFFFFFFF AND PUSH1 0xE0 SHL DUP2 MSTORE PUSH1 0x4 ADD PUSH2 0x1E8F SWAP9 SWAP8 SWAP7 SWAP6 SWAP5 SWAP4 SWAP3 SWAP2 SWAP1 PUSH2 0x3B9B JUMP JUMPDEST PUSH0 PUSH1 0x40 MLOAD DUP1 DUP4 SUB DUP2 PUSH0 DUP8 DUP1 EXTCODESIZE ISZERO DUP1 ISZERO PUSH2 0x1EA6 JUMPI PUSH0 DUP1 REVERT JUMPDEST POP GAS CALL ISZERO DUP1 ISZERO PUSH2 0x1EB8 JUMPI RETURNDATASIZE PUSH0 DUP1 RETURNDATACOPY RETURNDATASIZE PUSH0 REVERT JUMPDEST POP POP POP POP PUSH2 0x1F59 JUMP JUMPDEST PUSH1 0x2 PUSH0 SWAP1 SLOAD SWAP1 PUSH2 0x100 EXP SWAP1 DIV PUSH20 0xFFFFFFFFFFFFFFFFFFFFFFFFFFFFFFFFFFFFFFFF AND PUSH20 0xFFFFFFFFFFFFFFFFFFFFFFFFFFFFFFFFFFFFFFFF AND PUSH4 0x5EF2C7F0 DUP7 DUP5 ADDRESS PUSH2 0x1F0A DUP11 PUSH2 0x1F65 JUMP JUMPDEST PUSH0 PUSH1 0x40 MLOAD DUP7 PUSH4 0xFFFFFFFF AND PUSH1 0xE0 SHL DUP2 MSTORE PUSH1 0x4 ADD PUSH2 0x1F2B SWAP6 SWAP5 SWAP4 SWAP3 SWAP2 SWAP1 PUSH2 0x3C11 JUMP JUMPDEST PUSH0 PUSH1 0x40 MLOAD DUP1 DUP4 SUB DUP2 PUSH0 DUP8 DUP1 EXTCODESIZE ISZERO DUP1 ISZERO PUSH2 0x1F42 JUMPI PUSH0 DUP1 REVERT JUMPDEST POP GAS CALL ISZERO DUP1 ISZERO PUSH2 0x1F54 JUMPI RETURNDATASIZE PUSH0 DUP1 RETURNDATACOPY RETURNDATASIZE PUSH0 REVERT JUMPDEST POP POP POP POP JUMPDEST PUSH1 0x1 SWAP1 POP SWAP5 SWAP4 POP POP POP POP JUMP JUMPDEST PUSH0 PUSH1 0x2 PUSH0 SWAP1 SLOAD SWAP1 PUSH2 0x100 EXP SWAP1 DIV PUSH20 0xFFFFFFFFFFFFFFFFFFFFFFFFFFFFFFFFFFFFFFFF AND PUSH20 0xFFFFFFFFFFFFFFFFFFFFFFFFFFFFFFFFFFFFFFFF AND PUSH4 0x178B8BF DUP4 PUSH1 0x40 MLOAD DUP3 PUSH4 0xFFFFFFFF AND PUSH1 0xE0 SHL DUP2 MSTORE PUSH1 0x4 ADD PUSH2 0x1FC0 SWAP2 SWAP1 PUSH2 0x34C7 JUMP JUMPDEST PUSH1 0x20 PUSH1 0x40 MLOAD DUP1 DUP4 SUB DUP2 DUP7 GAS STATICCALL ISZERO DUP1 ISZERO PUSH2 0x1FDB JUMPI RETURNDATASIZE PUSH0 DUP1 RETURNDATACOPY RETURNDATASIZE PUSH0 REVERT JUMPDEST POP POP POP POP PUSH1 0x40 MLOAD RETURNDATASIZE PUSH1 0x1F NOT PUSH1 0x1F DUP3 ADD AND DUP3 ADD DUP1 PUSH1 0x40 MSTORE POP DUP2 ADD SWAP1 PUSH2 0x1FFF SWAP2 SWAP1 PUSH2 0x3AE5 JUMP JUMPDEST SWAP1 POP SWAP2 SWAP1 POP JUMP JUMPDEST PUSH0 PUSH2 0x2010 DUP5 PUSH2 0x1F65 JUMP JUMPDEST PUSH20 0xFFFFFFFFFFFFFFFFFFFFFFFFFFFFFFFFFFFFFFFF AND PUSH4 0x8B95DD71 DUP6 DUP6 DUP6 PUSH1 0x40 MLOAD DUP5 PUSH4 0xFFFFFFFF AND PUSH1 0xE0 SHL DUP2 MSTORE PUSH1 0x4 ADD PUSH2 0x204C SWAP4 SWAP3 SWAP2 SWAP1 PUSH2 0x3CB4 JUMP JUMPDEST PUSH0 PUSH1 0x40 MLOAD DUP1 DUP4 SUB DUP2 PUSH0 DUP8 DUP1 EXTCODESIZE ISZERO DUP1 ISZERO PUSH2 0x2063 JUMPI PUSH0 DUP1 REVERT JUMPDEST POP GAS CALL SWAP3 POP POP POP DUP1 ISZERO PUSH2 0x2074 JUMPI POP PUSH1 0x1 JUMPDEST PUSH2 0x2080 JUMPI PUSH0 SWAP1 POP PUSH2 0x2085 JUMP JUMPDEST PUSH1 0x1 SWAP1 POP JUMPDEST SWAP4 SWAP3 POP POP POP JUMP JUMPDEST PUSH2 0x2094 PUSH2 0x23AF JUMP JUMPDEST PUSH20 0xFFFFFFFFFFFFFFFFFFFFFFFFFFFFFFFFFFFFFFFF AND PUSH2 0x20B2 PUSH2 0x16B3 JUMP JUMPDEST PUSH20 0xFFFFFFFFFFFFFFFFFFFFFFFFFFFFFFFFFFFFFFFF AND EQ PUSH2 0x2111 JUMPI PUSH2 0x20D5 PUSH2 0x23AF JUMP JUMPDEST PUSH1 0x40 MLOAD PUSH32 0x118CDAA700000000000000000000000000000000000000000000000000000000 DUP2 MSTORE PUSH1 0x4 ADD PUSH2 0x2108 SWAP2 SWAP1 PUSH2 0x2783 JUMP JUMPDEST PUSH1 0x40 MLOAD DUP1 SWAP2 SUB SWAP1 REVERT JUMPDEST JUMP JUMPDEST PUSH0 PUSH1 0x1 PUSH0 SWAP1 SLOAD SWAP1 PUSH2 0x100 EXP SWAP1 DIV PUSH20 0xFFFFFFFFFFFFFFFFFFFFFFFFFFFFFFFFFFFFFFFF AND PUSH20 0xFFFFFFFFFFFFFFFFFFFFFFFFFFFFFFFFFFFFFFFF AND PUSH4 0x7A806D6B DUP6 ADDRESS DUP6 DUP8 PUSH1 0x40 MLOAD DUP6 PUSH4 0xFFFFFFFF AND PUSH1 0xE0 SHL DUP2 MSTORE PUSH1 0x4 ADD PUSH2 0x2174 SWAP5 SWAP4 SWAP3 SWAP2 SWAP1 PUSH2 0x3CF0 JUMP JUMPDEST PUSH0 PUSH1 0x40 MLOAD DUP1 DUP4 SUB DUP2 PUSH0 DUP8 DUP1 EXTCODESIZE ISZERO DUP1 ISZERO PUSH2 0x218B JUMPI PUSH0 DUP1 REVERT JUMPDEST POP GAS CALL SWAP3 POP POP POP DUP1 ISZERO PUSH2 0x219C JUMPI POP PUSH1 0x1 JUMPDEST PUSH2 0x21A8 JUMPI PUSH0 SWAP1 POP PUSH2 0x21AD JUMP JUMPDEST PUSH1 0x1 SWAP1 POP JUMPDEST SWAP4 SWAP3 POP POP POP JUMP JUMPDEST PUSH0 DUP3 PUSH20 0xFFFFFFFFFFFFFFFFFFFFFFFFFFFFFFFFFFFFFFFF AND DUP3 PUSH1 0x40 MLOAD PUSH1 0x24 ADD PUSH2 0x21DD SWAP2 SWAP1 PUSH2 0x2783 JUMP JUMPDEST PUSH1 0x40 MLOAD PUSH1 0x20 DUP2 DUP4 SUB SUB DUP2 MSTORE SWAP1 PUSH1 0x40 MSTORE PUSH32 0xF2FDE38B00000000000000000000000000000000000000000000000000000000 PUSH28 0xFFFFFFFFFFFFFFFFFFFFFFFFFFFFFFFFFFFFFFFFFFFFFFFFFFFFFFFF NOT AND PUSH1 0x20 DUP3 ADD DUP1 MLOAD PUSH28 0xFFFFFFFFFFFFFFFFFFFFFFFFFFFFFFFFFFFFFFFFFFFFFFFFFFFFFFFF DUP4 DUP2 DUP4 AND OR DUP4 MSTORE POP POP POP POP PUSH1 0x40 MLOAD PUSH2 0x2267 SWAP2 SWAP1 PUSH2 0x3D6A JUMP JUMPDEST PUSH0 PUSH1 0x40 MLOAD DUP1 DUP4 SUB DUP2 PUSH0 DUP7 GAS CALL SWAP2 POP POP RETURNDATASIZE DUP1 PUSH0 DUP2 EQ PUSH2 0x22A0 JUMPI PUSH1 0x40 MLOAD SWAP2 POP PUSH1 0x1F NOT PUSH1 0x3F RETURNDATASIZE ADD AND DUP3 ADD PUSH1 0x40 MSTORE RETURNDATASIZE DUP3 MSTORE RETURNDATASIZE PUSH0 PUSH1 0x20 DUP5 ADD RETURNDATACOPY PUSH2 0x22A5 JUMP JUMPDEST PUSH1 0x60 SWAP2 POP JUMPDEST POP POP SWAP1 POP DUP1 PUSH2 0x22E9 JUMPI PUSH1 0x40 MLOAD PUSH32 0x8C379A000000000000000000000000000000000000000000000000000000000 DUP2 MSTORE PUSH1 0x4 ADD PUSH2 0x22E0 SWAP1 PUSH2 0x3DCA JUMP JUMPDEST PUSH1 0x40 MLOAD DUP1 SWAP2 SUB SWAP1 REVERT JUMPDEST POP POP POP JUMP JUMPDEST PUSH0 DUP1 PUSH0 SWAP1 SLOAD SWAP1 PUSH2 0x100 EXP SWAP1 DIV PUSH20 0xFFFFFFFFFFFFFFFFFFFFFFFFFFFFFFFFFFFFFFFF AND SWAP1 POP DUP2 PUSH0 DUP1 PUSH2 0x100 EXP DUP2 SLOAD DUP2 PUSH20 0xFFFFFFFFFFFFFFFFFFFFFFFFFFFFFFFFFFFFFFFF MUL NOT AND SWAP1 DUP4 PUSH20 0xFFFFFFFFFFFFFFFFFFFFFFFFFFFFFFFFFFFFFFFF AND MUL OR SWAP1 SSTORE POP DUP2 PUSH20 0xFFFFFFFFFFFFFFFFFFFFFFFFFFFFFFFFFFFFFFFF AND DUP2 PUSH20 0xFFFFFFFFFFFFFFFFFFFFFFFFFFFFFFFFFFFFFFFF AND PUSH32 0x8BE0079C531659141344CD1FD0A4F28419497F9722A3DAAFE3B4186F6B6457E0 PUSH1 0x40 MLOAD PUSH1 0x40 MLOAD DUP1 SWAP2 SUB SWAP1 LOG3 POP POP JUMP JUMPDEST PUSH0 CALLER SWAP1 POP SWAP1 JUMP JUMPDEST PUSH0 PUSH20 0xFFFFFFFFFFFFFFFFFFFFFFFFFFFFFFFFFFFFFFFF DUP3 AND SWAP1 POP SWAP2 SWAP1 POP JUMP JUMPDEST PUSH0 PUSH2 0x23DF DUP3 PUSH2 0x23B6 JUMP JUMPDEST SWAP1 POP SWAP2 SWAP1 POP JUMP JUMPDEST PUSH2 0x23EF DUP2 PUSH2 0x23D5 JUMP JUMPDEST DUP3 MSTORE POP POP JUMP JUMPDEST PUSH0 DUP2 SWAP1 POP SWAP2 SWAP1 POP JUMP JUMPDEST PUSH2 0x2407 DUP2 PUSH2 0x23F5 JUMP JUMPDEST DUP3 MSTORE POP POP JUMP JUMPDEST PUSH0 PUSH1 0x40 DUP3 ADD SWAP1 POP PUSH2 0x2420 PUSH0 DUP4 ADD DUP6 PUSH2 0x23E6 JUMP JUMPDEST PUSH2 0x242D PUSH1 0x20 DUP4 ADD DUP5 PUSH2 0x23FE JUMP JUMPDEST SWAP4 SWAP3 POP POP POP JUMP JUMPDEST PUSH0 PUSH1 0x40 MLOAD SWAP1 POP SWAP1 JUMP JUMPDEST PUSH0 DUP1 REVERT JUMPDEST PUSH0 DUP1 REVERT JUMPDEST PUSH0 PUSH32 0xFFFFFFFF00000000000000000000000000000000000000000000000000000000 DUP3 AND SWAP1 POP SWAP2 SWAP1 POP JUMP JUMPDEST PUSH2 0x2479 DUP2 PUSH2 0x2445 JUMP JUMPDEST DUP2 EQ PUSH2 0x2483 JUMPI PUSH0 DUP1 REVERT JUMPDEST POP JUMP JUMPDEST PUSH0 DUP2 CALLDATALOAD SWAP1 POP PUSH2 0x2494 DUP2 PUSH2 0x2470 JUMP JUMPDEST SWAP3 SWAP2 POP POP JUMP JUMPDEST PUSH0 PUSH1 0x20 DUP3 DUP5 SUB SLT ISZERO PUSH2 0x24AF JUMPI PUSH2 0x24AE PUSH2 0x243D JUMP JUMPDEST JUMPDEST PUSH0 PUSH2 0x24BC DUP5 DUP3 DUP6 ADD PUSH2 0x2486 JUMP JUMPDEST SWAP2 POP POP SWAP3 SWAP2 POP POP JUMP JUMPDEST PUSH0 DUP2 ISZERO ISZERO SWAP1 POP SWAP2 SWAP1 POP JUMP JUMPDEST PUSH2 0x24D9 DUP2 PUSH2 0x24C5 JUMP JUMPDEST DUP3 MSTORE POP POP JUMP JUMPDEST PUSH0 PUSH1 0x20 DUP3 ADD SWAP1 POP PUSH2 0x24F2 PUSH0 DUP4 ADD DUP5 PUSH2 0x24D0 JUMP JUMPDEST SWAP3 SWAP2 POP POP JUMP JUMPDEST PUSH0 DUP1 REVERT JUMPDEST PUSH0 DUP1 REVERT JUMPDEST PUSH0 PUSH1 0x1F NOT PUSH1 0x1F DUP4 ADD AND SWAP1 POP SWAP2 SWAP1 POP JUMP JUMPDEST PUSH32 0x4E487B7100000000000000000000000000000000000000000000000000000000 PUSH0 MSTORE PUSH1 0x41 PUSH1 0x4 MSTORE PUSH1 0x24 PUSH0 REVERT JUMPDEST PUSH2 0x2546 DUP3 PUSH2 0x2500 JUMP JUMPDEST DUP2 ADD DUP2 DUP2 LT PUSH8 0xFFFFFFFFFFFFFFFF DUP3 GT OR ISZERO PUSH2 0x2565 JUMPI PUSH2 0x2564 PUSH2 0x2510 JUMP JUMPDEST JUMPDEST DUP1 PUSH1 0x40 MSTORE POP POP POP JUMP JUMPDEST PUSH0 PUSH2 0x2577 PUSH2 0x2434 JUMP JUMPDEST SWAP1 POP PUSH2 0x2583 DUP3 DUP3 PUSH2 0x253D JUMP JUMPDEST SWAP2 SWAP1 POP JUMP JUMPDEST PUSH0 PUSH8 0xFFFFFFFFFFFFFFFF DUP3 GT ISZERO PUSH2 0x25A2 JUMPI PUSH2 0x25A1 PUSH2 0x2510 JUMP JUMPDEST JUMPDEST PUSH2 0x25AB DUP3 PUSH2 0x2500 JUMP JUMPDEST SWAP1 POP PUSH1 0x20 DUP2 ADD SWAP1 POP SWAP2 SWAP1 POP JUMP JUMPDEST DUP3 DUP2 DUP4 CALLDATACOPY PUSH0 DUP4 DUP4 ADD MSTORE POP POP POP JUMP JUMPDEST PUSH0 PUSH2 0x25D8 PUSH2 0x25D3 DUP5 PUSH2 0x2588 JUMP JUMPDEST PUSH2 0x256E JUMP JUMPDEST SWAP1 POP DUP3 DUP2 MSTORE PUSH1 0x20 DUP2 ADD DUP5 DUP5 DUP5 ADD GT ISZERO PUSH2 0x25F4 JUMPI PUSH2 0x25F3 PUSH2 0x24FC JUMP JUMPDEST JUMPDEST PUSH2 0x25FF DUP5 DUP3 DUP6 PUSH2 0x25B8 JUMP JUMPDEST POP SWAP4 SWAP3 POP POP POP JUMP JUMPDEST PUSH0 DUP3 PUSH1 0x1F DUP4 ADD SLT PUSH2 0x261B JUMPI PUSH2 0x261A PUSH2 0x24F8 JUMP JUMPDEST JUMPDEST DUP2 CALLDATALOAD PUSH2 0x262B DUP5 DUP3 PUSH1 0x20 DUP7 ADD PUSH2 0x25C6 JUMP JUMPDEST SWAP2 POP POP SWAP3 SWAP2 POP POP JUMP JUMPDEST PUSH0 DUP1 REVERT JUMPDEST PUSH0 DUP1 REVERT JUMPDEST PUSH0 DUP1 DUP4 PUSH1 0x1F DUP5 ADD SLT PUSH2 0x2651 JUMPI PUSH2 0x2650 PUSH2 0x24F8 JUMP JUMPDEST JUMPDEST DUP3 CALLDATALOAD SWAP1 POP PUSH8 0xFFFFFFFFFFFFFFFF DUP2 GT ISZERO PUSH2 0x266E JUMPI PUSH2 0x266D PUSH2 0x2634 JUMP JUMPDEST JUMPDEST PUSH1 0x20 DUP4 ADD SWAP2 POP DUP4 PUSH1 0x1 DUP3 MUL DUP4 ADD GT ISZERO PUSH2 0x268A JUMPI PUSH2 0x2689 PUSH2 0x2638 JUMP JUMPDEST JUMPDEST SWAP3 POP SWAP3 SWAP1 POP JUMP JUMPDEST PUSH0 DUP2 SWAP1 POP SWAP2 SWAP1 POP JUMP JUMPDEST PUSH2 0x26A3 DUP2 PUSH2 0x2691 JUMP JUMPDEST DUP2 EQ PUSH2 0x26AD JUMPI PUSH0 DUP1 REVERT JUMPDEST POP JUMP JUMPDEST PUSH0 DUP2 CALLDATALOAD SWAP1 POP PUSH2 0x26BE DUP2 PUSH2 0x269A JUMP JUMPDEST SWAP3 SWAP2 POP POP JUMP JUMPDEST PUSH0 DUP1 PUSH0 DUP1 PUSH0 DUP1 PUSH1 0x80 DUP8 DUP10 SUB SLT ISZERO PUSH2 0x26DE JUMPI PUSH2 0x26DD PUSH2 0x243D JUMP JUMPDEST JUMPDEST PUSH0 DUP8 ADD CALLDATALOAD PUSH8 0xFFFFFFFFFFFFFFFF DUP2 GT ISZERO PUSH2 0x26FB JUMPI PUSH2 0x26FA PUSH2 0x2441 JUMP JUMPDEST JUMPDEST PUSH2 0x2707 DUP10 DUP3 DUP11 ADD PUSH2 0x2607 JUMP JUMPDEST SWAP7 POP POP PUSH1 0x20 DUP8 ADD CALLDATALOAD PUSH8 0xFFFFFFFFFFFFFFFF DUP2 GT ISZERO PUSH2 0x2728 JUMPI PUSH2 0x2727 PUSH2 0x2441 JUMP JUMPDEST JUMPDEST PUSH2 0x2734 DUP10 DUP3 DUP11 ADD PUSH2 0x263C JUMP JUMPDEST SWAP6 POP SWAP6 POP POP PUSH1 0x40 DUP8 ADD CALLDATALOAD PUSH8 0xFFFFFFFFFFFFFFFF DUP2 GT ISZERO PUSH2 0x2757 JUMPI PUSH2 0x2756 PUSH2 0x2441 JUMP JUMPDEST JUMPDEST PUSH2 0x2763 DUP10 DUP3 DUP11 ADD PUSH2 0x263C JUMP JUMPDEST SWAP4 POP SWAP4 POP POP PUSH1 0x60 PUSH2 0x2776 DUP10 DUP3 DUP11 ADD PUSH2 0x26B0 JUMP JUMPDEST SWAP2 POP POP SWAP3 SWAP6 POP SWAP3 SWAP6 POP SWAP3 SWAP6 JUMP JUMPDEST PUSH0 PUSH1 0x20 DUP3 ADD SWAP1 POP PUSH2 0x2796 PUSH0 DUP4 ADD DUP5 PUSH2 0x23E6 JUMP JUMPDEST SWAP3 SWAP2 POP POP JUMP JUMPDEST PUSH2 0x27A5 DUP2 PUSH2 0x23D5 JUMP JUMPDEST DUP2 EQ PUSH2 0x27AF JUMPI PUSH0 DUP1 REVERT JUMPDEST POP JUMP JUMPDEST PUSH0 DUP2 CALLDATALOAD SWAP1 POP PUSH2 0x27C0 DUP2 PUSH2 0x279C JUMP JUMPDEST SWAP3 SWAP2 POP POP JUMP JUMPDEST PUSH0 PUSH1 0x20 DUP3 DUP5 SUB SLT ISZERO PUSH2 0x27DB JUMPI PUSH2 0x27DA PUSH2 0x243D JUMP JUMPDEST JUMPDEST PUSH0 PUSH2 0x27E8 DUP5 DUP3 DUP6 ADD PUSH2 0x27B2 JUMP JUMPDEST SWAP2 POP POP SWAP3 SWAP2 POP POP JUMP JUMPDEST PUSH2 0x27FA DUP2 PUSH2 0x23F5 JUMP JUMPDEST DUP2 EQ PUSH2 0x2804 JUMPI PUSH0 DUP1 REVERT JUMPDEST POP JUMP JUMPDEST PUSH0 DUP2 CALLDATALOAD SWAP1 POP PUSH2 0x2815 DUP2 PUSH2 0x27F1 JUMP JUMPDEST SWAP3 SWAP2 POP POP JUMP JUMPDEST PUSH0 PUSH1 0x20 DUP3 DUP5 SUB SLT ISZERO PUSH2 0x2830 JUMPI PUSH2 0x282F PUSH2 0x243D JUMP JUMPDEST JUMPDEST PUSH0 PUSH2 0x283D DUP5 DUP3 DUP6 ADD PUSH2 0x2807 JUMP JUMPDEST SWAP2 POP POP SWAP3 SWAP2 POP POP JUMP JUMPDEST PUSH0 DUP1 PUSH0 DUP1 PUSH0 DUP1 PUSH1 0x80 DUP8 DUP10 SUB SLT ISZERO PUSH2 0x2860 JUMPI PUSH2 0x285F PUSH2 0x243D JUMP JUMPDEST JUMPDEST PUSH0 PUSH2 0x286D DUP10 DUP3 DUP11 ADD PUSH2 0x27B2 JUMP JUMPDEST SWAP7 POP POP PUSH1 0x20 DUP8 ADD CALLDATALOAD PUSH8 0xFFFFFFFFFFFFFFFF DUP2 GT ISZERO PUSH2 0x288E JUMPI PUSH2 0x288D PUSH2 0x2441 JUMP JUMPDEST JUMPDEST PUSH2 0x289A DUP10 DUP3 DUP11 ADD PUSH2 0x263C JUMP JUMPDEST SWAP6 POP SWAP6 POP POP PUSH1 0x40 DUP8 ADD CALLDATALOAD PUSH8 0xFFFFFFFFFFFFFFFF DUP2 GT ISZERO PUSH2 0x28BD JUMPI PUSH2 0x28BC PUSH2 0x2441 JUMP JUMPDEST JUMPDEST PUSH2 0x28C9 DUP10 DUP3 DUP11 ADD PUSH2 0x263C JUMP JUMPDEST SWAP4 POP SWAP4 POP POP PUSH1 0x60 PUSH2 0x28DC DUP10 DUP3 DUP11 ADD PUSH2 0x26B0 JUMP JUMPDEST SWAP2 POP POP SWAP3 SWAP6 POP SWAP3 SWAP6 POP SWAP3 SWAP6 JUMP JUMPDEST PUSH0 PUSH1 0x20 DUP3 DUP5 SUB SLT ISZERO PUSH2 0x28FE JUMPI PUSH2 0x28FD PUSH2 0x243D JUMP JUMPDEST JUMPDEST PUSH0 PUSH2 0x290B DUP5 DUP3 DUP6 ADD PUSH2 0x26B0 JUMP JUMPDEST SWAP2 POP POP SWAP3 SWAP2 POP POP JUMP JUMPDEST PUSH0 PUSH1 0x20 DUP3 ADD SWAP1 POP PUSH2 0x2927 PUSH0 DUP4 ADD DUP5 PUSH2 0x23FE JUMP JUMPDEST SWAP3 SWAP2 POP POP JUMP JUMPDEST PUSH0 DUP2 SWAP1 POP SWAP2 SWAP1 POP JUMP JUMPDEST PUSH0 PUSH2 0x2950 PUSH2 0x294B PUSH2 0x2946 DUP5 PUSH2 0x23B6 JUMP JUMPDEST PUSH2 0x292D JUMP JUMPDEST PUSH2 0x23B6 JUMP JUMPDEST SWAP1 POP SWAP2 SWAP1 POP JUMP JUMPDEST PUSH0 PUSH2 0x2961 DUP3 PUSH2 0x2936 JUMP JUMPDEST SWAP1 POP SWAP2 SWAP1 POP JUMP JUMPDEST PUSH0 PUSH2 0x2972 DUP3 PUSH2 0x2957 JUMP JUMPDEST SWAP1 POP SWAP2 SWAP1 POP JUMP JUMPDEST PUSH2 0x2982 DUP2 PUSH2 0x2968 JUMP JUMPDEST DUP3 MSTORE POP POP JUMP JUMPDEST PUSH0 PUSH1 0x20 DUP3 ADD SWAP1 POP PUSH2 0x299B PUSH0 DUP4 ADD DUP5 PUSH2 0x2979 JUMP JUMPDEST SWAP3 SWAP2 POP POP JUMP JUMPDEST PUSH0 PUSH2 0x29AB DUP3 PUSH2 0x2957 JUMP JUMPDEST SWAP1 POP SWAP2 SWAP1 POP JUMP JUMPDEST PUSH2 0x29BB DUP2 PUSH2 0x29A1 JUMP JUMPDEST DUP3 MSTORE POP POP JUMP JUMPDEST PUSH0 PUSH1 0x20 DUP3 ADD SWAP1 POP PUSH2 0x29D4 PUSH0 DUP4 ADD DUP5 PUSH2 0x29B2 JUMP JUMPDEST SWAP3 SWAP2 POP POP JUMP JUMPDEST PUSH0 DUP1 PUSH1 0x20 DUP4 DUP6 SUB SLT ISZERO PUSH2 0x29F0 JUMPI PUSH2 0x29EF PUSH2 0x243D JUMP JUMPDEST JUMPDEST PUSH0 DUP4 ADD CALLDATALOAD PUSH8 0xFFFFFFFFFFFFFFFF DUP2 GT ISZERO PUSH2 0x2A0D JUMPI PUSH2 0x2A0C PUSH2 0x2441 JUMP JUMPDEST JUMPDEST PUSH2 0x2A19 DUP6 DUP3 DUP7 ADD PUSH2 0x263C JUMP JUMPDEST SWAP3 POP SWAP3 POP POP SWAP3 POP SWAP3 SWAP1 POP JUMP JUMPDEST PUSH0 DUP1 PUSH1 0x40 DUP4 DUP6 SUB SLT ISZERO PUSH2 0x2A3B JUMPI PUSH2 0x2A3A PUSH2 0x243D JUMP JUMPDEST JUMPDEST PUSH0 PUSH2 0x2A48 DUP6 DUP3 DUP7 ADD PUSH2 0x2807 JUMP JUMPDEST SWAP3 POP POP PUSH1 0x20 DUP4 ADD CALLDATALOAD PUSH8 0xFFFFFFFFFFFFFFFF DUP2 GT ISZERO PUSH2 0x2A69 JUMPI PUSH2 0x2A68 PUSH2 0x2441 JUMP JUMPDEST JUMPDEST PUSH2 0x2A75 DUP6 DUP3 DUP7 ADD PUSH2 0x2607 JUMP JUMPDEST SWAP2 POP POP SWAP3 POP SWAP3 SWAP1 POP JUMP JUMPDEST PUSH0 PUSH2 0x2A89 DUP3 PUSH2 0x2957 JUMP JUMPDEST SWAP1 POP SWAP2 SWAP1 POP JUMP JUMPDEST PUSH2 0x2A99 DUP2 PUSH2 0x2A7F JUMP JUMPDEST DUP3 MSTORE POP POP JUMP JUMPDEST PUSH0 PUSH1 0x20 DUP3 ADD SWAP1 POP PUSH2 0x2AB2 PUSH0 DUP4 ADD DUP5 PUSH2 0x2A90 JUMP JUMPDEST SWAP3 SWAP2 POP POP JUMP JUMPDEST PUSH0 DUP1 PUSH0 DUP1 PUSH1 0x60 DUP6 DUP8 SUB SLT ISZERO PUSH2 0x2AD0 JUMPI PUSH2 0x2ACF PUSH2 0x243D JUMP JUMPDEST JUMPDEST PUSH0 DUP6 ADD CALLDATALOAD PUSH8 0xFFFFFFFFFFFFFFFF DUP2 GT ISZERO PUSH2 0x2AED JUMPI PUSH2 0x2AEC PUSH2 0x2441 JUMP JUMPDEST JUMPDEST PUSH2 0x2AF9 DUP8 DUP3 DUP9 ADD PUSH2 0x2607 JUMP JUMPDEST SWAP5 POP POP PUSH1 0x20 DUP6 ADD CALLDATALOAD PUSH8 0xFFFFFFFFFFFFFFFF DUP2 GT ISZERO PUSH2 0x2B1A JUMPI PUSH2 0x2B19 PUSH2 0x2441 JUMP JUMPDEST JUMPDEST PUSH2 0x2B26 DUP8 DUP3 DUP9 ADD PUSH2 0x263C JUMP JUMPDEST SWAP4 POP SWAP4 POP POP PUSH1 0x40 PUSH2 0x2B39 DUP8 DUP3 DUP9 ADD PUSH2 0x26B0 JUMP JUMPDEST SWAP2 POP POP SWAP3 SWAP6 SWAP2 SWAP5 POP SWAP3 POP JUMP JUMPDEST PUSH0 DUP1 DUP4 PUSH1 0x1F DUP5 ADD SLT PUSH2 0x2B5A JUMPI PUSH2 0x2B59 PUSH2 0x24F8 JUMP JUMPDEST JUMPDEST DUP3 CALLDATALOAD SWAP1 POP PUSH8 0xFFFFFFFFFFFFFFFF DUP2 GT ISZERO PUSH2 0x2B77 JUMPI PUSH2 0x2B76 PUSH2 0x2634 JUMP JUMPDEST JUMPDEST PUSH1 0x20 DUP4 ADD SWAP2 POP DUP4 PUSH1 0x20 DUP3 MUL DUP4 ADD GT ISZERO PUSH2 0x2B93 JUMPI PUSH2 0x2B92 PUSH2 0x2638 JUMP JUMPDEST JUMPDEST SWAP3 POP SWAP3 SWAP1 POP JUMP JUMPDEST PUSH0 DUP1 DUP4 PUSH1 0x1F DUP5 ADD SLT PUSH2 0x2BAF JUMPI PUSH2 0x2BAE PUSH2 0x24F8 JUMP JUMPDEST JUMPDEST DUP3 CALLDATALOAD SWAP1 POP PUSH8 0xFFFFFFFFFFFFFFFF DUP2 GT ISZERO PUSH2 0x2BCC JUMPI PUSH2 0x2BCB PUSH2 0x2634 JUMP JUMPDEST JUMPDEST PUSH1 0x20 DUP4 ADD SWAP2 POP DUP4 PUSH1 0x1 DUP3 MUL DUP4 ADD GT ISZERO PUSH2 0x2BE8 JUMPI PUSH2 0x2BE7 PUSH2 0x2638 JUMP JUMPDEST JUMPDEST SWAP3 POP SWAP3 SWAP1 POP JUMP JUMPDEST PUSH0 DUP1 PUSH0 DUP1 PUSH0 DUP1 PUSH0 DUP1 PUSH1 0xA0 DUP10 DUP12 SUB SLT ISZERO PUSH2 0x2C0B JUMPI PUSH2 0x2C0A PUSH2 0x243D JUMP JUMPDEST JUMPDEST PUSH0 PUSH2 0x2C18 DUP12 DUP3 DUP13 ADD PUSH2 0x27B2 JUMP JUMPDEST SWAP9 POP POP PUSH1 0x20 PUSH2 0x2C29 DUP12 DUP3 DUP13 ADD PUSH2 0x27B2 JUMP JUMPDEST SWAP8 POP POP PUSH1 0x40 DUP10 ADD CALLDATALOAD PUSH8 0xFFFFFFFFFFFFFFFF DUP2 GT ISZERO PUSH2 0x2C4A JUMPI PUSH2 0x2C49 PUSH2 0x2441 JUMP JUMPDEST JUMPDEST PUSH2 0x2C56 DUP12 DUP3 DUP13 ADD PUSH2 0x2B45 JUMP JUMPDEST SWAP7 POP SWAP7 POP POP PUSH1 0x60 DUP10 ADD CALLDATALOAD PUSH8 0xFFFFFFFFFFFFFFFF DUP2 GT ISZERO PUSH2 0x2C79 JUMPI PUSH2 0x2C78 PUSH2 0x2441 JUMP JUMPDEST JUMPDEST PUSH2 0x2C85 DUP12 DUP3 DUP13 ADD PUSH2 0x2B45 JUMP JUMPDEST SWAP5 POP SWAP5 POP POP PUSH1 0x80 DUP10 ADD CALLDATALOAD PUSH8 0xFFFFFFFFFFFFFFFF DUP2 GT ISZERO PUSH2 0x2CA8 JUMPI PUSH2 0x2CA7 PUSH2 0x2441 JUMP JUMPDEST JUMPDEST PUSH2 0x2CB4 DUP12 DUP3 DUP13 ADD PUSH2 0x2B9A JUMP JUMPDEST SWAP3 POP SWAP3 POP POP SWAP3 SWAP6 SWAP9 POP SWAP3 SWAP6 SWAP9 SWAP1 SWAP4 SWAP7 POP JUMP JUMPDEST PUSH2 0x2CCF DUP2 PUSH2 0x2445 JUMP JUMPDEST DUP3 MSTORE POP POP JUMP JUMPDEST PUSH0 PUSH1 0x20 DUP3 ADD SWAP1 POP PUSH2 0x2CE8 PUSH0 DUP4 ADD DUP5 PUSH2 0x2CC6 JUMP JUMPDEST SWAP3 SWAP2 POP POP JUMP JUMPDEST PUSH0 DUP2 MLOAD SWAP1 POP SWAP2 SWAP1 POP JUMP JUMPDEST PUSH0 DUP3 DUP3 MSTORE PUSH1 0x20 DUP3 ADD SWAP1 POP SWAP3 SWAP2 POP POP JUMP JUMPDEST PUSH0 JUMPDEST DUP4 DUP2 LT ISZERO PUSH2 0x2D25 JUMPI DUP1 DUP3 ADD MLOAD DUP2 DUP5 ADD MSTORE PUSH1 0x20 DUP2 ADD SWAP1 POP PUSH2 0x2D0A JUMP JUMPDEST PUSH0 DUP5 DUP5 ADD MSTORE POP POP POP POP JUMP JUMPDEST PUSH0 PUSH2 0x2D3A DUP3 PUSH2 0x2CEE JUMP JUMPDEST PUSH2 0x2D44 DUP2 DUP6 PUSH2 0x2CF8 JUMP JUMPDEST SWAP4 POP PUSH2 0x2D54 DUP2 DUP6 PUSH1 0x20 DUP7 ADD PUSH2 0x2D08 JUMP JUMPDEST PUSH2 0x2D5D DUP2 PUSH2 0x2500 JUMP JUMPDEST DUP5 ADD SWAP2 POP POP SWAP3 SWAP2 POP POP JUMP JUMPDEST PUSH0 PUSH1 0x20 DUP3 ADD SWAP1 POP DUP2 DUP2 SUB PUSH0 DUP4 ADD MSTORE PUSH2 0x2D80 DUP2 DUP5 PUSH2 0x2D30 JUMP JUMPDEST SWAP1 POP SWAP3 SWAP2 POP POP JUMP JUMPDEST PUSH0 DUP1 PUSH0 DUP1 PUSH0 DUP1 PUSH1 0xA0 DUP8 DUP10 SUB SLT ISZERO PUSH2 0x2DA2 JUMPI PUSH2 0x2DA1 PUSH2 0x243D JUMP JUMPDEST JUMPDEST PUSH0 PUSH2 0x2DAF DUP10 DUP3 DUP11 ADD PUSH2 0x27B2 JUMP JUMPDEST SWAP7 POP POP PUSH1 0x20 PUSH2 0x2DC0 DUP10 DUP3 DUP11 ADD PUSH2 0x27B2 JUMP JUMPDEST SWAP6 POP POP PUSH1 0x40 PUSH2 0x2DD1 DUP10 DUP3 DUP11 ADD PUSH2 0x2807 JUMP JUMPDEST SWAP5 POP POP PUSH1 0x60 PUSH2 0x2DE2 DUP10 DUP3 DUP11 ADD PUSH2 0x2807 JUMP JUMPDEST SWAP4 POP POP PUSH1 0x80 DUP8 ADD CALLDATALOAD PUSH8 0xFFFFFFFFFFFFFFFF DUP2 GT ISZERO PUSH2 0x2E03 JUMPI PUSH2 0x2E02 PUSH2 0x2441 JUMP JUMPDEST JUMPDEST PUSH2 0x2E0F DUP10 DUP3 DUP11 ADD PUSH2 0x2B9A JUMP JUMPDEST SWAP3 POP SWAP3 POP POP SWAP3 SWAP6 POP SWAP3 SWAP6 POP SWAP3 SWAP6 JUMP JUMPDEST PUSH32 0x496E73756666696369656E742045544800000000000000000000000000000000 PUSH0 DUP3 ADD MSTORE POP JUMP JUMPDEST PUSH0 PUSH2 0x2E52 PUSH1 0x10 DUP4 PUSH2 0x2CF8 JUMP JUMPDEST SWAP2 POP PUSH2 0x2E5D DUP3 PUSH2 0x2E1E JUMP JUMPDEST PUSH1 0x20 DUP3 ADD SWAP1 POP SWAP2 SWAP1 POP JUMP JUMPDEST PUSH0 PUSH1 0x20 DUP3 ADD SWAP1 POP DUP2 DUP2 SUB PUSH0 DUP4 ADD MSTORE PUSH2 0x2E7F DUP2 PUSH2 0x2E46 JUMP JUMPDEST SWAP1 POP SWAP2 SWAP1 POP JUMP JUMPDEST PUSH0 DUP2 SWAP1 POP SWAP3 SWAP2 POP POP JUMP JUMPDEST PUSH0 PUSH2 0x2E9B DUP4 DUP6 PUSH2 0x2E86 JUMP JUMPDEST SWAP4 POP PUSH2 0x2EA8 DUP4 DUP6 DUP5 PUSH2 0x25B8 JUMP JUMPDEST DUP3 DUP5 ADD SWAP1 POP SWAP4 SWAP3 POP POP POP JUMP JUMPDEST PUSH0 PUSH2 0x2EC0 DUP3 DUP5 DUP7 PUSH2 0x2E90 JUMP JUMPDEST SWAP2 POP DUP2 SWAP1 POP SWAP4 SWAP3 POP POP POP JUMP JUMPDEST PUSH0 DUP2 SWAP1 POP SWAP2 SWAP1 POP JUMP JUMPDEST PUSH2 0x2EE6 PUSH2 0x2EE1 DUP3 PUSH2 0x2691 JUMP JUMPDEST PUSH2 0x2ECC JUMP JUMPDEST DUP3 MSTORE POP POP JUMP JUMPDEST PUSH0 PUSH2 0x2EF7 DUP3 DUP6 PUSH2 0x2ED5 JUMP JUMPDEST PUSH1 0x20 DUP3 ADD SWAP2 POP PUSH2 0x2F07 DUP3 DUP5 PUSH2 0x2ED5 JUMP JUMPDEST PUSH1 0x20 DUP3 ADD SWAP2 POP DUP2 SWAP1 POP SWAP4 SWAP3 POP POP POP JUMP JUMPDEST PUSH0 DUP2 SWAP1 POP SWAP3 SWAP2 POP POP JUMP JUMPDEST PUSH0 PUSH2 0x2F2C DUP4 DUP6 PUSH2 0x2F17 JUMP JUMPDEST SWAP4 POP PUSH2 0x2F39 DUP4 DUP6 DUP5 PUSH2 0x25B8 JUMP JUMPDEST DUP3 DUP5 ADD SWAP1 POP SWAP4 SWAP3 POP POP POP JUMP JUMPDEST PUSH32 0x2E00000000000000000000000000000000000000000000000000000000000000 PUSH0 DUP3 ADD MSTORE POP JUMP JUMPDEST PUSH0 PUSH2 0x2F79 PUSH1 0x1 DUP4 PUSH2 0x2F17 JUMP JUMPDEST SWAP2 POP PUSH2 0x2F84 DUP3 PUSH2 0x2F45 JUMP JUMPDEST PUSH1 0x1 DUP3 ADD SWAP1 POP SWAP2 SWAP1 POP JUMP JUMPDEST PUSH0 PUSH2 0x2F9B DUP3 DUP7 DUP9 PUSH2 0x2F21 JUMP JUMPDEST SWAP2 POP PUSH2 0x2FA6 DUP3 PUSH2 0x2F6D JUMP JUMPDEST SWAP2 POP PUSH2 0x2FB3 DUP3 DUP5 DUP7 PUSH2 0x2F21 JUMP JUMPDEST SWAP2 POP DUP2 SWAP1 POP SWAP6 SWAP5 POP POP POP POP POP JUMP JUMPDEST PUSH32 0x53656E646572206973206E6F7420746865206F776E6572206F6620706172656E PUSH0 DUP3 ADD MSTORE PUSH32 0x74206E6F64650000000000000000000000000000000000000000000000000000 PUSH1 0x20 DUP3 ADD MSTORE POP JUMP JUMPDEST PUSH0 PUSH2 0x301B PUSH1 0x26 DUP4 PUSH2 0x2CF8 JUMP JUMPDEST SWAP2 POP PUSH2 0x3026 DUP3 PUSH2 0x2FC1 JUMP JUMPDEST PUSH1 0x40 DUP3 ADD SWAP1 POP SWAP2 SWAP1 POP JUMP JUMPDEST PUSH0 PUSH1 0x20 DUP3 ADD SWAP1 POP DUP2 DUP2 SUB PUSH0 DUP4 ADD MSTORE PUSH2 0x3048 DUP2 PUSH2 0x300F JUMP JUMPDEST SWAP1 POP SWAP2 SWAP1 POP JUMP JUMPDEST PUSH32 0x5375626E616D65206372656174696F6E206661696C6564000000000000000000 PUSH0 DUP3 ADD MSTORE POP JUMP JUMPDEST PUSH0 PUSH2 0x3083 PUSH1 0x17 DUP4 PUSH2 0x2CF8 JUMP JUMPDEST SWAP2 POP PUSH2 0x308E DUP3 PUSH2 0x304F JUMP JUMPDEST PUSH1 0x20 DUP3 ADD SWAP1 POP SWAP2 SWAP1 POP JUMP JUMPDEST PUSH0 PUSH1 0x20 DUP3 ADD SWAP1 POP DUP2 DUP2 SUB PUSH0 DUP4 ADD MSTORE PUSH2 0x30B0 DUP2 PUSH2 0x3077 JUMP JUMPDEST SWAP1 POP SWAP2 SWAP1 POP JUMP JUMPDEST PUSH2 0x30C0 DUP2 PUSH2 0x2691 JUMP JUMPDEST DUP3 MSTORE POP POP JUMP JUMPDEST PUSH0 PUSH2 0x30D1 DUP4 DUP6 PUSH2 0x2CF8 JUMP JUMPDEST SWAP4 POP PUSH2 0x30DE DUP4 DUP6 DUP5 PUSH2 0x25B8 JUMP JUMPDEST PUSH2 0x30E7 DUP4 PUSH2 0x2500 JUMP JUMPDEST DUP5 ADD SWAP1 POP SWAP4 SWAP3 POP POP POP JUMP JUMPDEST PUSH0 PUSH1 0x40 DUP3 ADD SWAP1 POP PUSH2 0x3105 PUSH0 DUP4 ADD DUP7 PUSH2 0x30B7 JUMP JUMPDEST DUP2 DUP2 SUB PUSH1 0x20 DUP4 ADD MSTORE PUSH2 0x3118 DUP2 DUP5 DUP7 PUSH2 0x30C6 JUMP JUMPDEST SWAP1 POP SWAP5 SWAP4 POP POP POP POP JUMP JUMPDEST PUSH0 DUP2 MLOAD SWAP1 POP PUSH2 0x3130 DUP2 PUSH2 0x269A JUMP JUMPDEST SWAP3 SWAP2 POP POP JUMP JUMPDEST PUSH0 PUSH1 0x20 DUP3 DUP5 SUB SLT ISZERO PUSH2 0x314B JUMPI PUSH2 0x314A PUSH2 0x243D JUMP JUMPDEST JUMPDEST PUSH0 PUSH2 0x3158 DUP5 DUP3 DUP6 ADD PUSH2 0x3122 JUMP JUMPDEST SWAP2 POP POP SWAP3 SWAP2 POP POP JUMP JUMPDEST PUSH0 PUSH1 0x40 DUP3 ADD SWAP1 POP PUSH2 0x3174 PUSH0 DUP4 ADD DUP6 PUSH2 0x30B7 JUMP JUMPDEST DUP2 DUP2 SUB PUSH1 0x20 DUP4 ADD MSTORE PUSH2 0x3186 DUP2 DUP5 PUSH2 0x2D30 JUMP JUMPDEST SWAP1 POP SWAP4 SWAP3 POP POP POP JUMP JUMPDEST PUSH0 DUP2 PUSH1 0x60 SHL SWAP1 POP SWAP2 SWAP1 POP JUMP JUMPDEST PUSH0 PUSH2 0x31A5 DUP3 PUSH2 0x318F JUMP JUMPDEST SWAP1 POP SWAP2 SWAP1 POP JUMP JUMPDEST PUSH0 PUSH2 0x31B6 DUP3 PUSH2 0x319B JUMP JUMPDEST SWAP1 POP SWAP2 SWAP1 POP JUMP JUMPDEST PUSH2 0x31CE PUSH2 0x31C9 DUP3 PUSH2 0x23D5 JUMP JUMPDEST PUSH2 0x31AC JUMP JUMPDEST DUP3 MSTORE POP POP JUMP JUMPDEST PUSH0 PUSH2 0x31DF DUP3 DUP5 PUSH2 0x31BD JUMP JUMPDEST PUSH1 0x14 DUP3 ADD SWAP2 POP DUP2 SWAP1 POP SWAP3 SWAP2 POP POP JUMP JUMPDEST PUSH32 0x736574416464722C20666F7277617264207265736F6C7574696F6E206661696C PUSH0 DUP3 ADD MSTORE PUSH32 0x6564000000000000000000000000000000000000000000000000000000000000 PUSH1 0x20 DUP3 ADD MSTORE POP JUMP JUMPDEST PUSH0 PUSH2 0x3248 PUSH1 0x22 DUP4 PUSH2 0x2CF8 JUMP JUMPDEST SWAP2 POP PUSH2 0x3253 DUP3 PUSH2 0x31EE JUMP JUMPDEST PUSH1 0x40 DUP3 ADD SWAP1 POP SWAP2 SWAP1 POP JUMP JUMPDEST PUSH0 PUSH1 0x20 DUP3 ADD SWAP1 POP DUP2 DUP2 SUB PUSH0 DUP4 ADD MSTORE PUSH2 0x3275 DUP2 PUSH2 0x323C JUMP JUMPDEST SWAP1 POP SWAP2 SWAP1 POP JUMP JUMPDEST PUSH0 PUSH1 0x40 DUP3 ADD SWAP1 POP PUSH2 0x328F PUSH0 DUP4 ADD DUP6 PUSH2 0x30B7 JUMP JUMPDEST PUSH2 0x329C PUSH1 0x20 DUP4 ADD DUP5 PUSH2 0x23E6 JUMP JUMPDEST SWAP4 SWAP3 POP POP POP JUMP JUMPDEST PUSH0 PUSH1 0x40 DUP3 ADD SWAP1 POP PUSH2 0x32B6 PUSH0 DUP4 ADD DUP6 PUSH2 0x23E6 JUMP JUMPDEST PUSH2 0x32C3 PUSH1 0x20 DUP4 ADD DUP5 PUSH2 0x23E6 JUMP JUMPDEST SWAP4 SWAP3 POP POP POP JUMP JUMPDEST POP JUMP JUMPDEST PUSH0 PUSH2 0x32D8 PUSH0 DUP4 PUSH2 0x2E86 JUMP JUMPDEST SWAP2 POP PUSH2 0x32E3 DUP3 PUSH2 0x32CA JUMP JUMPDEST PUSH0 DUP3 ADD SWAP1 POP SWAP2 SWAP1 POP JUMP JUMPDEST PUSH0 PUSH2 0x32F7 DUP3 PUSH2 0x32CD JUMP JUMPDEST SWAP2 POP DUP2 SWAP1 POP SWAP2 SWAP1 POP JUMP JUMPDEST PUSH32 0x5769746864726177206661696C65640000000000000000000000000000000000 PUSH0 DUP3 ADD MSTORE POP JUMP JUMPDEST PUSH0 PUSH2 0x3335 PUSH1 0xF DUP4 PUSH2 0x2CF8 JUMP JUMPDEST SWAP2 POP PUSH2 0x3340 DUP3 PUSH2 0x3301 JUMP JUMPDEST PUSH1 0x20 DUP3 ADD SWAP1 POP SWAP2 SWAP1 POP JUMP JUMPDEST PUSH0 PUSH1 0x20 DUP3 ADD SWAP1 POP DUP2 DUP2 SUB PUSH0 DUP4 ADD MSTORE PUSH2 0x3362 DUP2 PUSH2 0x3329 JUMP JUMPDEST SWAP1 POP SWAP2 SWAP1 POP JUMP JUMPDEST PUSH32 0x5072696365206D757374206265203E2030000000000000000000000000000000 PUSH0 DUP3 ADD MSTORE POP JUMP JUMPDEST PUSH0 PUSH2 0x339D PUSH1 0x11 DUP4 PUSH2 0x2CF8 JUMP JUMPDEST SWAP2 POP PUSH2 0x33A8 DUP3 PUSH2 0x3369 JUMP JUMPDEST PUSH1 0x20 DUP3 ADD SWAP1 POP SWAP2 SWAP1 POP JUMP JUMPDEST PUSH0 PUSH1 0x20 DUP3 ADD SWAP1 POP DUP2 DUP2 SUB PUSH0 DUP4 ADD MSTORE PUSH2 0x33CA DUP2 PUSH2 0x3391 JUMP JUMPDEST SWAP1 POP SWAP2 SWAP1 POP JUMP JUMPDEST PUSH32 0x4661696C656420746F20637265617465207375626E616D6520616E6420736574 PUSH0 DUP3 ADD MSTORE PUSH32 0x20666F7277617264207265736F6C7574696F6E00000000000000000000000000 PUSH1 0x20 DUP3 ADD MSTORE POP JUMP JUMPDEST PUSH0 PUSH2 0x342B PUSH1 0x33 DUP4 PUSH2 0x2CF8 JUMP JUMPDEST SWAP2 POP PUSH2 0x3436 DUP3 PUSH2 0x33D1 JUMP JUMPDEST PUSH1 0x40 DUP3 ADD SWAP1 POP SWAP2 SWAP1 POP JUMP JUMPDEST PUSH0 PUSH1 0x20 DUP3 ADD SWAP1 POP DUP2 DUP2 SUB PUSH0 DUP4 ADD MSTORE PUSH2 0x3458 DUP2 PUSH2 0x341F JUMP JUMPDEST SWAP1 POP SWAP2 SWAP1 POP JUMP JUMPDEST PUSH32 0x4661696C656420746F20736574207072696D617279206E616D65000000000000 PUSH0 DUP3 ADD MSTORE POP JUMP JUMPDEST PUSH0 PUSH2 0x3493 PUSH1 0x1A DUP4 PUSH2 0x2CF8 JUMP JUMPDEST SWAP2 POP PUSH2 0x349E DUP3 PUSH2 0x345F JUMP JUMPDEST PUSH1 0x20 DUP3 ADD SWAP1 POP SWAP2 SWAP1 POP JUMP JUMPDEST PUSH0 PUSH1 0x20 DUP3 ADD SWAP1 POP DUP2 DUP2 SUB PUSH0 DUP4 ADD MSTORE PUSH2 0x34C0 DUP2 PUSH2 0x3487 JUMP JUMPDEST SWAP1 POP SWAP2 SWAP1 POP JUMP JUMPDEST PUSH0 PUSH1 0x20 DUP3 ADD SWAP1 POP PUSH2 0x34DA PUSH0 DUP4 ADD DUP5 PUSH2 0x30B7 JUMP JUMPDEST SWAP3 SWAP2 POP POP JUMP JUMPDEST PUSH2 0x34E9 DUP2 PUSH2 0x24C5 JUMP JUMPDEST DUP2 EQ PUSH2 0x34F3 JUMPI PUSH0 DUP1 REVERT JUMPDEST POP JUMP JUMPDEST PUSH0 DUP2 MLOAD SWAP1 POP PUSH2 0x3504 DUP2 PUSH2 0x34E0 JUMP JUMPDEST SWAP3 SWAP2 POP POP JUMP JUMPDEST PUSH0 PUSH1 0x20 DUP3 DUP5 SUB SLT ISZERO PUSH2 0x351F JUMPI PUSH2 0x351E PUSH2 0x243D JUMP JUMPDEST JUMPDEST PUSH0 PUSH2 0x352C DUP5 DUP3 DUP6 ADD PUSH2 0x34F6 JUMP JUMPDEST SWAP2 POP POP SWAP3 SWAP2 POP POP JUMP JUMPDEST PUSH0 DUP3 SWAP1 POP SWAP3 SWAP2 POP POP JUMP JUMPDEST PUSH32 0x4E487B7100000000000000000000000000000000000000000000000000000000 PUSH0 MSTORE PUSH1 0x22 PUSH1 0x4 MSTORE PUSH1 0x24 PUSH0 REVERT JUMPDEST PUSH0 PUSH1 0x2 DUP3 DIV SWAP1 POP PUSH1 0x1 DUP3 AND DUP1 PUSH2 0x3583 JUMPI PUSH1 0x7F DUP3 AND SWAP2 POP JUMPDEST PUSH1 0x20 DUP3 LT DUP2 SUB PUSH2 0x3596 JUMPI PUSH2 0x3595 PUSH2 0x353F JUMP JUMPDEST JUMPDEST POP SWAP2 SWAP1 POP JUMP JUMPDEST PUSH0 DUP2 SWAP1 POP DUP2 PUSH0 MSTORE PUSH1 0x20 PUSH0 KECCAK256 SWAP1 POP SWAP2 SWAP1 POP JUMP JUMPDEST PUSH0 PUSH1 0x20 PUSH1 0x1F DUP4 ADD DIV SWAP1 POP SWAP2 SWAP1 POP JUMP JUMPDEST PUSH0 DUP3 DUP3 SHL SWAP1 POP SWAP3 SWAP2 POP POP JUMP JUMPDEST PUSH0 PUSH1 0x8 DUP4 MUL PUSH2 0x35F8 PUSH32 0xFFFFFFFFFFFFFFFFFFFFFFFFFFFFFFFFFFFFFFFFFFFFFFFFFFFFFFFFFFFFFFFF DUP3 PUSH2 0x35BD JUMP JUMPDEST PUSH2 0x3602 DUP7 DUP4 PUSH2 0x35BD JUMP JUMPDEST SWAP6 POP DUP1 NOT DUP5 AND SWAP4 POP DUP1 DUP7 AND DUP5 OR SWAP3 POP POP POP SWAP4 SWAP3 POP POP POP JUMP JUMPDEST PUSH0 PUSH2 0x3634 PUSH2 0x362F PUSH2 0x362A DUP5 PUSH2 0x23F5 JUMP JUMPDEST PUSH2 0x292D JUMP JUMPDEST PUSH2 0x23F5 JUMP JUMPDEST SWAP1 POP SWAP2 SWAP1 POP JUMP JUMPDEST PUSH0 DUP2 SWAP1 POP SWAP2 SWAP1 POP JUMP JUMPDEST PUSH2 0x364D DUP4 PUSH2 0x361A JUMP JUMPDEST PUSH2 0x3661 PUSH2 0x3659 DUP3 PUSH2 0x363B JUMP JUMPDEST DUP5 DUP5 SLOAD PUSH2 0x35C9 JUMP JUMPDEST DUP3 SSTORE POP POP POP POP JUMP JUMPDEST PUSH0 SWAP1 JUMP JUMPDEST PUSH2 0x3675 PUSH2 0x3669 JUMP JUMPDEST PUSH2 0x3680 DUP2 DUP5 DUP5 PUSH2 0x3644 JUMP JUMPDEST POP POP POP JUMP JUMPDEST JUMPDEST DUP2 DUP2 LT ISZERO PUSH2 0x36A3 JUMPI PUSH2 0x3698 PUSH0 DUP3 PUSH2 0x366D JUMP JUMPDEST PUSH1 0x1 DUP2 ADD SWAP1 POP PUSH2 0x3686 JUMP JUMPDEST POP POP JUMP JUMPDEST PUSH1 0x1F DUP3 GT ISZERO PUSH2 0x36E8 JUMPI PUSH2 0x36B9 DUP2 PUSH2 0x359C JUMP JUMPDEST PUSH2 0x36C2 DUP5 PUSH2 0x35AE JUMP JUMPDEST DUP2 ADD PUSH1 0x20 DUP6 LT ISZERO PUSH2 0x36D1 JUMPI DUP2 SWAP1 POP JUMPDEST PUSH2 0x36E5 PUSH2 0x36DD DUP6 PUSH2 0x35AE JUMP JUMPDEST DUP4 ADD DUP3 PUSH2 0x3685 JUMP JUMPDEST POP POP JUMPDEST POP POP POP JUMP JUMPDEST PUSH0 DUP3 DUP3 SHR SWAP1 POP SWAP3 SWAP2 POP POP JUMP JUMPDEST PUSH0 PUSH2 0x3708 PUSH0 NOT DUP5 PUSH1 0x8 MUL PUSH2 0x36ED JUMP JUMPDEST NOT DUP1 DUP4 AND SWAP2 POP POP SWAP3 SWAP2 POP POP JUMP JUMPDEST PUSH0 PUSH2 0x3720 DUP4 DUP4 PUSH2 0x36F9 JUMP JUMPDEST SWAP2 POP DUP3 PUSH1 0x2 MUL DUP3 OR SWAP1 POP SWAP3 SWAP2 POP POP JUMP JUMPDEST PUSH2 0x373A DUP4 DUP4 PUSH2 0x3535 JUMP JUMPDEST PUSH8 0xFFFFFFFFFFFFFFFF DUP2 GT ISZERO PUSH2 0x3753 JUMPI PUSH2 0x3752 PUSH2 0x2510 JUMP JUMPDEST JUMPDEST PUSH2 0x375D DUP3 SLOAD PUSH2 0x356C JUMP JUMPDEST PUSH2 0x3768 DUP3 DUP3 DUP6 PUSH2 0x36A7 JUMP JUMPDEST PUSH0 PUSH1 0x1F DUP4 GT PUSH1 0x1 DUP2 EQ PUSH2 0x3795 JUMPI PUSH0 DUP5 ISZERO PUSH2 0x3783 JUMPI DUP3 DUP8 ADD CALLDATALOAD SWAP1 POP JUMPDEST PUSH2 0x378D DUP6 DUP3 PUSH2 0x3715 JUMP JUMPDEST DUP7 SSTORE POP PUSH2 0x37F4 JUMP JUMPDEST PUSH1 0x1F NOT DUP5 AND PUSH2 0x37A3 DUP7 PUSH2 0x359C JUMP JUMPDEST PUSH0 JUMPDEST DUP3 DUP2 LT ISZERO PUSH2 0x37CA JUMPI DUP5 DUP10 ADD CALLDATALOAD DUP3 SSTORE PUSH1 0x1 DUP3 ADD SWAP2 POP PUSH1 0x20 DUP6 ADD SWAP5 POP PUSH1 0x20 DUP2 ADD SWAP1 POP PUSH2 0x37A5 JUMP JUMPDEST DUP7 DUP4 LT ISZERO PUSH2 0x37E7 JUMPI DUP5 DUP10 ADD CALLDATALOAD PUSH2 0x37E3 PUSH1 0x1F DUP10 AND DUP3 PUSH2 0x36F9 JUMP JUMPDEST DUP4 SSTORE POP JUMPDEST PUSH1 0x1 PUSH1 0x2 DUP9 MUL ADD DUP9 SSTORE POP POP POP JUMPDEST POP POP POP POP POP POP POP JUMP JUMPDEST PUSH0 DUP2 SWAP1 POP SWAP2 SWAP1 POP JUMP JUMPDEST PUSH2 0x3817 PUSH2 0x3812 DUP3 PUSH2 0x23F5 JUMP JUMPDEST PUSH2 0x37FD JUMP JUMPDEST DUP3 MSTORE POP POP JUMP JUMPDEST PUSH0 PUSH2 0x3828 DUP3 DUP5 PUSH2 0x3806 JUMP JUMPDEST PUSH1 0x20 DUP3 ADD SWAP2 POP DUP2 SWAP1 POP SWAP3 SWAP2 POP POP JUMP JUMPDEST PUSH0 PUSH32 0xFF00000000000000000000000000000000000000000000000000000000000000 DUP3 AND SWAP1 POP SWAP2 SWAP1 POP JUMP JUMPDEST PUSH0 DUP2 SWAP1 POP SWAP2 SWAP1 POP JUMP JUMPDEST PUSH2 0x387C PUSH2 0x3877 DUP3 PUSH2 0x3837 JUMP JUMPDEST PUSH2 0x3862 JUMP JUMPDEST DUP3 MSTORE POP POP JUMP JUMPDEST PUSH0 PUSH2 0x388D DUP3 DUP8 PUSH2 0x386B JUMP JUMPDEST PUSH1 0x1 DUP3 ADD SWAP2 POP PUSH2 0x389D DUP3 DUP7 PUSH2 0x31BD JUMP JUMPDEST PUSH1 0x14 DUP3 ADD SWAP2 POP PUSH2 0x38AD DUP3 DUP6 PUSH2 0x2ED5 JUMP JUMPDEST PUSH1 0x20 DUP3 ADD SWAP2 POP PUSH2 0x38BD DUP3 DUP5 PUSH2 0x2ED5 JUMP JUMPDEST PUSH1 0x20 DUP3 ADD SWAP2 POP DUP2 SWAP1 POP SWAP6 SWAP5 POP POP POP POP POP JUMP JUMPDEST PUSH32 0x53656E646572206973206E6F7420746865206F776E6572206F66206E6F646500 PUSH0 DUP3 ADD MSTORE POP JUMP JUMPDEST PUSH0 PUSH2 0x3903 PUSH1 0x1F DUP4 PUSH2 0x2CF8 JUMP JUMPDEST SWAP2 POP PUSH2 0x390E DUP3 PUSH2 0x38CF JUMP JUMPDEST PUSH1 0x20 DUP3 ADD SWAP1 POP SWAP2 SWAP1 POP JUMP JUMPDEST PUSH0 PUSH1 0x20 DUP3 ADD SWAP1 POP DUP2 DUP2 SUB PUSH0 DUP4 ADD MSTORE PUSH2 0x3930 DUP2 PUSH2 0x38F7 JUMP JUMPDEST SWAP1 POP SWAP2 SWAP1 POP JUMP JUMPDEST PUSH0 PUSH1 0x20 DUP3 ADD SWAP1 POP DUP2 DUP2 SUB PUSH0 DUP4 ADD MSTORE PUSH2 0x3950 DUP2 DUP5 DUP7 PUSH2 0x30C6 JUMP JUMPDEST SWAP1 POP SWAP4 SWAP3 POP POP POP JUMP JUMPDEST PUSH32 0x456D7074792062797465636F6465000000000000000000000000000000000000 PUSH0 DUP3 ADD MSTORE POP JUMP JUMPDEST PUSH0 PUSH2 0x398D PUSH1 0xE DUP4 PUSH2 0x2CF8 JUMP JUMPDEST SWAP2 POP PUSH2 0x3998 DUP3 PUSH2 0x3959 JUMP JUMPDEST PUSH1 0x20 DUP3 ADD SWAP1 POP SWAP2 SWAP1 POP JUMP JUMPDEST PUSH0 PUSH1 0x20 DUP3 ADD SWAP1 POP DUP2 DUP2 SUB PUSH0 DUP4 ADD MSTORE PUSH2 0x39BA DUP2 PUSH2 0x3981 JUMP JUMPDEST SWAP1 POP SWAP2 SWAP1 POP JUMP JUMPDEST PUSH32 0x4465706C6F796D656E74206661696C6564000000000000000000000000000000 PUSH0 DUP3 ADD MSTORE POP JUMP JUMPDEST PUSH0 PUSH2 0x39F5 PUSH1 0x11 DUP4 PUSH2 0x2CF8 JUMP JUMPDEST SWAP2 POP PUSH2 0x3A00 DUP3 PUSH2 0x39C1 JUMP JUMPDEST PUSH1 0x20 DUP3 ADD SWAP1 POP SWAP2 SWAP1 POP JUMP JUMPDEST PUSH0 PUSH1 0x20 DUP3 ADD SWAP1 POP DUP2 DUP2 SUB PUSH0 DUP4 ADD MSTORE PUSH2 0x3A22 DUP2 PUSH2 0x39E9 JUMP JUMPDEST SWAP1 POP SWAP2 SWAP1 POP JUMP JUMPDEST PUSH0 DUP2 SWAP1 POP DUP2 PUSH0 MSTORE PUSH1 0x20 PUSH0 KECCAK256 SWAP1 POP SWAP2 SWAP1 POP JUMP JUMPDEST PUSH0 DUP2 SLOAD PUSH2 0x3A47 DUP2 PUSH2 0x356C JUMP JUMPDEST PUSH2 0x3A51 DUP2 DUP7 PUSH2 0x2E86 JUMP JUMPDEST SWAP5 POP PUSH1 0x1 DUP3 AND PUSH0 DUP2 EQ PUSH2 0x3A6B JUMPI PUSH1 0x1 DUP2 EQ PUSH2 0x3A80 JUMPI PUSH2 0x3AB2 JUMP JUMPDEST PUSH1 0xFF NOT DUP4 AND DUP7 MSTORE DUP2 ISZERO ISZERO DUP3 MUL DUP7 ADD SWAP4 POP PUSH2 0x3AB2 JUMP JUMPDEST PUSH2 0x3A89 DUP6 PUSH2 0x3A29 JUMP JUMPDEST PUSH0 JUMPDEST DUP4 DUP2 LT ISZERO PUSH2 0x3AAA JUMPI DUP2 SLOAD DUP2 DUP10 ADD MSTORE PUSH1 0x1 DUP3 ADD SWAP2 POP PUSH1 0x20 DUP2 ADD SWAP1 POP PUSH2 0x3A8B JUMP JUMPDEST DUP4 DUP9 ADD SWAP6 POP POP POP JUMPDEST POP POP POP SWAP3 SWAP2 POP POP JUMP JUMPDEST PUSH0 PUSH2 0x3AC6 DUP3 DUP5 PUSH2 0x3A3B JUMP JUMPDEST SWAP2 POP DUP2 SWAP1 POP SWAP3 SWAP2 POP POP JUMP JUMPDEST PUSH0 DUP2 MLOAD SWAP1 POP PUSH2 0x3ADF DUP2 PUSH2 0x279C JUMP JUMPDEST SWAP3 SWAP2 POP POP JUMP JUMPDEST PUSH0 PUSH1 0x20 DUP3 DUP5 SUB SLT ISZERO PUSH2 0x3AFA JUMPI PUSH2 0x3AF9 PUSH2 0x243D JUMP JUMPDEST JUMPDEST PUSH0 PUSH2 0x3B07 DUP5 DUP3 DUP6 ADD PUSH2 0x3AD1 JUMP JUMPDEST SWAP2 POP POP SWAP3 SWAP2 POP POP JUMP JUMPDEST PUSH0 DUP2 SWAP1 POP SWAP2 SWAP1 POP JUMP JUMPDEST PUSH0 PUSH8 0xFFFFFFFFFFFFFFFF DUP3 AND SWAP1 POP SWAP2 SWAP1 POP JUMP JUMPDEST PUSH0 PUSH2 0x3B46 PUSH2 0x3B41 PUSH2 0x3B3C DUP5 PUSH2 0x3B10 JUMP JUMPDEST PUSH2 0x292D JUMP JUMPDEST PUSH2 0x3B19 JUMP JUMPDEST SWAP1 POP SWAP2 SWAP1 POP JUMP JUMPDEST PUSH2 0x3B56 DUP2 PUSH2 0x3B2C JUMP JUMPDEST DUP3 MSTORE POP POP JUMP JUMPDEST PUSH0 PUSH4 0xFFFFFFFF DUP3 AND SWAP1 POP SWAP2 SWAP1 POP JUMP JUMPDEST PUSH0 PUSH2 0x3B85 PUSH2 0x3B80 PUSH2 0x3B7B DUP5 PUSH2 0x3B10 JUMP JUMPDEST PUSH2 0x292D JUMP JUMPDEST PUSH2 0x3B5C JUMP JUMPDEST SWAP1 POP SWAP2 SWAP1 POP JUMP JUMPDEST PUSH2 0x3B95 DUP2 PUSH2 0x3B6B JUMP JUMPDEST DUP3 MSTORE POP POP JUMP JUMPDEST PUSH0 PUSH1 0xE0 DUP3 ADD SWAP1 POP PUSH2 0x3BAE PUSH0 DUP4 ADD DUP12 PUSH2 0x30B7 JUMP JUMPDEST DUP2 DUP2 SUB PUSH1 0x20 DUP4 ADD MSTORE PUSH2 0x3BC1 DUP2 DUP10 DUP12 PUSH2 0x30C6 JUMP JUMPDEST SWAP1 POP PUSH2 0x3BD0 PUSH1 0x40 DUP4 ADD DUP9 PUSH2 0x23E6 JUMP JUMPDEST PUSH2 0x3BDD PUSH1 0x60 DUP4 ADD DUP8 PUSH2 0x23E6 JUMP JUMPDEST PUSH2 0x3BEA PUSH1 0x80 DUP4 ADD DUP7 PUSH2 0x3B4D JUMP JUMPDEST PUSH2 0x3BF7 PUSH1 0xA0 DUP4 ADD DUP6 PUSH2 0x3B8C JUMP JUMPDEST PUSH2 0x3C04 PUSH1 0xC0 DUP4 ADD DUP5 PUSH2 0x3B4D JUMP JUMPDEST SWAP10 SWAP9 POP POP POP POP POP POP POP POP POP JUMP JUMPDEST PUSH0 PUSH1 0xA0 DUP3 ADD SWAP1 POP PUSH2 0x3C24 PUSH0 DUP4 ADD DUP9 PUSH2 0x30B7 JUMP JUMPDEST PUSH2 0x3C31 PUSH1 0x20 DUP4 ADD DUP8 PUSH2 0x30B7 JUMP JUMPDEST PUSH2 0x3C3E PUSH1 0x40 DUP4 ADD DUP7 PUSH2 0x23E6 JUMP JUMPDEST PUSH2 0x3C4B PUSH1 0x60 DUP4 ADD DUP6 PUSH2 0x23E6 JUMP JUMPDEST PUSH2 0x3C58 PUSH1 0x80 DUP4 ADD DUP5 PUSH2 0x3B4D JUMP JUMPDEST SWAP7 SWAP6 POP POP POP POP POP POP JUMP JUMPDEST PUSH0 DUP2 MLOAD SWAP1 POP SWAP2 SWAP1 POP JUMP JUMPDEST PUSH0 DUP3 DUP3 MSTORE PUSH1 0x20 DUP3 ADD SWAP1 POP SWAP3 SWAP2 POP POP JUMP JUMPDEST PUSH0 PUSH2 0x3C86 DUP3 PUSH2 0x3C62 JUMP JUMPDEST PUSH2 0x3C90 DUP2 DUP6 PUSH2 0x3C6C JUMP JUMPDEST SWAP4 POP PUSH2 0x3CA0 DUP2 DUP6 PUSH1 0x20 DUP7 ADD PUSH2 0x2D08 JUMP JUMPDEST PUSH2 0x3CA9 DUP2 PUSH2 0x2500 JUMP JUMPDEST DUP5 ADD SWAP2 POP POP SWAP3 SWAP2 POP POP JUMP JUMPDEST PUSH0 PUSH1 0x60 DUP3 ADD SWAP1 POP PUSH2 0x3CC7 PUSH0 DUP4 ADD DUP7 PUSH2 0x30B7 JUMP JUMPDEST PUSH2 0x3CD4 PUSH1 0x20 DUP4 ADD DUP6 PUSH2 0x23FE JUMP JUMPDEST DUP2 DUP2 SUB PUSH1 0x40 DUP4 ADD MSTORE PUSH2 0x3CE6 DUP2 DUP5 PUSH2 0x3C7C JUMP JUMPDEST SWAP1 POP SWAP5 SWAP4 POP POP POP POP JUMP JUMPDEST PUSH0 PUSH1 0x80 DUP3 ADD SWAP1 POP PUSH2 0x3D03 PUSH0 DUP4 ADD DUP8 PUSH2 0x23E6 JUMP JUMPDEST PUSH2 0x3D10 PUSH1 0x20 DUP4 ADD DUP7 PUSH2 0x23E6 JUMP JUMPDEST PUSH2 0x3D1D PUSH1 0x40 DUP4 ADD DUP6 PUSH2 0x23E6 JUMP JUMPDEST DUP2 DUP2 SUB PUSH1 0x60 DUP4 ADD MSTORE PUSH2 0x3D2F DUP2 DUP5 PUSH2 0x2D30 JUMP JUMPDEST SWAP1 POP SWAP6 SWAP5 POP POP POP POP POP JUMP JUMPDEST PUSH0 PUSH2 0x3D44 DUP3 PUSH2 0x3C62 JUMP JUMPDEST PUSH2 0x3D4E DUP2 DUP6 PUSH2 0x2E86 JUMP JUMPDEST SWAP4 POP PUSH2 0x3D5E DUP2 DUP6 PUSH1 0x20 DUP7 ADD PUSH2 0x2D08 JUMP JUMPDEST DUP1 DUP5 ADD SWAP2 POP POP SWAP3 SWAP2 POP POP JUMP JUMPDEST PUSH0 PUSH2 0x3D75 DUP3 DUP5 PUSH2 0x3D3A JUMP JUMPDEST SWAP2 POP DUP2 SWAP1 POP SWAP3 SWAP2 POP POP JUMP JUMPDEST PUSH32 0x4F776E657273686970207472616E73666572206661696C656400000000000000 PUSH0 DUP3 ADD MSTORE POP JUMP JUMPDEST PUSH0 PUSH2 0x3DB4 PUSH1 0x19 DUP4 PUSH2 0x2CF8 JUMP JUMPDEST SWAP2 POP PUSH2 0x3DBF DUP3 PUSH2 0x3D80 JUMP JUMPDEST PUSH1 0x20 DUP3 ADD SWAP1 POP SWAP2 SWAP1 POP JUMP JUMPDEST PUSH0 PUSH1 0x20 DUP3 ADD SWAP1 POP DUP2 DUP2 SUB PUSH0 DUP4 ADD MSTORE PUSH2 0x3DE1 DUP2 PUSH2 0x3DA8 JUMP JUMPDEST SWAP1 POP SWAP2 SWAP1 POP JUMP INVALID LOG2 PUSH5 0x6970667358 0x22 SLT KECCAK256 LOG2 0xAF 0xEE 0xB3 0xDE 0xB0 MLOAD 0x21 0xA6 PUSH14 0xFED348CA323DF6AC561B73E6A327 0x23 0xAF 0xE6 PUSH26 0x7211944664736F6C634300081800330000000000000000000000 "
    },
    "gasEstimates": {
      "creation": {
        "codeDepositCost": "3180400",
        "executionCost": "infinite",
        "totalCost": "infinite"
      },
      "external": {
        "": "1832",
        "checkWrapped(bytes32)": "infinite",
        "computeAddress(uint256,bytes)": "infinite",
        "defaultParent()": "infinite",
        "ensRegistry()": "infinite",
        "nameWrapper()": "infinite",
        "onERC1155BatchReceived(address,address,uint256[],uint256[],bytes)": "infinite",
        "onERC1155Received(address,address,uint256,uint256,bytes)": "infinite",
        "owner()": "2648",
        "pricing()": "2558",
        "renounceOwnership()": "infinite",
        "reverseRegistrar()": "infinite",
        "setENSRegistry(address)": "infinite",
        "setName(address,string,string,bytes32)": "infinite",
        "setNameAndDeploy(bytes,string,string,bytes32)": "infinite",
        "setNameAndDeployReverseClaimer(bytes,string,string,bytes32)": "infinite",
        "setNameAndDeployReverseSetter(bytes,string,string,bytes32)": "infinite",
        "setNameAndDeployWithoutLabel(bytes,string,bytes32)": "infinite",
        "setNameWrapper(address)": "infinite",
        "setReverseRegistrar(address)": "infinite",
        "supportsInterface(bytes4)": "699",
        "transferOwnership(address)": "infinite",
        "updateDefaultParent(string)": "infinite",
        "updatePricing(uint256)": "infinite",
        "withdraw()": "infinite"
      },
      "internal": {
        "_createSubname(bytes32,string calldata,bytes32)": "infinite",
        "_deploy(uint256,bytes memory)": "infinite",
        "_isDefaultParent(string calldata)": "infinite",
        "_isSenderOwner(bytes32)": "infinite",
        "_setAddr(bytes32,uint256,bytes memory)": "infinite",
        "_setPrimaryName(address,string memory,address)": "infinite",
        "_transferContractOwnership(address,address)": "infinite",
        "getResolver(bytes32)": "infinite"
      }
    },
    "methodIdentifiers": {
      "checkWrapped(bytes32)": "79293fbe",
      "computeAddress(uint256,bytes)": "8975491f",
      "defaultParent()": "e7d4fe75",
      "ensRegistry()": "7d73b231",
      "nameWrapper()": "a8e5fbc0",
      "onERC1155BatchReceived(address,address,uint256[],uint256[],bytes)": "bc197c81",
      "onERC1155Received(address,address,uint256,uint256,bytes)": "f23a6e61",
      "owner()": "8da5cb5b",
      "pricing()": "7ce91411",
      "renounceOwnership()": "715018a6",
      "reverseRegistrar()": "80869853",
      "setENSRegistry(address)": "479f6152",
      "setName(address,string,string,bytes32)": "5e3e940f",
      "setNameAndDeploy(bytes,string,string,bytes32)": "5a0dac49",
      "setNameAndDeployReverseClaimer(bytes,string,string,bytes32)": "04917062",
      "setNameAndDeployReverseSetter(bytes,string,string,bytes32)": "7ed7e08c",
      "setNameAndDeployWithoutLabel(bytes,string,bytes32)": "acd71554",
      "setNameWrapper(address)": "371412f1",
      "setReverseRegistrar(address)": "557499ba",
      "supportsInterface(bytes4)": "01ffc9a7",
      "transferOwnership(address)": "f2fde38b",
      "updateDefaultParent(string)": "85987217",
      "updatePricing(uint256)": "48cedf85",
      "withdraw()": "3ccfd60b"
    }
  },
  "abi": [
    {
      "inputs": [
        {
          "internalType": "address",
          "name": "_reverseRegistrar",
          "type": "address"
        },
        {
          "internalType": "address",
          "name": "_ensRegistry",
          "type": "address"
        },
        {
          "internalType": "address",
          "name": "_nameWrapper",
          "type": "address"
        },
        {
          "internalType": "string",
          "name": "_defaultParent",
          "type": "string"
        },
        {
          "internalType": "uint256",
          "name": "_pricing",
          "type": "uint256"
        }
      ],
      "stateMutability": "nonpayable",
      "type": "constructor"
    },
    {
      "inputs": [
        {
          "internalType": "address",
          "name": "owner",
          "type": "address"
        }
      ],
      "name": "OwnableInvalidOwner",
      "type": "error"
    },
    {
      "inputs": [
        {
          "internalType": "address",
          "name": "account",
          "type": "address"
        }
      ],
      "name": "OwnableUnauthorizedAccount",
      "type": "error"
    },
    {
      "anonymous": false,
      "inputs": [
        {
          "indexed": false,
          "internalType": "address",
          "name": "contractAddress",
          "type": "address"
        }
      ],
      "name": "ContractDeployed",
      "type": "event"
    },
    {
      "anonymous": false,
      "inputs": [
        {
          "indexed": false,
          "internalType": "address",
          "name": "deployedAddress",
          "type": "address"
        },
        {
          "indexed": false,
          "internalType": "address",
          "name": "owner",
          "type": "address"
        }
      ],
      "name": "ContractOwnershipTransferred",
      "type": "event"
    },
    {
      "anonymous": false,
      "inputs": [
        {
          "indexed": false,
          "internalType": "address",
          "name": "sender",
          "type": "address"
        },
        {
          "indexed": false,
          "internalType": "uint256",
          "name": "amount",
          "type": "uint256"
        }
      ],
      "name": "EtherReceived",
      "type": "event"
    },
    {
      "anonymous": false,
      "inputs": [
        {
          "indexed": true,
          "internalType": "address",
          "name": "previousOwner",
          "type": "address"
        },
        {
          "indexed": true,
          "internalType": "address",
          "name": "newOwner",
          "type": "address"
        }
      ],
      "name": "OwnershipTransferred",
      "type": "event"
    },
    {
      "anonymous": false,
      "inputs": [
        {
          "indexed": true,
          "internalType": "address",
          "name": "contractAddress",
          "type": "address"
        },
        {
          "indexed": false,
          "internalType": "string",
          "name": "subname",
          "type": "string"
        }
      ],
      "name": "SetAddrSuccess",
      "type": "event"
    },
    {
      "anonymous": false,
      "inputs": [
        {
          "indexed": true,
          "internalType": "address",
          "name": "deployedAddress",
          "type": "address"
        },
        {
          "indexed": false,
          "internalType": "string",
          "name": "subname",
          "type": "string"
        }
      ],
      "name": "SetPrimaryNameSuccess",
      "type": "event"
    },
    {
      "anonymous": false,
      "inputs": [
        {
          "indexed": false,
          "internalType": "bytes32",
          "name": "parentHash",
          "type": "bytes32"
        },
        {
          "indexed": false,
          "internalType": "string",
          "name": "label",
          "type": "string"
        }
      ],
      "name": "SubnameCreated",
      "type": "event"
    },
    {
      "stateMutability": "payable",
      "type": "fallback"
    },
    {
      "inputs": [
        {
          "internalType": "bytes32",
          "name": "node",
          "type": "bytes32"
        }
      ],
      "name": "checkWrapped",
      "outputs": [
        {
          "internalType": "bool",
          "name": "",
          "type": "bool"
        }
      ],
      "stateMutability": "view",
      "type": "function"
    },
    {
      "inputs": [
        {
          "internalType": "uint256",
          "name": "salt",
          "type": "uint256"
        },
        {
          "internalType": "bytes",
          "name": "bytecode",
          "type": "bytes"
        }
      ],
      "name": "computeAddress",
      "outputs": [
        {
          "internalType": "address",
          "name": "",
          "type": "address"
        }
      ],
      "stateMutability": "view",
      "type": "function"
    },
    {
      "inputs": [],
      "name": "defaultParent",
      "outputs": [
        {
          "internalType": "string",
          "name": "",
          "type": "string"
        }
      ],
      "stateMutability": "view",
      "type": "function"
    },
    {
      "inputs": [],
      "name": "ensRegistry",
      "outputs": [
        {
          "internalType": "contract IENSRegistry",
          "name": "",
          "type": "address"
        }
      ],
      "stateMutability": "view",
      "type": "function"
    },
    {
      "inputs": [],
      "name": "nameWrapper",
      "outputs": [
        {
          "internalType": "contract INameWrapper",
          "name": "",
          "type": "address"
        }
      ],
      "stateMutability": "view",
      "type": "function"
    },
    {
      "inputs": [
        {
          "internalType": "address",
          "name": "",
          "type": "address"
        },
        {
          "internalType": "address",
          "name": "",
          "type": "address"
        },
        {
          "internalType": "uint256[]",
          "name": "",
          "type": "uint256[]"
        },
        {
          "internalType": "uint256[]",
          "name": "",
          "type": "uint256[]"
        },
        {
          "internalType": "bytes",
          "name": "",
          "type": "bytes"
        }
      ],
      "name": "onERC1155BatchReceived",
      "outputs": [
        {
          "internalType": "bytes4",
          "name": "",
          "type": "bytes4"
        }
      ],
      "stateMutability": "pure",
      "type": "function"
    },
    {
      "inputs": [
        {
          "internalType": "address",
          "name": "",
          "type": "address"
        },
        {
          "internalType": "address",
          "name": "",
          "type": "address"
        },
        {
          "internalType": "uint256",
          "name": "",
          "type": "uint256"
        },
        {
          "internalType": "uint256",
          "name": "",
          "type": "uint256"
        },
        {
          "internalType": "bytes",
          "name": "",
          "type": "bytes"
        }
      ],
      "name": "onERC1155Received",
      "outputs": [
        {
          "internalType": "bytes4",
          "name": "",
          "type": "bytes4"
        }
      ],
      "stateMutability": "pure",
      "type": "function"
    },
    {
      "inputs": [],
      "name": "owner",
      "outputs": [
        {
          "internalType": "address",
          "name": "",
          "type": "address"
        }
      ],
      "stateMutability": "view",
      "type": "function"
    },
    {
      "inputs": [],
      "name": "pricing",
      "outputs": [
        {
          "internalType": "uint256",
          "name": "",
          "type": "uint256"
        }
      ],
      "stateMutability": "view",
      "type": "function"
    },
    {
      "inputs": [],
      "name": "renounceOwnership",
      "outputs": [],
      "stateMutability": "nonpayable",
      "type": "function"
    },
    {
      "inputs": [],
      "name": "reverseRegistrar",
      "outputs": [
        {
          "internalType": "contract IReverseRegistrar",
          "name": "",
          "type": "address"
        }
      ],
      "stateMutability": "view",
      "type": "function"
    },
    {
      "inputs": [
        {
          "internalType": "address",
          "name": "_addr",
          "type": "address"
        }
      ],
      "name": "setENSRegistry",
      "outputs": [],
      "stateMutability": "nonpayable",
      "type": "function"
    },
    {
      "inputs": [
        {
          "internalType": "address",
          "name": "contractAddress",
          "type": "address"
        },
        {
          "internalType": "string",
          "name": "label",
          "type": "string"
        },
        {
          "internalType": "string",
          "name": "parentName",
          "type": "string"
        },
        {
          "internalType": "bytes32",
          "name": "parentNode",
          "type": "bytes32"
        }
      ],
      "name": "setName",
      "outputs": [
        {
          "internalType": "bool",
          "name": "success",
          "type": "bool"
        }
      ],
      "stateMutability": "payable",
      "type": "function"
    },
    {
      "inputs": [
        {
          "internalType": "bytes",
          "name": "bytecode",
          "type": "bytes"
        },
        {
          "internalType": "string",
          "name": "label",
          "type": "string"
        },
        {
          "internalType": "string",
          "name": "parentName",
          "type": "string"
        },
        {
          "internalType": "bytes32",
          "name": "parentNode",
          "type": "bytes32"
        }
      ],
      "name": "setNameAndDeploy",
      "outputs": [
        {
          "internalType": "address",
          "name": "deployedAddress",
          "type": "address"
        }
      ],
      "stateMutability": "payable",
      "type": "function"
    },
    {
      "inputs": [
        {
          "internalType": "bytes",
          "name": "bytecode",
          "type": "bytes"
        },
        {
          "internalType": "string",
          "name": "label",
          "type": "string"
        },
        {
          "internalType": "string",
          "name": "parentName",
          "type": "string"
        },
        {
          "internalType": "bytes32",
          "name": "parentNode",
          "type": "bytes32"
        }
      ],
      "name": "setNameAndDeployReverseClaimer",
      "outputs": [
        {
          "internalType": "address",
          "name": "deployedAddress",
          "type": "address"
        }
      ],
      "stateMutability": "payable",
      "type": "function"
    },
    {
      "inputs": [
        {
          "internalType": "bytes",
          "name": "bytecode",
          "type": "bytes"
        },
        {
          "internalType": "string",
          "name": "label",
          "type": "string"
        },
        {
          "internalType": "string",
          "name": "parentName",
          "type": "string"
        },
        {
          "internalType": "bytes32",
          "name": "parentNode",
          "type": "bytes32"
        }
      ],
      "name": "setNameAndDeployReverseSetter",
      "outputs": [
        {
          "internalType": "address",
          "name": "deployedAddress",
          "type": "address"
        }
      ],
      "stateMutability": "payable",
      "type": "function"
    },
    {
      "inputs": [
        {
          "internalType": "bytes",
          "name": "bytecode",
          "type": "bytes"
        },
        {
          "internalType": "string",
          "name": "ensName",
          "type": "string"
        },
        {
          "internalType": "bytes32",
          "name": "node",
          "type": "bytes32"
        }
      ],
      "name": "setNameAndDeployWithoutLabel",
      "outputs": [
        {
          "internalType": "address",
          "name": "deployedAddress",
          "type": "address"
        }
      ],
      "stateMutability": "payable",
      "type": "function"
    },
    {
      "inputs": [
        {
          "internalType": "address",
          "name": "_addr",
          "type": "address"
        }
      ],
      "name": "setNameWrapper",
      "outputs": [],
      "stateMutability": "nonpayable",
      "type": "function"
    },
    {
      "inputs": [
        {
          "internalType": "address",
          "name": "_addr",
          "type": "address"
        }
      ],
      "name": "setReverseRegistrar",
      "outputs": [],
      "stateMutability": "nonpayable",
      "type": "function"
    },
    {
      "inputs": [
        {
          "internalType": "bytes4",
          "name": "interfaceId",
          "type": "bytes4"
        }
      ],
      "name": "supportsInterface",
      "outputs": [
        {
          "internalType": "bool",
          "name": "",
          "type": "bool"
        }
      ],
      "stateMutability": "pure",
      "type": "function"
    },
    {
      "inputs": [
        {
          "internalType": "address",
          "name": "newOwner",
          "type": "address"
        }
      ],
      "name": "transferOwnership",
      "outputs": [],
      "stateMutability": "nonpayable",
      "type": "function"
    },
    {
      "inputs": [
        {
          "internalType": "string",
          "name": "newParent",
          "type": "string"
        }
      ],
      "name": "updateDefaultParent",
      "outputs": [],
      "stateMutability": "nonpayable",
      "type": "function"
    },
    {
      "inputs": [
        {
          "internalType": "uint256",
          "name": "newPrice",
          "type": "uint256"
        }
      ],
      "name": "updatePricing",
      "outputs": [],
      "stateMutability": "nonpayable",
      "type": "function"
    },
    {
      "inputs": [],
      "name": "withdraw",
      "outputs": [],
      "stateMutability": "nonpayable",
      "type": "function"
    },
    {
      "stateMutability": "payable",
      "type": "receive"
    }
  ]
}